:100000000C9462000C948A000C948A000C948A0070
:100010000C948A000C948A000C948A000C948A0038
:100020000C948A000C948A000C948A000C948A0028
:100030000C948A000C948A000C948A000C948A0018
:100040000C9476040C948A000C9444040C941E04C2
:100050000C948A000C948A000C948A000C948A00F8
:100060000C948A000C948A000000000024002700F1
:100070002A0000000000250028002B0000000000DE
:1000800023002600290004040404040404040202DA
:100090000202020203030303030301020408102007
:1000A0004080010204081020010204081020000012
:1000B0000008000201000003040700000000000027
:1000C0000000C00411241FBECFEFD8E0DEBFCDBFBB
:1000D00011E0A0E0B1E0EEE3F9E102C005900D927D
:1000E000AC3AB107D9F722E0ACEAB1E001C01D9209
:1000F000AE38B207E1F710E0C2E6D0E004C02197C5
:10010000FE010E94970CC136D107C9F70E94F30483
:100110000C949D0C0C940000AF92BF92CF92DF9292
:10012000EF92FF920F931F93CF93DF936C017B01AC
:100130008B01040F151FEB015E01AE18BF08C0173D
:10014000D10759F06991D601ED91FC910190F081B0
:10015000E02DC6010995892B79F7C501DF91CF9173
:100160001F910F91FF90EF90DF90CF90BF90AF90D5
:100170000895FC01538D448D252F30E0842F90E0AD
:10018000821B930B541710F0CF9608950197089592
:10019000FC01918D828D981761F0A28DAE0FBF2F5B
:1001A000B11D5D968C91928D9F5F9F73928F90E0B1
:1001B00008958FEF9FEF0895FC01918D828D981720
:1001C00031F0828DE80FF11D858D90E008958FEF5D
:1001D0009FEF0895FC01918D228D892F90E0805C26
:1001E0009F4F821B91098F73992708958EED91E09F
:1001F0000E94EA0021E0892B09F420E0822F089573
:1002000080E090E0892B29F00E94F60081110C9487
:1002100000000895FC01A48DA80FB92FB11DA35AA9
:10022000BF4F2C91848D90E001968F739927848F16
:10023000A689B7892C93A089B1898C918370806439
:100240008C93938D848D981306C00288F389E02DDA
:1002500080818F7D80830895EF92FF920F931F938B
:10026000CF93DF93EC0181E0888F9B8D8C8D981369
:100270001AC0E889F989808185FF15C09FB7F89475
:10028000EE89FF896083E889F989808183708064C1
:1002900080839FBF81E090E0DF91CF911F910F910C
:1002A000FF90EF900895F62E0B8D10E00F5F1F4F1B
:1002B0000F731127E02E8C8D8E110CC00FB607FC2A
:1002C000FACFE889F989808185FFF5CFCE010E94B8
:1002D0000A01F1CFEB8DEC0FFD2FF11DE35AFF4F1B
:1002E000F0829FB7F8940B8FEA89FB898081806246
:1002F000CFCF682F8EED91E00C942C01CF93DF933C
:10030000EC01888D8823B9F0AA89BB89E889F9892D
:100310008C9185FD03C0808186FD0DC00FB607FC62
:10032000F7CF8C9185FFF2CF808185FFEDCFCE0195
:100330000E940A01E9CFDF91CF910895833081F0C7
:1003400028F4813099F08230A9F008958730A9F01F
:100350008830C9F08430B1F4809180008F7D03C073
:10036000809180008F7780938000089584B58F7787
:1003700084BD089584B58F7DFBCF8091B0008F77C9
:100380008093B00008958091B0008F7DF9CF1F93C6
:10039000CF93DF93282F30E0F901E255FF4F84918E
:1003A000F901E656FF4FD491F901EA57FF4FC49186
:1003B000CC23A9F0162F81110E949E01EC2FF0E0B2
:1003C000EE0FFF1FEE58FF4FA591B4918FB7F89431
:1003D000EC91111108C0D095DE23DC938FBFDF9123
:1003E000CF911F910895DE2BF8CFCF93DF9390E04C
:1003F000FC01E656FF4F24918A579F4FFC018491E0
:100400008823C9F090E0880F991FFC01E859FF4F3D
:10041000A591B491FC01EE58FF4FC591D4916111A3
:100420000DC09FB7F8948C91209582238C9388817E
:10043000282328839FBFDF91CF910895623051F424
:100440009FB7F8943C91822F809583238C93E88109
:100450002E2BEFCF8FB7F894EC912E2B2C938FBFD0
:10046000EACF3FB7F8948091B1019091B201A09189
:10047000B301B091B40126B5A89B05C02F3F19F078
:100480000196A11DB11D3FBFBA2FA92F982F882714
:10049000BC01CD01620F711D811D911D42E0660FEF
:1004A000771F881F991F4A95D1F708952F923F9281
:1004B0004F925F926F927F928F929F92AF92BF9274
:1004C000CF92DF92EF92FF920F931F93CF93DF9320
:1004D000C82F062F49015A010E9431026B017C018D
:1004E000D0E0CE0182559F4F2C01FE01E656FF4F12
:1004F0003F01CA57DF4F10E0F2018491F3013490BD
:10050000FE012490222029F181110E949E01E22DFA
:10051000F0E0EE0FFF1FE458FF4FA591B4918C91CE
:10052000382231E020E009F430E0832F922F0817C1
:10053000190791F40E9431026C197D098E099F09F7
:1005400086169706A806B906B8F660E070E0CB01FB
:1005500009C090E080E0EBCF0E9431026C197D0968
:100560008E099F09DF91CF911F910F91FF90EF901E
:10057000DF90CF90BF90AF909F908F907F906F90C3
:100580005F904F903F902F900895FC0101900020C4
:10059000E9F73197AF01481B590BBC018EED91E093
:1005A0000C948C008F929F92AF92BF920F931F93E7
:1005B000CF93DF93CDB7DEB7A1970FB6F894DEBF28
:1005C0000FBECDBF19A2423008F44AE08E010F5D84
:1005D0001F4F842E912CB12CA12CA50194010E94B7
:1005E000750CE62FB901CA01EA30F4F4E05DD801D8
:1005F000EE938D01232B242B252B79F790E080E0BF
:10060000109719F0CD010E94C502A1960FB6F8947B
:10061000DEBF0FBECDBFDF91CF911F910F91BF9075
:10062000AF909F908F900895E95CE1CFCF93DF93D7
:100630000E94C502EC0182E191E00E94C5028C0F8C
:100640009D1FDF91CF9108950C94C5024F925F9248
:100650006F927F928F929F92AF92BF92CF92DF92D2
:10066000EF92FF926B017C01AC019B010E94700C28
:10067000882381F085E191E0FF90EF90DF90CF90AB
:10068000BF90AF909F908F907F906F905F904F90B2
:100690000C94C50246015701E894B7F82FEF3FEFDD
:1006A0004FE75FE7C501B4010E94700C81110DC0D6
:1006B0002FEF3FEF4FE75FE7C501B4010E94A60AA5
:1006C00018161CF489E191E0D7CF2FEF3FEF4FE7E9
:1006D0005FE4C701B6010E94FE0B18161CF48DE101
:1006E00091E0CACF2FEF3FEF4FE75FECC701B601B4
:1006F0000E94A60A87FDF3CF20E030E0A901C701E0
:10070000B6010E94A60AB12CA12C87FF08C08DE279
:100710000E9479015C01F7FAF094F7F8F0942AE06E
:1007200037ED43EA5BE3C701B6010E943A0A2B01A9
:100730003C010E941D0B6B017C010E944C0B9B0134
:10074000AC01C301B2010E94390A2B013C014AE00D
:10075000C701B6010E94D2027C01EA0CFB1C8EE2AA
:100760000E947901E80EF91E20E030E040E251E4F9
:10077000C301B2010E94030C2B013C010E941D0B1E
:100780004B01B12CA12C4AE0C501B4010E94D20258
:10079000E80EF91EC501B4010E944C0B9B01AC018F
:1007A000C301B2010E94390A20E030E040E251E486
:1007B0000E94030C0E941D0B90E080E04AE00E9422
:1007C000D2028E0D9F1DFF90EF90DF90CF90BF90D3
:1007D000AF909F908F907F906F905F904F90089513
:1007E000CF92DF92EF92FF92CF93DF936C01990F3C
:1007F000EE08FF08F7FE17C08DE20E947901EC01B8
:1008000066277727CB016C197D098E099F094AE07D
:100810000E94D2028C0F9D1FDF91CF91FF90EF902D
:10082000DF90CF9008954AE0C701B601DF91CF91E4
:10083000FF90EF90DF90CF900C94D2021F920F9216
:100840000FB60F9211242F933F934F935F936F93A3
:100850007F938F939F93AF93BF93EF93FF938EED0F
:1008600091E00E940A01FF91EF91BF91AF919F919A
:100870008F917F916F915F914F913F912F910F9049
:100880000FBE0F901F9018951F920F920FB60F92E8
:1008900011242F938F939F93EF93FF93E091EE0199
:1008A000F091EF018081E091F401F091F50182FD7A
:1008B0001BC090818091F7018F5F8F732091F801A9
:1008C000821741F0E091F701F0E0E252FE4F958F80
:1008D0008093F701FF91EF919F918F912F910F904E
:1008E0000FBE0F901F9018958081F4CF1F920F922A
:1008F0000FB60F9211242F933F938F939F93AF9333
:10090000BF938091AD019091AE01A091AF01B091E4
:10091000B0013091AC0123E0230F2D3758F501963B
:10092000A11DB11D2093AC018093AD019093AE0148
:10093000A093AF01B093B0018091B1019091B20149
:10094000A091B301B091B4010196A11DB11D809396
:10095000B1019093B201A093B301B093B401BF91E0
:10096000AF919F918F913F912F910F900FBE0F905C
:100970001F90189526E8230F0296A11DB11DD2CF16
:10098000EEEDF1E01382128288EE93E0A0E0B0E099
:1009900084839583A683B78384E091E091838083E9
:1009A00085EC90E09587848784EC90E09787868734
:1009B00080EC90E0918B808B81EC90E0938B828B2C
:1009C00082EC90E0958B848B86EC90E0978B868B05
:1009D000118E128E138E148EEBE7F2E082E080838C
:1009E0008BE081830895CF93DF9300D000D01F92D6
:1009F000CDB7DEB7789484B5826084BD84B581605C
:100A000084BD85B5826085BD85B5816085BD8091D9
:100A10006E00816080936E00109281008091810051
:100A20008260809381008091810081608093810049
:100A3000809180008160809380008091B10084600B
:100A40008093B1008091B00081608093B00080916C
:100A50007A00846080937A0080917A00826080932B
:100A60007A0080917A00816080937A0080917A0088
:100A7000806880937A001092C100E091EE01F091BD
:100A8000EF0182E08083E091EA01F091EB011082B6
:100A9000E091EC01F091ED018FEC80831092F60172
:100AA000E091F201F091F30186E08083E091F001A2
:100AB000F091F101808180618083E091F001F091FB
:100AC000F101808188608083E091F001F091F10173
:100AD000808180688083E091F001F091F101808154
:100AE0008F7D808360E082E00E94F50161E083E019
:100AF0000E94F50161E084E00E94F50161E085E07B
:100B00000E94F50161E086E00E94F50161E087E066
:100B10000E94F50161E088E00E94F50161E089E052
:100B20000E94F50161E08AE00E94F50161E08BE03E
:100B30000E94F50161E08CE00E94F50161E08DE02A
:100B40000E94F50161E08EE00E94F50161E08FE016
:100B50000E94F50161E080E10E94F50161E081E120
:100B60000E94F50161E082E10E94F50161E083E10C
:100B70000E94F50101E0BEEFDB2ECC24CA94A0E078
:100B8000EA2EA0E0FA2EFDEF3F2E8EED91E00E94BE
:100B9000EA00892BD1F38EED91E00E94C8008336E4
:100BA000910509F4CDC10CF073C08833910509F4A7
:100BB00093C15CF58533910509F45AC134F4C497A7
:100BC00009F4D5C089E591E0F8C28633910509F4AE
:100BD00069C1C797B9F761E08091D6019091D701BB
:100BE000892B09F060E0862F90E09093D7018093E5
:100BF000D60187E00E94C70181E291E00E942403B0
:100C00008091D6019091D701CBC08F33910509F423
:100C1000C9C0E4F4C997B1F661E08091D201909126
:100C2000D301892B09F060E0862F90E09093D301E7
:100C30008093D20189E00E94C70181E291E00E9485
:100C400024038091D2019091D301AAC081369105ED
:100C500009F45CC18236910509F0B4CF61E080915E
:100C6000CE019091CF01892B09F060E0862F90E0B2
:100C70009093CF018093CE018BE00E94C70181E267
:100C800091E00E9424038091CE019091CF0188C011
:100C90008836910509F4F0C144F58536910509F4CB
:100CA00083C10CF467C18636910509F497C1873674
:100CB000910509F087CF61E08091C4019091C50151
:100CC000892B09F060E0862F90E09093C501809316
:100CD000C40180E10E94C70181E291E00E942403E7
:100CE0008091C4019091C5015BC08B36910509F4D8
:100CF000A9C114F58936910509F48AC18A3691058E
:100D000009F060CF61E08091C0019091C101892B11
:100D100009F060E0862F90E09093C1018093C001BC
:100D200082E10E94C70181E291E00E942403809148
:100D3000C0019091C10134C08337910509F4AEC15F
:100D40008437910509F03ECF8091BD01882351F190
:100D500089E391E00E9424036091B9017091BA0186
:100D60008091BB019091BC010E9426031BC061E0F1
:100D70008091DC019091DD01892B09F060E0862FE4
:100D800090E09093DD018093DC0184E00E94C70134
:100D900081E291E00E9424038091DC019091DD01C9
:100DA0000E94F00361E083E00E94C70119821A8269
:100DB0001B821C821D8261E080917B020E94F501F2
:100DC00060E080917B020E94C7010E9431022B01EA
:100DD0003C01E2E18E2E912CA12CB12C0E9431021B
:100DE0006419750986099709683E73408105910564
:100DF000A8F321E0821A9108A108B10888EE480EF4
:100E000083E0581E611C711C81149104A104B1047B
:100E100029F762E080917B020E94F50128E230E030
:100E200040E050E061E080917B020E945602672B17
:100E3000682B692B09F0C4C130927D0280917D023C
:100E40008E3F09F410C30CF0E0C28D3F09F40EC3CD
:100E500060E083E00E94C701E114F10409F495CE3B
:100E60000E94F600882309F48ECE0E94000087CEEF
:100E700061E08091DA019091DB01892B09F060E05B
:100E8000862F90E09093DB018093DA0185E00E9449
:100E9000C70181E291E00E9424038091DA019091E0
:100EA000DB017ECF61E08091D8019091D901892B3F
:100EB00009F060E0862F90E09093D9018093D801EB
:100EC00086E00E94C70181E291E00E9424038091A4
:100ED000D8019091D90164CF61E08091D4019091C3
:100EE000D501892B09F060E0862F90E09093D50121
:100EF0008093D40188E00E94C70181E291E00E94C2
:100F000024038091D4019091D5014ACF61E0809172
:100F1000D0019091D101892B09F060E0862F90E0FB
:100F20009093D1018093D0018AE00E94C70181E2B1
:100F300091E00E9424038091D0019091D10130CFA3
:100F400061E08091CC019091CD01892B09F060E0A6
:100F5000862F90E09093CD018093CC018CE00E948D
:100F6000C70181E291E00E9424038091CC0190911D
:100F7000CD0116CF61E08091CA019091CB01892B00
:100F800009F060E0862F90E09093CB018093CA0136
:100F90008DE00E94C70181E291E00E9424038091CC
:100FA000CA019091CB01FCCE61E08091C801909183
:100FB000C901892B09F060E0862F90E09093C90168
:100FC0008093C8018EE00E94C70181E291E00E94F7
:100FD00024038091C8019091C901E2CE61E0809123
:100FE000C6019091C701892B09F060E0862F90E03F
:100FF0009093C7018093C6018FE00E94C70181E2F0
:1010000091E00E9424038091C6019091C701C8CE4F
:1010100061E08091C2019091C301892B09F060E0E9
:10102000862F90E09093C3018093C20181E10E94DA
:10103000C70181E291E00E9424038091C201909156
:10104000C301AECE61E08091BE019091BF01892BBA
:1010500009F060E0862F90E09093BF018093BE017D
:1010600083E10E94C70181E291E00E942403809104
:10107000BE019091BF0194CE8091BD01882309F4F7
:1010800091CE8AE491E00E9424036091B5017091B1
:10109000B6018091B7019091B80166CE80E30E94BD
:1010A000790180E30E94790180E30E94790180E365
:1010B0000E9479018091DC019091DD010E94F00392
:1010C0008091DA019091DB010E94F0038091D801B8
:1010D0009091D9010E94F0038091D6019091D7019F
:1010E0000E94F0038091D4019091D5010E94F003F9
:1010F0008091D2019091D3010E94F0038091D001A0
:101100009091D1010E94F0038091CE019091CF0186
:101110000E94F0038091CC019091CD010E94F003D8
:101120008091CA019091CB010E94F0038091C80187
:101130009091C9010E94F0038091C6019091C7016E
:101140000E94F0038091C4019091C5010E94F003B8
:101150008091C2019091C3010E94F0038091C0016F
:101160009091C1010E94F0038091BE019091BF0156
:101170000E94F0038091BD01882309F413CE86E319
:1011800091E00E9424036091B9017091BA018091AD
:10119000BB019091BC010E94260387E491E00E946C
:1011A00024036091B5017091B6018091B7019091CF
:1011B000B8010E94260385E591E00E942403F2CD48
:1011C00020E530E040E050E060E080917B020E944A
:1011D0005602672B682B692B09F42ECE20E530E0F0
:1011E00040E050E061E080917B020E945602672B54
:1011F000682B692B09F420CE712C612C22E330E09E
:1012000040E050E060E080917B020E94560224E6BC
:1012100030E040E050E061E080917B020E945602A5
:10122000662349F1F30173E0F595E7957A95E1F7C7
:1012300081E090E08C0F9D1FE80FF91F8081880FDF
:1012400091E06E3208F490E0890F80839FEF691A75
:10125000790A28E26216710489F669814A81AB80B5
:101260001C81862F840F8A0D810F9D81891731F093
:10127000C0927D02E3CDD0927D02E0CD80917C02D0
:10128000853109F486C0863109F4B9C08B3009F084
:101290006AC070E090E080E00E944C0B60938A028C
:1012A00070938B0280938C0290938D026A2D70E074
:1012B00090E080E00E944E0B2B013C0117FF56C0CE
:1012C0001F77612F70E090E080E00E944E0B2DECC4
:1012D0003CEC4CEC5DE30E94030C9B01AC0160E034
:1012E00070E080E89FE30E94390AA30192010E9406
:1012F0003A0A2B013C0177FA709477F87094409287
:101300007E0250927F02609280027092810220E001
:1013100030E040E151E4C301B2010E94030C20E03F
:1013200030E040EA50E40E94AB0A20E030E040E0C8
:1013300052E40E943A0A609382027093830280937F
:1013400084029093850223E333E948E853E4C30120
:10135000B2010E943A0A60938602709387028093DA
:1013600088029093890210927D0268CD612F70E00F
:1013700090E080E00E944E0B2DEC3CEC4CEC5DE3E9
:101380000E94030CA30192010E943A0A2B013C0126
:10139000B6CF262F30E0322F2227B901640F711DFE
:1013A000072E000C880B990B0E944E0B2DEC3CEC89
:1013B0004CEC5DE30E94030C60938A0270938B02F5
:1013C00080938C0290938D026A2D70E0762F6627B1
:1013D00066277F77610F711D072E000C880B990B14
:1013E0000E944E0B2DEC3CEC4CEC5DEBA7FC04C0DA
:1013F0002DEC3CEC4CEC5DE30E94030CC7CF862F38
:1014000090E0982F8827BC01C9CF8F3F29F1811127
:101410001FCD80918A0290918B02A0918C02B09195
:101420008D028093B5019093B601A093B701B0935C
:10143000B80180917E0290917F02A0918002B091CC
:1014400081028093B9019093BA01A093BB01B0933C
:10145000BC010093BD01FCCC89E691E00E9416031B
:101460001092BD01F5CC8BE791E0F8CF8DE891E0CB
:10147000F5CF5058BB27AA270E94510A0C94C40BE1
:101480000E94B60B38F00E94BD0B20F039F49F3F4C
:1014900019F426F40C94B30B0EF4E095E7FB0C94CE
:1014A000AD0BE92F0E94D50B58F3BA1762077307EB
:1014B0008407950720F079F4A6F50C94F70B0EF449
:1014C000E0950B2EBA2FA02D0B01B90190010C0154
:1014D000CA01A0011124FF27591B99F0593F50F46C
:1014E000503E68F11A16F040A22F232F342F4427C4
:1014F000585FF3CF469537952795A795F0405395BC
:10150000C9F77EF41F16BA0B620B730B840BBAF08B
:101510009150A1F0FF0FBB1F661F771F881FC2F7F6
:101520000EC0BA0F621F731F841F48F4879577950A
:101530006795B795F7959E3F08F0B0CF9395880FC4
:1015400008F09927EE0F9795879508950E94890BCB
:1015500008F481E008950E94BF0A0C94C40B0E9415
:10156000BD0B58F00E94B60B40F029F45F3F29F004
:101570000C94AD0B51110C94F80B0C94B30B0E940E
:10158000D50B68F39923B1F3552391F3951B550BB4
:10159000BB27AA2762177307840738F09F5F5F4F46
:1015A000220F331F441FAA1FA9F335D00E2E3AF085
:1015B000E0E832D091505040E695001CCAF72BD09D
:1015C000FE2F29D0660F771F881FBB1F26173707EE
:1015D0004807AB07B0E809F0BB0B802DBF01FF2720
:1015E00093585F4F3AF09E3F510578F00C94AD0B45
:1015F0000C94F80B5F3FE4F3983ED4F3869577950F
:101600006795B795F7959F5FC9F7880F911D9695D8
:10161000879597F90895E1E0660F771F881FBB1F34
:10162000621773078407BA0720F0621B730B840BE1
:10163000BA0BEE1F88F7E09508950E94DD0B88F045
:101640009F5798F0B92F9927B751B0F0E1F0660F86
:10165000771F881F991F1AF0BA95C9F714C0B130C7
:1016600091F00E94F70BB1E008950C94F70B672FEF
:10167000782F8827B85F39F0B93FCCF386957795F6
:101680006795B395D9F73EF49095809570956195DF
:101690007F4F8F4F9F4F0895E89409C097FB3EF40A
:1016A00090958095709561957F4F8F4F9F4F9923AF
:1016B000A9F0F92F96E9BB279395F695879577952D
:1016C0006795B795F111F8CFFAF4BB0F11F460FFED
:1016D0001BC06F5F7F4F8F4F9F4F16C0882311F045
:1016E00096E911C0772321F09EE8872F762F05C059
:1016F000662371F096E8862F70E060E02AF09A95F4
:10170000660F771F881FDAF7880F9695879597F9E8
:101710000895990F0008550FAA0BE0E8FEEF161682
:101720001706E807F907C0F012161306E407F507D5
:1017300098F0621B730B840B950B39F40A2661F049
:10174000232B242B252B21F408950A2609F4A140EC
:10175000A6958FEF811D811D089597F99F6780E8F9
:1017600070E060E008959FEF80EC089500240A94F3
:101770001616170618060906089500240A9412166C
:101780001306140605060895092E0394000C11F49F
:10179000882352F0BB0F40F4BF2B11F460FF04C04C
:1017A0006F5F7F4F8F4F9F4F089557FD9058440FA5
:1017B000551F59F05F3F71F04795880F97FB991FB0
:1017C00061F09F3F79F0879508951216130614066D
:1017D000551FF2CF4695F1DF08C0161617061806FA
:1017E000991FF1CF86957105610508940895E894D5
:1017F000BB2766277727CB0197F908950E94890BAD
:1018000008F48FEF08950E94160C0C94C40B0E94EC
:10181000B60B38F00E94BD0B20F0952311F00C940C
:10182000AD0B0C94B30B11240C94F80B0E94D50B48
:1018300070F3959FC1F3950F50E0551F629FF00123
:10184000729FBB27F00DB11D639FAA27F00DB11D3C
:10185000AA1F649F6627B00DA11D661F829F2227C5
:10186000B00DA11D621F739FB00DA11D621F839F4C
:10187000A00D611D221F749F3327A00D611D231F22
:10188000849F600D211D822F762F6A2F11249F5770
:1018900050409AF0F1F088234AF0EE0FFF1FBB1F73
:1018A000661F771F881F91505040A9F79E3F510532
:1018B00080F00C94AD0B0C94F80B5F3FE4F3983E72
:1018C000D4F3869577956795B795F795E7959F5FDC
:1018D000C1F7FE2B880F911D9695879597F908956E
:1018E0000E94890B880B990B0895A1E21A2EAA1B5E
:1018F000BB1BFD010DC0AA1FBB1FEE1FFF1FA217C0
:10190000B307E407F50720F0A21BB30BE40BF50BBC
:10191000661F771F881F991F1A9469F76095709545
:10192000809590959B01AC01BD01CF010895EE0F0C
:0E193000FF1F0590F491E02D0994F894FFCF6D
:10193E00000000002C018C00B9007E01EA00C800F6
:10194E00DC000D0A006E616E00696E66006F7666D1
:10195E000070696E207374617465206368616E67D0
:10196E006520746F200020282074656D706572618B
:10197E00747572653A2000202F2068756D69646950
:10198E0074793A20002029200070696E2069732036
:10199E006E6F74207573656400202F204368656335
:1019AE006B73756D206572726F7200202F205469F3
:1019BE006D65206F7574206572726F7200202F2016
:1019CE0044485478782053656E736F72206E6F742E
:0C19DE0020636F6E6E656374656400002A
:00000001FF
