:100000000C9462000C948A000C948A000C948A0070
:100010000C948A000C948A000C948A000C948A0038
:100020000C948A000C948A000C948A000C948A0028
:100030000C948A000C948A000C948A000C948A0018
:100040000C946B040C948A000C9439040C941304E3
:100050000C948A000C948A000C948A000C948A00F8
:100060000C948A000C948A000000000024002700F1
:100070002A0000000000250028002B0000000000DE
:1000800023002600290004040404040404040202DA
:100090000202020203030303030301020408102007
:1000A0004080010204081020010204081020000012
:1000B0000008000201000003040700000000000027
:1000C0000000B50411241FBECFEFD8E0DEBFCDBFC6
:1000D00011E0A0E0B1E0ECE7F9E102C005900D927B
:1000E000AC39B107D9F722E0ACE9B1E001C01D920B
:1000F000A138B207E1F710E0C2E6D0E004C02197D2
:10010000FE010E94B60CC136D107C9F70E94E8046F
:100110000C94BC0C0C940000AF92BF92CF92DF9273
:10012000EF92FF920F931F93CF93DF936C017B01AC
:100130008B01040F151FEB015E01AE18BF08C0173D
:10014000D10759F06991D601ED91FC910190F081B0
:10015000E02DC6010995892B79F7C501DF91CF9173
:100160001F910F91FF90EF90DF90CF90BF90AF90D5
:100170000895FC01538D448D252F30E0842F90E0AD
:10018000821B930B541710F0CF9608950197089592
:10019000FC01918D828D981761F0A28DAE0FBF2F5B
:1001A000B11D5D968C91928D9F5F9F73928F90E0B1
:1001B00008958FEF9FEF0895FC01918D828D981720
:1001C00031F0828DE80FF11D858D90E008958FEF5D
:1001D0009FEF0895FC01918D228D892F90E0805C26
:1001E0009F4F821B91098F739927089581ED91E0AC
:1001F0000E94EA0021E0892B09F420E0822F089573
:1002000080E090E0892B29F00E94F60081110C9487
:1002100000000895FC01A48DA80FB92FB11DA35AA9
:10022000BF4F2C91848D90E001968F739927848F16
:10023000A689B7892C93A089B1898C918370806439
:100240008C93938D848D981306C00288F389E02DDA
:1002500080818F7D80830895EF92FF920F931F938B
:10026000CF93DF93EC0181E0888F9B8D8C8D981369
:100270001AC0E889F989808185FF15C09FB7F89475
:10028000EE89FF896083E889F989808183708064C1
:1002900080839FBF81E090E0DF91CF911F910F910C
:1002A000FF90EF900895F62E0B8D10E00F5F1F4F1B
:1002B0000F731127E02E8C8D8E110CC00FB607FC2A
:1002C000FACFE889F989808185FFF5CFCE010E94B8
:1002D0000A01F1CFEB8DEC0FFD2FF11DE35AFF4F1B
:1002E000F0829FB7F8940B8FEA89FB898081806246
:1002F000CFCF682F81ED91E00C942C01CF93DF9349
:10030000EC01888D8823B9F0AA89BB89E889F9892D
:100310008C9185FD03C0808186FD0DC00FB607FC62
:10032000F7CF8C9185FFF2CF808185FFEDCFCE0195
:100330000E940A01E9CFDF91CF910895833081F0C7
:1003400028F4813099F08230A9F008958730A9F01F
:100350008830C9F08430B1F4809180008F7D03C073
:10036000809180008F7780938000089584B58F7787
:1003700084BD089584B58F7DFBCF8091B0008F77C9
:100380008093B00008958091B0008F7DF9CF1F93C6
:10039000CF93DF93282F30E0F901E255FF4F84918E
:1003A000F901E656FF4FD491F901EA57FF4FC49186
:1003B000CC23A9F0162F81110E949E01EC2FF0E0B2
:1003C000EE0FFF1FEE58FF4FA591B4918FB7F89431
:1003D000EC91111108C0D095DE23DC938FBFDF9123
:1003E000CF911F910895DE2BF8CFCF93DF9390E04C
:1003F000FC01E656FF4F24918A579F4FFC018491E0
:100400008823D1F090E0880F991FFC01E859FF4F35
:10041000A591B491FC01EE58FF4FC591D491623083
:1004200071F49FB7F8943C91822F809583238C932D
:10043000E8812E2B28839FBFDF91CF9108958FB73E
:10044000F894EC912E2B2C938FBFF6CF3FB7F894F6
:100450008091A1019091A201A091A301B091A4016A
:1004600026B5A89B05C02F3F19F00196A11DB11D0F
:100470003FBFBA2FA92F982F8827BC01CD01620F4B
:10048000711D811D911D42E0660F771F881F991F06
:100490004A95D1F708952F923F924F925F926F92B3
:1004A0007F928F929F92AF92BF92CF92DF92EF9204
:1004B000FF920F931F93CF93DF93C82F062F49010D
:1004C0005A010E9426026B017C01D0E0CE018255C8
:1004D0009F4F2C01FE01E656FF4F3F01CA57DF4FE9
:1004E00010E0F2018491F3013490FE012490222067
:1004F00029F181110E949E01E22DF0E0EE0FFF1F15
:10050000E458FF4FA591B4918C91382231E020E05E
:1005100009F430E0832F922F0817190791F40E94F5
:1005200026026C197D098E099F0986169706A80672
:10053000B906B8F660E070E0CB0109C090E080E059
:10054000EBCF0E9426026C197D098E099F09DF916D
:10055000CF911F910F91FF90EF90DF90CF90BF90C0
:10056000AF909F908F907F906F905F904F903F9053
:100570002F900895FC0101900020E9F73197AF0119
:10058000481B590BBC0181ED91E00C948C008F92BB
:100590009F92AF92BF920F931F93CF93DF93CDB7EC
:1005A000DEB7A1970FB6F894DEBF0FBECDBF19A27C
:1005B000423008F44AE08E010F5D1F4F842E912CCB
:1005C000B12CA12CA50194010E94940CE62FB90135
:1005D000CA01EA30F4F4E05DD801EE938D01232BDB
:1005E000242B252B79F790E080E0109719F0CD01AE
:1005F0000E94BA02A1960FB6F894DEBF0FBECDBF1F
:10060000DF91CF911F910F91BF90AF909F908F90EE
:100610000895E95CE1CFCF93DF930E94BA02EC0129
:1006200082E191E00E94BA028C0F9D1FDF91CF9171
:1006300008950C94BA024F925F926F927F928F92BC
:100640009F92AF92BF92CF92DF92EF92FF926B0197
:100650007C01AC019B010E948F0C882381F085E115
:1006600091E0FF90EF90DF90CF90BF90AF909F9080
:100670008F907F906F905F904F900C94BA024601DC
:100680005701E894B7F82FEF3FEF4FE75FE7C50159
:10069000B4010E948F0C81110DC02FEF3FEF4FE787
:1006A0005FE7C501B4010E94C50A18161CF489E170
:1006B00091E0D7CF2FEF3FEF4FE75FE4C701B601DF
:1006C0000E941D0C18161CF48DE191E0CACF2FEF8B
:1006D0003FEF4FE75FECC701B6010E94C50A87FDF7
:1006E000F3CF20E030E0A901C701B6010E94C50A9E
:1006F000B12CA12C87FF08C08DE20E9479015C011A
:10070000F7FAF094F7F8F0942AE037ED43EA5BE368
:10071000C701B6010E94590A2B013C010E943C0B03
:100720006B017C010E946B0B9B01AC01C301B20108
:100730000E94580A2B013C014AE0C701B6010E9401
:10074000C7027C01EA0CFB1C8EE20E947901E80ED4
:10075000F91E20E030E040E251E4C301B2010E9402
:10076000220C2B013C010E943C0B4B01B12CA12C13
:100770004AE0C501B4010E94C702E80EF91EC50196
:10078000B4010E946B0B9B01AC01C301B2010E943A
:10079000580A20E030E040E251E40E94220C0E941E
:1007A0003C0B90E080E04AE00E94C7028E0D9F1D46
:1007B000FF90EF90DF90CF90BF90AF909F908F9081
:1007C0007F906F905F904F900895CF92DF92EF925D
:1007D000FF92CF93DF936C01990FEE08FF08F7FEAD
:1007E00017C08DE20E947901EC0166277727CB01C3
:1007F0006C197D098E099F094AE00E94C7028C0F7F
:100800009D1FDF91CF91FF90EF90DF90CF900895E3
:100810004AE0C701B601DF91CF91FF90EF90DF90E2
:10082000CF900C94C7021F920F920FB60F92112413
:100830002F933F934F935F936F937F938F939F93E8
:10084000AF93BF93EF93FF9381ED91E00E940A0174
:10085000FF91EF91BF91AF919F918F917F916F9198
:100860005F914F913F912F910F900FBE0F901F906E
:1008700018951F920F920FB60F9211242F938F93FA
:100880009F93EF93FF93E091E101F091E20180816A
:10089000E091E701F091E80182FD1BC09081809119
:1008A000EA018F5F8F732091EB01821741F0E09195
:1008B000EA01F0E0EF52FE4F958F8093EA01FF913D
:1008C000EF919F918F912F910F900FBE0F901F90DE
:1008D00018958081F4CF1F920F920FB60F921124BA
:1008E0002F933F938F939F93AF93BF9380919D01DD
:1008F00090919E01A0919F01B091A00130919C0127
:1009000023E0230F2D3758F50196A11DB11D20932B
:100910009C0180939D0190939E01A0939F01B093B1
:10092000A0018091A1019091A201A091A301B09199
:10093000A4010196A11DB11D8093A1019093A20174
:10094000A093A301B093A401BF91AF919F918F9108
:100950003F912F910F900FBE0F901F90189526E892
:10096000230F0296A11DB11DD2CFE1EDF1E013825C
:10097000128288EE93E0A0E0B0E084839583A683A2
:10098000B78384E091E09183808385EC90E0958744
:10099000848784EC90E09787868780EC90E0918B49
:1009A000808B81EC90E0938B828B82EC90E0958B36
:1009B000848B86EC90E0978B868B118E128E138E33
:1009C000148EEEE6F2E082E080838BE0818308956E
:1009D000CF93DF9300D000D01F92CDB7DEB77894CD
:1009E00084B5826084BD84B5816084BD85B5826034
:1009F00085BD85B5816085BD80916E0081608093E5
:100A00006E0010928100809181008260809381004D
:100A1000809181008160809381008091800081605D
:100A2000809380008091B10084608093B1008091B8
:100A3000B00081608093B00080917A0084608093E0
:100A40007A0080917A00826080937A0080917A00A7
:100A5000816080937A0080917A00806880937A0028
:100A60001092C100E091E101F091E20182E0808307
:100A7000E091DD01F091DE011082E091DF01F09163
:100A8000E0018FEC80831092E901E091E501F091A3
:100A9000E60186E08083E091E301F091E40180814A
:100AA00080618083E091E301F091E40180818860BE
:100AB0008083E091E301F091E4018081806880838C
:100AC000E091E301F091E40180818F7D808361E01A
:100AD00080E00E94F50161E081E00E94F50161E0A3
:100AE00084E00E94F50161E085E00E94F50161E08B
:100AF00086E00E94F50161E087E00E94F50161E077
:100B000088E00E94F50161E089E00E94F50161E062
:100B10008AE00E94F50161E08BE00E94F50161E04E
:100B20008CE00E94F50161E08DE00E94F50161E03A
:100B30008EE00E94F50161E08FE00E94F50161E026
:100B400080E10E94F50161E081E10E94F50161E030
:100B500082E10E94F50161E083E10E94F5010EEF60
:100B6000DD24DA94A0E0EA2EA0E0FA2EFDEFCF2EED
:100B700081ED91E00E94EA00892BD1F381ED91E0B3
:100B80000E94C8008236910509F401C20CF077C0BA
:100B90008633910509F4ADC15CF58133910509F403
:100BA00074C134F4C09709F4F7C088E591E028C314
:100BB0008433910509F483C1C597B9F761E0809149
:100BC000C9019091CA01892B09F060E0862F90E05D
:100BD0009093CA018093C90185E00E94C70181E218
:100BE00091E00E9419038091C9019091CA01EDC062
:100BF0008933910509F4B1C104F58733910509F4EE
:100C000092C1C89791F661E08091C3019091C401AF
:100C1000892B09F060E0862F90E09093C4018093C7
:100C2000C30188E00E94C70181E291E00E9419039C
:100C30008091C3019091C401C8C08F33910509F41C
:100C4000C6C08136910509F0B0CF61E08091BF0147
:100C50009091C001892B09F060E0862F90E090937D
:100C6000C0018093BF018AE00E94C70181E291E048
:100C70000E9419038091BF019091C001A6C08836DF
:100C8000910509F420C20CF049C08536910509F49C
:100C9000B2C114F58336910509F493C184369105E8
:100CA00009F083CF61E08091B9019091BA01892B5D
:100CB00009F060E0862F90E09093BA018093B9012B
:100CC0008DE00E94C70181E291E00E9419038091AA
:100CD000B9019091BA0179C08636910509F4A5C190
:100CE0008736910509F061CF61E08091B301909161
:100CF000B401892B09F060E0862F90E09093B40155
:100D00008093B30180E10E94C70181E291E00E94DB
:100D100019038091B3019091B40157C08B369105AE
:100D200009F4B7C114F58936910509F498C18A36DA
:100D3000910509F03ACF61E08091AF019091B00147
:100D4000892B09F060E0862F90E09093B0018093AA
:100D5000AF0182E10E94C70181E291E00E94190384
:100D60008091AF019091B00130C08337910509F4B3
:100D7000B7C18437910509F018CF89E391E00E944B
:100D800019036091A9017091AA018091AB01909122
:100D9000AC010E941B031BC061E08091CF019091C8
:100DA000D001892B09F060E0862F90E09093D0016C
:100DB0008093CF0180E00E94C70181E291E00E9410
:100DC00019038091CF019091D0010E94E50319820F
:100DD0001A821B821C821D8261E080916E020E9439
:100DE000F50160E080916E020E94C7010E94260218
:100DF0004B015C01E2E14E2E512C612C712C0E94C2
:100E00002602681979098A099B09683E73408105A1
:100E10009105A8F321E0421A51086108710888EE93
:100E2000880E83E0981EA11CB11C4114510461047A
:100E3000710429F762E080916E020E94F50128E2B8
:100E400030E040E050E061E080916E020E944B0291
:100E5000672B682B692B09F0D6C1C0927002809174
:100E600070028E3F09F41EC30CF0F2C28D3F09F4EC
:100E70001CC3E114F10409F47BCE0E94F600882320
:100E800009F474CE0E9400006DCE61E08091CD0126
:100E90009091CE01892B09F060E0862F90E090932D
:100EA000CE018093CD0181E00E94C70181E291E0F3
:100EB0000E9419038091CD019091CE0186CF61E00F
:100EC0008091CB019091CC01892B09F060E0862FB5
:100ED00090E09093CC018093CB0184E00E94C70105
:100EE00081E291E00E9419038091CB019091CC01A5
:100EF0006CCF61E08091C7019091C801892B09F006
:100F000060E0862F90E09093C8018093C70186E04F
:100F10000E94C70181E291E00E9419038091C701FC
:100F20009091C80152CF61E08091C5019091C601B6
:100F3000892B09F060E0862F90E09093C6018093A2
:100F4000C50187E00E94C70181E291E00E94190378
:100F50008091C5019091C60138CF61E08091C101B7
:100F60009091C201892B09F060E0862F90E0909368
:100F7000C2018093C10189E00E94C70181E291E032
:100F80000E9419038091C1019091C2011ECF61E0BE
:100F90008091BD019091BE01892B09F060E0862F00
:100FA00090E09093BE018093BD018BE00E94C70149
:100FB00081E291E00E9419038091BD019091BE01F0
:100FC00004CF61E08091BB019091BC01892B09F0B5
:100FD00060E0862F90E09093BC018093BB018CE091
:100FE0000E94C70181E291E00E9419038091BB0138
:100FF0009091BC01EACE61E08091B7019091B80177
:10100000892B09F060E0862F90E09093B8018093DF
:10101000B7018EE00E94C70181E291E00E941903AE
:101020008091B7019091B801D0CE61E08091B50177
:101030009091B601892B09F060E0862F90E09093A3
:10104000B6018093B5018FE00E94C70181E291E073
:101050000E9419038091B5019091B601B6CE61E06E
:101060008091B1019091B201892B09F060E0862F47
:1010700090E09093B2018093B10181E10E94C70199
:1010800081E291E00E9419038091B1019091B20137
:101090009CCE61E08091AD019091AE01892B09F069
:1010A00060E0862F90E09093AE018093AD0183E1E4
:1010B0000E94C70181E291E00E9419038091AD0175
:1010C0009091AE0182CE8AE491E00E941903609172
:1010D000A5017091A6018091A7019091A80159CE18
:1010E0008091CF019091D0010E94E5038091CD01C4
:1010F0009091CE010E94E50380E30E94790180E394
:101100000E9479018091CB019091CC010E94E5036E
:101110008091C9019091CA010E94E5038091C701A5
:101120009091C8010E94E5038091C5019091C6018C
:101130000E94E5038091C3019091C4010E94E503E0
:101140008091C1019091C2010E94E5038091BF018D
:101150009091C0010E94E5038091BD019091BE0174
:101160000E94E5038091BB019091BC010E94E503C0
:101170008091B9019091BA010E94E5038091B70175
:101180009091B8010E94E5038091B5019091B6015C
:101190000E94E5038091B3019091B4010E94E503A0
:1011A0008091B1019091B2010E94E5038091AF015D
:1011B0009091B0010E94E5038091AD019091AE0144
:1011C0000E94E50386E391E00E9419036091A90162
:1011D0007091AA018091AB019091AC010E941B0318
:1011E00087E491E00E9419036091A5017091A60126
:1011F0008091A7019091A8010E941B0385E591E0D1
:101200000E941903E4CD20E530E040E050E060E0CA
:1012100080916E020E944B02672B682B692B09F4A8
:101220001CCE20E530E040E050E061E080916E02AD
:101230000E944B02672B682B692B09F40ECEB12C50
:10124000A12C22E330E040E050E060E080916E02AB
:101250000E944B0224E630E040E050E061E08091E3
:101260006E020E944B02662349F1F50173E0F59589
:10127000E7957A95E1F781E090E08C0F9D1FE80FEC
:10128000F91F8081880F91E06E3208F490E0890F99
:1012900080839FEFA91AB90A28E2A216B10489F641
:1012A00069814A81BB801C81862F840F8B0D810F41
:1012B0009D81891731F0D0927002D1CD00937002D8
:1012C000CECD80916F02853109F486C0863109F454
:1012D000B9C08B3009F06AC070E090E080E00E94F5
:1012E0006B0B60937D0270937E0280937F029093DC
:1012F00080026B2D70E090E080E00E946D0B4B014E
:101300005C0117FF56C01F77612F70E090E080E00E
:101310000E946D0B2DEC3CEC4CEC5DE30E94220C2A
:101320009B01AC0160E070E080E89FE30E94580AF6
:10133000A50194010E94590A4B015C01B7FAB094CF
:10134000B7F8B0948092710290927202A0927302E8
:10135000B092740220E030E040E151E4C501B401F4
:101360000E94220C20E030E040EA50E40E94CA0AC9
:1013700020E030E040E052E40E94590A6093750298
:1013800070937602809377029093780223E333E997
:1013900048E853E4C501B4010E94590A60937902F8
:1013A00070937A0280937B0290937C021092700279
:1013B00056CD612F70E090E080E00E946D0B2DEC27
:1013C0003CEC4CEC5DE30E94220CA50194010E94D0
:1013D000590A4B015C01B6CF262F30E0322F22276D
:1013E000B901640F711D072E000C880B990B0E9428
:1013F0006D0B2DEC3CEC4CEC5DE30E94220C6093F9
:101400007D0270937E0280937F02909380026B2D09
:1014100070E0762F662766277F77610F711D072E94
:10142000000C880B990B0E946D0B2DEC3CEC4CECE6
:101430005DEBB7FC04C02DEC3CEC4CEC5DE30E9492
:10144000220CC7CF862F90E0982F8827BC01C9CFE8
:101450008F3F19F181110DCD80917D0290917E0217
:10146000A0917F02B09180028093A5019093A60184
:10147000A093A701B093A80180917102909172028C
:10148000A0917302B09174028093A9019093AA0174
:10149000A093AB01B093AC01ECCC88E691E00E9444
:1014A0000B03E7CC87E791E0FACF86E891E0F7CF2E
:1014B0005058BB27AA270E94700A0C94E30B0E9485
:1014C000D50B38F00E94DC0B20F039F49F3F19F463
:1014D00026F40C94D20B0EF4E095E7FB0C94CC0BA5
:1014E000E92F0E94F40B58F3BA17620773078407B9
:1014F000950720F079F4A6F50C94160C0EF4E095FF
:101500000B2EBA2FA02D0B01B90190010C01CA01BD
:10151000A0011124FF27591B99F0593F50F4503E68
:1015200068F11A16F040A22F232F342F4427585F5A
:10153000F3CF469537952795A795F0405395C9F772
:101540007EF41F16BA0B620B730B840BBAF091502A
:10155000A1F0FF0FBB1F661F771F881FC2F70EC0C9
:10156000BA0F621F731F841F48F48795779567959C
:10157000B795F7959E3F08F0B0CF9395880F08F088
:101580009927EE0F9795879508950E94A80B08F468
:1015900081E008950E94DE0A0C94E30B0E94DC0BAC
:1015A00058F00E94D50B40F029F45F3F29F00C94CD
:1015B000CC0B51110C94170C0C94D20B0E94F40B11
:1015C00068F39923B1F3552391F3951B550BBB2772
:1015D000AA2762177307840738F09F5F5F4F220FB7
:1015E000331F441FAA1FA9F335D00E2E3AF0E0E8AE
:1015F00032D091505040E695001CCAF72BD0FE2FF8
:1016000029D0660F771F881FBB1F2617370748078B
:10161000AB07B0E809F0BB0B802DBF01FF27935843
:101620005F4F3AF09E3F510578F00C94CC0B0C9430
:10163000170C5F3FE4F3983ED4F386957795679552
:10164000B795F7959F5FC9F7880F911D9695879578
:1016500097F90895E1E0660F771F881FBB1F621797
:1016600073078407BA0720F0621B730B840BBA0B55
:10167000EE1F88F7E09508950E94FC0B88F09F57B5
:1016800098F0B92F9927B751B0F0E1F0660F771FA6
:10169000881F991F1AF0BA95C9F714C0B13091F09C
:1016A0000E94160CB1E008950C94160C672F782F49
:1016B0008827B85F39F0B93FCCF386957795679561
:1016C000B395D9F73EF490958095709561957F4FCD
:1016D0008F4F9F4F0895E89409C097FB3EF4909573
:1016E0008095709561957F4F8F4F9F4F9923A9F0FB
:1016F000F92F96E9BB279395F6958795779567958A
:10170000B795F111F8CFFAF4BB0F11F460FF1BC0CD
:101710006F5F7F4F8F4F9F4F16C0882311F096E960
:1017200011C0772321F09EE8872F762F05C066230E
:1017300071F096E8862F70E060E02AF09A95660FC7
:10174000771F881FDAF7880F9695879597F9089580
:10175000990F0008550FAA0BE0E8FEEF16161706C2
:10176000E807F907C0F012161306E407F50798F02A
:10177000621B730B840B950B39F40A2661F0232B43
:10178000242B252B21F408950A2609F4A140A695BF
:101790008FEF811D811D089597F99F6780E870E0A4
:1017A00060E008959FEF80EC089500240A941616D7
:1017B000170618060906089500240A94121613063F
:1017C000140605060895092E0394000C11F48823CD
:1017D00052F0BB0F40F4BF2B11F460FF04C06F5FE9
:1017E0007F4F8F4F9F4F089557FD9058440F551FBF
:1017F00059F05F3F71F04795880F97FB991F61F093
:101800009F3F79F087950895121613061406551F09
:10181000F2CF4695F1DF08C0161617061806991F75
:10182000F1CF86957105610508940895E894BB276A
:1018300066277727CB0197F908950E94A80B08F433
:101840008FEF08950E94350C0C94E30B0E94D50B8A
:1018500038F00E94DC0B20F0952311F00C94CC0B97
:101860000C94D20B11240C94170C0E94F40B70F3FF
:10187000959FC1F3950F50E0551F629FF001729F35
:10188000BB27F00DB11D639FAA27F00DB11DAA1F44
:10189000649F6627B00DA11D661F829F2227B00D91
:1018A000A11D621F739FB00DA11D621F839FA00D1C
:1018B000611D221F749F3327A00D611D231F849F6C
:1018C000600D211D822F762F6A2F11249F575040C3
:1018D0009AF0F1F088234AF0EE0FFF1FBB1F661F3E
:1018E000771F881F91505040A9F79E3F510580F007
:1018F0000C94CC0B0C94170C5F3FE4F3983ED4F39C
:10190000869577956795B795F795E7959F5FC1F7AA
:10191000FE2B880F911D9695879597F908950E9443
:10192000A80B880B990B0895A1E21A2EAA1BBB1BCA
:10193000FD010DC0AA1FBB1FEE1FFF1FA217B3079B
:10194000E407F50720F0A21BB30BE40BF50B661FB1
:10195000771F881F991F1A9469F760957095809575
:1019600090959B01AC01BD01CF010895EE0FFF1FC3
:0C1970000590F491E02D0994F894FFCF4D
:10197C00000000002C018C00B9007E01EA00C800B8
:10198C00DC000D0A006E616E00696E66006F766693
:10199C000070696E207374617465206368616E6792
:1019AC006520746F200020282074656D706572614D
:1019BC00747572653A2000202F2068756D69646912
:1019CC0074793A200020290070696E206973206EAA
:1019DC006F74207573656400436865636B73756D14
:1019EC00206572726F720054696D65206F7574207A
:1019FC006572726F720053656E736F72206E6F74C6
:0C1A0C0020636F6E6E65637465640000FB
:00000001FF
