:100000000C9428010C9459010C9459010C94590139
:100010000C9459010C9459010C9459010C945901F8
:100020000C9459010C9459010C9459010C945901E8
:100030000C9459010C9459010C9459010C945901D8
:100040000C9459010C9459010C9459010C945901C8
:100050000C9459010C9459010C9459010C94A60369
:100060000C9459010C941A040C94F0030C9459014B
:100070000C9459010C9459010C9459010C94590198
:100080000C9459010C9459010C9459010C94590188
:100090000C9459010C9459010C9459010C94590178
:1000A0000C9459010C9459010C9459010C94590168
:1000B0000C9459010C9459010C9459010C94590158
:1000C0000C9459010C9459010C9459010C94590148
:1000D0000C9459010C9459010C9459010C94590138
:1000E0000C9459010C94D6070C94DE020C94F50282
:1000F0000C940B030C94F9020C94C4020C94B901F7
:100100000C94EF020C94BF020C9411030C94970111
:100110000C94E2020C94EB020C9415030C9407036C
:100120000C943E020C945B010C94D6020C94E502F4
:100130000C9488010C94DA020C9403030C94FD02D5
:100140000C94F1010C94AB0100000A0B02090C0D98
:100150000E0807030401000000000000000000007A
:10016000000000000000000000000000000000008F
:10017000000000001211100000000000000000004C
:10018000000000000000000000000000000000006F
:100190002200250028002B002E003100340002012F
:1001A0000000050108010B010000210024002700C8
:1001B0002A002D0030003300010100000401070176
:1001C0000A010505050507050808080802020202DC
:1001D0000A0A0808040404040101010101010101E3
:1001E0000303030303030303040707070C0C0C0CAE
:1001F0000C0C0C0C02020202060606060606060697
:100200000B0B0B0B0B0B0B0B010210202008081023
:100210002040102040800201020108040201010276
:10022000040810204080804020100804020180044F
:1002300002018040201008040201080402010102AA
:100240000408102040800102040810204080D607D6
:1002500011241FBECFEFD1E2DEBFCDBF00E00CBF47
:1002600023E0A4E4B2E001C01D92AE30B207E1F792
:1002700012E0A0E0B2E0EEE5F0E100E00BBF02C06A
:1002800007900D92A434B107D9F711E0C8E2D1E08C
:1002900000E006C021970109802FFE010E94250879
:1002A000C732D10780E00807A9F70E9450040C94D8
:1002B0002D080C940000AF92BF92CF92DF92EF9284
:1002C000FF920F931F93CF93DF936C017B018B0100
:1002D000040F151FEB015E01AE18BF08C017D10750
:1002E00059F06991D601ED91FC910190F081E02DDA
:1002F000C6011995892B79F7C501DF91CF911F911F
:100300000F91FF90EF90DF90CF90BF90AF90089546
:10031000FC01538D448D252F30E0842F90E0821B0B
:10032000930B541710F0CF96089501970895FC0190
:10033000918D828D981761F0A28DAE0FBF2FB11DE8
:100340005D968C91928D9F5F9F73928F90E0089540
:100350008FEF9FEF0895FC01918D828D981731F0FA
:10036000828DE80FF11D858D90E008958FEF9FEF4E
:100370000895FC01918D228D892F90E0805C9F4F24
:10038000821B91098F739927089581E792E00E945B
:10039000B90121E0892B09F420E0822F0895FC01A6
:1003A000A48DA80FB92FB11DA35ABF4F2C91848DD6
:1003B00090E001968F739927848FA689B7892C9333
:1003C000A089B1898C91837080648C93938D848D86
:1003D000981306C00288F389E02D80818F7D808389
:1003E0000895EF92FF920F931F93CF93DF93EC0149
:1003F00081E0888F9B8D8C8D98131AC0E889F989CC
:10040000808185FF15C09FB7F894EE89FF896083CE
:10041000E889F98980818370806480839FBF81E04F
:1004200090E0DF91CF911F910F91FF90EF90089591
:10043000F62E0B8D10E00F5F1F4F0F731127E02E6C
:100440008C8D8E110CC00FB607FCFACFE889F989A4
:10045000808185FFF5CFCE010E94CF01F1CFEB8DDA
:10046000EC0FFD2FF11DE35AFF4FF0829FB7F89478
:100470000B8FEA89FB8980818062CFCFCF93DF9396
:10048000EC01888D8823B9F0AA89BB89E889F989AC
:100490008C9185FD03C0808186FD0DC00FB607FCE1
:1004A000F7CF8C9185FFF2CF808185FFEDCFCE0114
:1004B0000E94CF01E9CFDF91CF91089580E090E0D5
:1004C000892B29F00E94C50181110E94000080E063
:1004D00090E0892B49F080E090E0892B29F00E9480
:1004E000000081110E94000080E090E0892B49F01B
:1004F00080E090E0892B29F00E94000081110E9489
:10050000000080E090E0892B49F080E090E0892BAA
:1005100029F00E94000081110C9400000895282FFA
:1005200030E0F901E85BFE4F9491F901E85FFD4F7F
:1005300044912E533E4FF9012491222309F435C0F2
:10054000992311F191509231F8F4E92FF0E08827C6
:10055000E355FD4F8F4F0C942508DE02E202BF02E7
:10056000D602DA02C402E502EB02EF02F502F9025A
:10057000FD0203030703C4020B031103150380915B
:1005800080008F7780938000E22FF0E0EE0FFF1F56
:10059000E257FE4FA591B4918FB7F894EC91611199
:1005A00048C040954E234C938FBF089580918000A2
:1005B0008F7DE8CF80918000877FE4CF84B58F77EF
:1005C00084BDE2CF84B58F7DFBCF8091B0008F7763
:1005D0008093B000D9CF8091B0008F7DF9CF80910A
:1005E00090008F7780939000CFCF809190008F7D87
:1005F000F9CF80919000877FF5CF8091A0008F7711
:100600008093A000C1CF8091A0008F7DF9CF809111
:10061000A000877FF5CF809120018F778093200104
:10062000B3CF809120018F7DF9CF80912001877F0A
:10063000F5CF4E2BB8CF8F929F92AF92BF920F9370
:100640001F93CF93DF93CDB7DEB7A1970FB6F89482
:10065000DEBF0FBECDBF19A2423008F44AE08E01C2
:100660000F5D1F4F842E912CB12CA12CA50194015C
:100670000E940308E62FB901CA01EA3044F5E05DA3
:10068000D801EE938D01232B242B252B79F790E0B5
:1006900080E0109769F0FD0101900020E9F73197A3
:1006A000AF014A1B5B0BBD0181E792E00E945B0139
:1006B000A1960FB6F894DEBF0FBECDBFDF91CF91EC
:1006C0001F910F91BF90AF909F908F900895E95C1C
:1006D000D7CFFC0101900020E9F73197AF01481B0B
:1006E000590BBC0181E792E00C945B01CF92DF9241
:1006F000EF92FF92CF93DF936C01990FEE08FF0802
:10070000F7FE19C06DE281E792E00E94F101EC0171
:1007100066277727CB016C197D098E099F094AE06E
:100720000E941B038C0F9D1FDF91CF91FF90EF90D4
:10073000DF90CF9008954AE0C701B601DF91CF91D5
:10074000FF90EF90DF90CF900C941B031F920F92BD
:100750000FB60F9211242F933F938F939F93AF93D4
:10076000BF9380916D0290916E02A0916F02B09143
:10077000700230916C0223E0230F2D3758F501965B
:10078000A11DB11D20936C0280936D0290936E02A7
:10079000A0936F02B09370028091680290916902F9
:1007A000A0916A02B0916B020196A11DB11D8093C8
:1007B000680290936902A0936A02B0936B02BF91A2
:1007C000AF919F918F913F912F910F900FBE0F90FE
:1007D0001F90189526E8230F0296A11DB11DD2CFB8
:1007E0001F920F920FB60F9211240BB60F922F93F8
:1007F0003F934F935F936F937F938F939F93AF93A9
:10080000BF93EF93FF9381E792E00E94CF01FF91A6
:10081000EF91BF91AF919F918F917F916F915F9178
:100820004F913F912F910F900BBE0F900FBE0F90E5
:100830001F9018951F920F920FB60F9211240BB6AE
:100840000F922F938F939F93EF93FF93E0918102E9
:10085000F09182028081E0918702F091880282FD0E
:100860001DC0908180918A028F5F8F7320918B02CF
:10087000821741F0E0918A02F0E0EF58FD4F958F2A
:1008800080938A02FF91EF919F918F912F910F900A
:100890000BBE0F900FBE0F901F9018958081F2CF66
:1008A000789484B5826084BD84B5816084BD85B54B
:1008B000826085BD85B5816085BD80916E00816057
:1008C00080936E00109281008091810082608093FD
:1008D00081008091810081608093810080918000FF
:1008E0008160809380008091B10084608093B1002A
:1008F0008091B00081608093B0008091910082600F
:10090000809391008091910081608093910080910B
:1009100090008160809390008091A100826080931C
:10092000A1008091A10081608093A1008091A0002E
:1009300081608093A00080912101826080932101D9
:10094000809121018160809321018091200181604B
:100950008093200180917A00846080937A00809156
:100960007A00826080937A0080917A00816080931F
:100970007A0080917A00806880937A001092C1009A
:10098000E0918102F091820282E08083E0917D0219
:10099000F0917E021082E0917F02F09180028FEC54
:1009A000808310928902E0918502F091860286E0B0
:1009B0008083E0918302F091840280818061808352
:1009C000E0918302F0918402808188608083E091CD
:1009D0008302F0918402808180688083E0918302A9
:1009E000F091840280818F7D808381E090E0A0E09F
:1009F000B0E08093750290937602A0937702B09353
:100A00007802E5E1F2E02491EFECF1E084918823B3
:100A100099F090E0880F991FFC01E855FE4FA591D1
:100A2000B491FC01E257FE4F859194918FB7F894F1
:100A3000EC91E22BEC938FBF81E792E00E94B90129
:100A4000892BD1F381E792E00E94970182369105CC
:100A500009F49CC10CF077C08633910509F448C1B4
:100A60005CF58133910509F40FC134F4C09709F4A2
:100A7000EDC083E392E0E7C08433910509F41EC121
:100A8000C597B9F761E08091600290916102892B6E
:100A900009F060E0862F90E09093610280936002FD
:100AA00085E00E948F0282E192E00E9469038091BA
:100AB000600290916102E3C08933910509F44CC151
:100AC00004F58733910509F42DC1C89791F661E0CB
:100AD00080915A0290915B02892B09F060E0862F89
:100AE00090E090935B0280935A0288E00E948F020C
:100AF00082E192E00E94690380915A0290915B0228
:100B0000BEC08F33910509F4BCC08136910509F050
:100B1000B0CF61E08091560290915702892B09F085
:100B200060E0862F90E090935702809356028AE00F
:100B30000E948F0282E192E00E9469038091560236
:100B4000909157029CC08836910509F4BBC10CF006
:100B500049C08536910509F44DC114F583369105D8
:100B600009F42EC18436910509F083CF61E08091AC
:100B7000500290915102892B09F060E0862F90E09D
:100B800090935102809350028DE00E948F0282E187
:100B900092E00E94690380915002909151026FC0CF
:100BA0008636910509F440C18736910509F061CF79
:100BB00061E080914A0290914B02892B09F060E03C
:100BC000862F90E090934B0280934A0280E10E942E
:100BD0008F0282E192E00E94690380914A02909123
:100BE0004B024DC08B36910509F452C114F589367C
:100BF000910509F433C18A36910509F03ACF61E0D5
:100C00008091460290914702892B09F060E0862F7F
:100C100090E0909347028093460282E10E948F0207
:100C200082E192E00E94690380914602909147021E
:100C300026C08337910509F448C18437910509F02E
:100C400018CF8EE192E00E9469031BC061E08091A1
:100C5000660290916702892B09F060E0862F90E090
:100C6000909367028093660280E00E948F0282E187
:100C700092E00E94690380916602909167020E944F
:100C800076030E945E02D8CE61E08091640290916A
:100C90006502892B09F060E0862F90E09093650251
:100CA0008093640281E00E948F0282E192E00E94C0
:100CB00069038091640290916502E1CF61E08091C7
:100CC000620290916302892B09F060E0862F90E028
:100CD000909363028093620284E00E948F0282E11B
:100CE00092E00E9469038091620290916302C7CFF3
:100CF00061E080915E0290915F02892B09F060E0D3
:100D0000862F90E090935F0280935E0286E00E94BF
:100D10008F0282E192E00E94690380915E029091CD
:100D20005F02ADCF61E080915C0290915D02892B02
:100D300009F060E0862F90E090935D0280935C0262
:100D400087E00E948F0282E192E00E946903809115
:100D50005C0290915D0293CF61E080915802909186
:100D60005902892B09F060E0862F90E09093590298
:100D70008093580289E00E948F0282E192E00E94F3
:100D80006903809158029091590279CF61E0809176
:100D9000540290915502892B09F060E0862F90E073
:100DA00090935502809354028BE00E948F0282E15F
:100DB00092E00E94690380915402909155025FCFA6
:100DC00061E08091520290915302892B09F060E01A
:100DD000862F90E090935302809352028CE00E9401
:100DE0008F0282E192E00E94690380915202909109
:100DF000530245CF61E080914E0290914F02892BC2
:100E000009F060E0862F90E090934F0280934E02AD
:100E10008EE00E948F0282E192E00E94690380913D
:100E20004E0290914F022BCF61E080914C02909145
:100E30004D02892B09F060E0862F90E090934D02DF
:100E400080934C028FE00E948F0282E192E00E9428
:100E5000690380914C0290914D0211CF61E0809125
:100E6000480290914902892B09F060E0862F90E0BA
:100E7000909349028093480281E10E948F0282E1AF
:100E800092E00E9469038091480290914902F7CE56
:100E900061E08091440290914502892B09F060E065
:100EA000862F90E0909345028093440283E10E9454
:100EB0008F0282E192E00E94690380914402909146
:100EC0004502DDCE8AE292E0BECE8091660290912C
:100ED00067020E94760380916402909165020E94ED
:100EE000760360E381E792E00E94F10160E381E72D
:100EF00092E00E94F10180916202909163020E944F
:100F0000760380916002909161020E947603809145
:100F10005E0290915F020E94760380915C02909144
:100F20005D020E94760380915A0290915B020E94BA
:100F3000760380915802909159020E947603809125
:100F40005602909157020E9476038091540290912C
:100F500055020E94760380915202909153020E94A2
:100F6000760380915002909151020E947603809105
:100F70004E0290914F020E94760380914C02909114
:100F80004D020E94760380914A0290914B020E948A
:100F9000760380914802909149020E9476038091E5
:100FA0004602909147020E94760387CFE1E7F2E084
:100FB0001382128288EE93E0A0E0B0E084839583F0
:100FC000A683B78384E092E09183808385EC90E0F0
:100FD0009587848784EC90E09787868780EC90E003
:100FE000918B808B81EC90E0938B828B82EC90E0F4
:100FF000958B848B86EC90E0978B868B118E128E6E
:10100000138E148E0895A1E21A2EAA1BBB1BFD019C
:101010000DC0AA1FBB1FEE1FFF1FA217B307E407D7
:10102000F50720F0A21BB30BE40BF50B661F771F2F
:10103000881F991F1A9469F760957095809590950F
:101040009B01AC01BD01CF010895EE0FFF1F881F6A
:0E1050008BBF0790F691E02D1994F894FFCF16
:10105E0000000000F1015B0188013E02B901970119
:10106E00AB0170696E206973206E6F772000746516
:10107E006D70657261747572650068756D6964690D
:10108E0074790070696E206973206E6F74207573A9
:04109E006564000085
:00000001FF
