:100000000C945D000C9485000C9485000C94850084
:100010000C9485000C9485000C9485000C9485004C
:100020000C9485000C9485000C9485000C9485003C
:100030000C9485000C9485000C9485000C9485002C
:100040000C947B020C9485000C94EB020C94C5027A
:100050000C9485000C9485000C9485000C9485000C
:100060000C9485000C94850000000008000201003B
:100070000003040700000000000000000000000072
:10008000250028002B0000000000240027002A0083
:10009000040404040404040402020202020203032E
:1000A0000303030301020408102040800102040836
:1000B0001020010204081020860611241FBECFEF75
:1000C000D8E0DEBFCDBF22E0AAE4B1E001C01D92BE
:1000D000A431B207E1F711E0A0E0B1E0EAEBFDE006
:1000E00002C005900D92AA34B107D9F710E0CDE512
:1000F000D0E004C02197FE010E94D506CC35D1077F
:10010000C9F70E941D030C94DB060C940000AF920B
:10011000BF92CF92DF92EF92FF920F931F93CF93F4
:10012000DF936C017B018B01040F151FEB015E0156
:10013000AE18BF08C017D10759F06991D601ED91EB
:10014000FC910190F081E02DC6010995892B79F78A
:10015000C501DF91CF911F910F91FF90EF90DF903C
:10016000CF90BF90AF900895FC01538D448D252F03
:1001700030E0842F90E0821B930B541710F0CF9641
:10018000089501970895FC01918D828D981761F073
:10019000A28DAE0FBF2FB11D5D968C91928D9F5F8A
:1001A0009F73928F90E008958FEF9FEF0895FC0169
:1001B000918D828D981731F0828DE80FF11D858D1C
:1001C00090E008958FEF9FEF0895FC01918D228DAF
:1001D000892F90E0805C9F4F821B91098F73992734
:1001E000089587E791E00E94E50021E0892B09F45A
:1001F00020E0822F089580E090E0892B29F00E9472
:10020000F10081110C9400000895FC01A48DA80F49
:10021000B92FB11DA35ABF4F2C91848D90E0019648
:100220008F739927848FA689B7892C93A089B18968
:100230008C91837080648C93938D848D981306C009
:100240000288F389E02D80818F7D80830895EF926D
:10025000FF920F931F93CF93DF93EC0181E0888F80
:100260009B8D8C8D98131AC0E889F989808185FF50
:1002700015C09FB7F894EE89FF896083E889F989F2
:1002800080818370806480839FBF81E090E0DF91F4
:10029000CF911F910F91FF90EF900895F62E0B8D47
:1002A00010E00F5F1F4F0F731127E02E8C8D8E1102
:1002B0000CC00FB607FCFACFE889F989808185FF69
:1002C000F5CFCE010E940501F1CFEB8DEC0FFD2F94
:1002D000F11DE35AFF4FF0829FB7F8940B8FEA8924
:1002E000FB8980818062CFCFCF93DF93EC01888D33
:1002F0008823B9F0AA89BB89E889F9898C9185FDA1
:1003000003C0808186FD0DC00FB607FCF7CF8C912E
:1003100085FFF2CF808185FFEDCFCE010E940501E0
:10032000E9CFDF91CF91089590E0FC01E859FF4FAC
:100330002491FC01EC55FF4F3491FC01E057FF4F35
:10034000E491EE23C9F0222339F0233001F1A8F41F
:10035000213019F1223029F1F0E0EE0FFF1FE458AF
:10036000FF4FA591B4918FB7F894EC91611126C01D
:1003700030953E233C938FBF08952730A9F0283055
:10038000C9F0243049F7809180008F7D03C08091AF
:1003900080008F7780938000DFCF84B58F7784BD16
:1003A000DBCF84B58F7DFBCF8091B0008F778093BA
:1003B000B000D2CF8091B0008F7DF9CF3E2BDACF45
:1003C000009719F0019721F0089582E191E00895D6
:1003D00086E191E008958F929F92AF92BF920F9322
:1003E0001F93CF93DF93CDB7DEB7A1970FB6F894E5
:1003F000DEBF0FBECDBF19A2423008F44AE08E0125
:100400000F5D1F4F842E912CB12CA12CA5019401BE
:100410000E94B306E62FB901CA01EA3044F5E05D57
:10042000D801EE938D01232B242B252B79F790E017
:1004300080E0109769F0FD0101900020E9F7319705
:10044000AF014A1B5B0BBD0187E791E00E9487006B
:10045000A1960FB6F894DEBF0FBECDBFDF91CF914E
:100460001F910F91BF90AF909F908F900895E95C7E
:10047000D7CF009769F0FC0101900020E9F7319790
:10048000AF01481B590BBC0187E791E00C94870032
:1004900090E080E00895CF92DF92EF92FF92CF93A9
:1004A000DF936C01990FEE08FF08F7FE19C06DE2AB
:1004B00087E791E00E942701EC0166277727CB01AF
:1004C0006C197D098E099F094AE00E94EB018C0F8F
:1004D0009D1FDF91CF91FF90EF90DF90CF90089517
:1004E0004AE0C701B601DF91CF91FF90EF90DF9016
:1004F000CF900C94EB011F920F920FB60F92112424
:100500002F933F938F939F93AF93BF9380917301EA
:1005100090917401A0917501B091760130917201B2
:1005200023E0230F2D3758F50196A11DB11D20930F
:1005300072018093730190937401A0937501B0933D
:10054000760180916E0190916F01A0917001B09140
:1005500071010196A11DB11D80936E0190936F01F1
:10056000A0937001B0937101BF91AF919F918F9152
:100570003F912F910F900FBE0F901F90189526E876
:10058000230F0296A11DB11DD2CF1F920F920FB65D
:100590000F9211242F933F934F935F936F937F9309
:1005A0008F939F93AF93BF93EF93FF9387E791E070
:1005B0000E940501FF91EF91BF91AF919F918F91A3
:1005C0007F916F915F914F913F912F910F900FBE4F
:1005D0000F901F9018951F920F920FB60F92112433
:1005E0002F938F939F93EF93FF93E0918701F09167
:1005F00088018081E0918D01F0918E0182FD1BC008
:100600009081809190018F5F8F732091910182176B
:1006100041F0E0919001F0E0E958FE4F958F809312
:100620009001FF91EF919F918F912F910F900FBEAD
:100630000F901F9018958081F4CF789484B58260D4
:1006400084BD84B5816084BD85B5826085BD85B576
:10065000816085BD80916E00816080936E001092F4
:10066000810080918100826080938100809181006F
:100670008160809381008091800081608093800000
:100680008091B10084608093B1008091B00081605E
:100690008093B00080917A00846080937A0080918A
:1006A0007A00826080937A0080917A0081608093E2
:1006B0007A0080917A00806880937A001092C1005D
:1006C000E0918701F091880182E08083E0918301CD
:1006D000F09184011082E0918501F09186018FEC08
:1006E000808310928F01E0918B01F0918C0186E064
:1006F0008083E0918901F0918A018081806180830B
:10070000E0918901F0918A01808188608083E09185
:100710008901F0918A01808180688083E09189015C
:10072000F0918A0180818F7D808381E090E0A0E05C
:10073000B0E080937B0190937C01A0937D01B09306
:100740007E01E1EBF0E02491EDE9F0E08491882373
:1007500099F090E0880F991FFC01EA57FF4FA5918F
:10076000B491FC01E458FF4F859194918FB7F894B0
:10077000EC91E22BEC938FBFC0E0D0E087E791E0F3
:100780000E94E500892BD1F387E791E00E94C30026
:100790008236910509F49AC10CF077C08633910531
:1007A00009F446C15CF58133910509F40DC134F4B7
:1007B000C09709F4EBC08AE391E003C1843391054B
:1007C00009F41CC1C597B9F761E080916601909169
:1007D0006701892B09F060E0862F90E09093670114
:1007E0008093660185E00E94940189E191E00E9476
:1007F00039028091660190916701E1C089339105CA
:1008000009F44AC104F58733910509F42BC1C8974F
:1008100091F661E08091600190916101892B09F06E
:1008200060E0862F90E0909361018093600188E002
:100830000E94940189E191E00E9439028091600157
:1008400090916101BCC08F33910509F454C2813687
:10085000910509F0B0CF61E080915C0190915D015C
:10086000892B09F060E0862F90E090935D018093E2
:100870005C018AE00E94940189E191E00E943902C2
:1008800080915C0190915D019AC08836910509F4D0
:10089000B9C10CF049C08536910509F44BC114F576
:1008A0008336910509F42CC18436910509F083CF74
:1008B00061E08091560190915701892B09F060E029
:1008C000862F90E090935701809356018DE00E940F
:1008D000940189E191E00E94390280915601909142
:1008E00057016DC08636910509F43EC187369105E2
:1008F00009F061CF61E08091500190915101892B05
:1009000009F060E0862F90E09093510180935001B0
:1009100080E10E94940189E191E00E943902809176
:100920005001909151014BC08B36910509F450C193
:1009300014F58936910509F431C18A36910509F01B
:100940003ACF61E080914C0190914D01892B09F0E3
:1009500060E0862F90E090934D0180934C0182E1FE
:100960000E94940189E191E00E94390280914C013A
:1009700090914D0124C08337910509F446C1843715
:10098000910509F018CF85E291E01BC061E08091EC
:100990006C0190916D01892B09F060E0862F90E049
:1009A00090936D0180936C0180E00E94940189E135
:1009B00091E00E94390280916C0190916D010E943A
:1009C000E0010E94390297C161E080916A01909133
:1009D0006B01892B09F060E0862F90E090936B010A
:1009E00080936A0181E00E94940189E191E00E9474
:1009F000390280916A0190916B01E1CF61E08091B1
:100A0000680190916901892B09F060E0862F90E0E0
:100A1000909369018093680184E00E94940189E1C8
:100A200091E00E9439028091680190916901C7CFDD
:100A300061E08091640190916501892B09F060E08B
:100A4000862F90E0909365018093640186E00E9478
:100A5000940189E191E00E943902809164019091B2
:100A60006501ADCF61E08091620190916301892BB6
:100A700009F060E0862F90E090936301809362011B
:100A800087E00E94940189E191E00E9439028091FF
:100A900062019091630193CF61E080915E0190913A
:100AA0005F01892B09F060E0862F90E090935F0151
:100AB00080935E0189E00E94940189E191E00E94A7
:100AC000390280915E0190915F0179CF61E0809160
:100AD0005A0190915B01892B09F060E0862F90E02C
:100AE00090935B0180935A018BE00E94940189E10D
:100AF00091E00E94390280915A0190915B015FCF91
:100B000061E08091580190915901892B09F060E0D2
:100B1000862F90E090935901809358018CE00E94B9
:100B2000940189E191E00E943902809158019091ED
:100B3000590145CF61E08091540190915501892B75
:100B400009F060E0862F90E0909355018093540166
:100B50008EE00E94940189E191E00E943902809127
:100B60005401909155012BCF61E0809152019091F9
:100B70005301892B09F060E0862F90E09093530198
:100B8000809352018FE00E94940189E191E00E94DC
:100B90003902809152019091530111CF61E080910F
:100BA0004E0190914F01892B09F060E0862F90E073
:100BB00090934F0180934E0181E10E94940189E15D
:100BC00091E00E94390280914E0190914F01F7CE41
:100BD00061E080914A0190914B01892B09F060E01E
:100BE000862F90E090934B0180934A0183E10E940D
:100BF000940189E191E00E94390280914A0190912B
:100C00004B01DDCE81E391E0DCCE80916C019091CF
:100C10006D010E944B0280916A0190916B010E94CC
:100C20004B0260E387E791E00E94270160E387E7DA
:100C300091E00E94270180916801909169010E94D2
:100C40004B0280916601909167010E944B02809156
:100C50006401909165010E944B0280916201909124
:100C600063010E944B0280916001909161010E949A
:100C70004B0280915E0190915F010E944B02809136
:100C80005C0190915D010E944B0280915A0190910C
:100C90005B010E944B0280915801909159010E9482
:100CA0004B0280915601909157010E944B02809116
:100CB0005401909155010E944B02809152019091F4
:100CC00053010E944B0280915001909151010E946A
:100CD0004B0280914E0190914F010E944B028091F6
:100CE0004C0190914D010E944B0280914A019091DC
:100CF0004B010E944B02209709F440CD0E94F10065
:100D0000882309F43BCD0E94000038CDE7E7F1E0ED
:100D10001382128288EE93E0A0E0B0E08483958392
:100D2000A683B78384E091E09183808385EC90E093
:100D30009587848784EC90E09787868780EC90E0A5
:100D4000918B808B81EC90E0938B828B82EC90E096
:100D5000958B848B86EC90E0978B868B118E128E10
:100D6000138E148E0895A1E21A2EAA1BBB1BFD013F
:100D70000DC0AA1FBB1FEE1FFF1FA217B307E4077A
:100D8000F50720F0A21BB30BE40BF50B661F771FD2
:100D9000881F991F1A9469F76095709580959095B2
:100DA0009B01AC01BD01CF010895EE0FFF1F05901F
:0A0DB000F491E02D0994F894FFCFB0
:100DBA000000000027018700B4007401E500C300A9
:100DCA00D7004F4646004F4E0070696E2069732067
:100DDA006E6F77200074656D7065726174757265E7
:100DEA000068756D69646974790070696E20697349
:0A0DFA00206E6F74207573656400AD
:00000001FF
