:100000000C945D000C9485000C9485000C94850084
:100010000C9485000C9485000C9485000C9485004C
:100020000C9485000C9485000C9485000C9485003C
:100030000C9485000C9485000C9485000C9485002C
:100040000C945E020C9485000C94CE020C94A802D1
:100050000C9485000C9485000C9485000C9485000C
:100060000C9485000C94850000000008000201003B
:100070000003040700000000000000000000000072
:10008000250028002B0000000000240027002A0083
:10009000040404040404040402020202020203032E
:1000A0000303030301020408102040800102040836
:1000B0001020010204081020AF0511241FBECFEF4D
:1000C000D8E0DEBFCDBF21E0A8E2B1E001C01D92C3
:1000D000A23FB207E1F711E0A0E0B1E0ECE0FCE004
:1000E00002C005900D92A832B107D9F710E0CDE516
:1000F000D0E004C02197FE010E94FE05CC35D10757
:10010000C9F70E9400030C9404060C940000AF92FF
:10011000BF92CF92DF92EF92FF920F931F93CF93F4
:10012000DF936C017B018B01040F151FEB015E0156
:10013000AE18BF08C017D10759F06991D601ED91EB
:10014000FC910190F081E02DC6010995892B79F78A
:10015000C501DF91CF911F910F91FF90EF90DF903C
:10016000CF90BF90AF900895FC01538D448D252F03
:1001700030E0842F90E0821B930B541710F0CF9641
:10018000089501970895FC01918D828D981761F073
:10019000A28DAE0FBF2FB11D5D968C91928D9F5F8A
:1001A0009F73928F90E008958FEF9FEF0895FC0169
:1001B000918D828D981731F0828DE80FF11D858D1C
:1001C00090E008958FEF9FEF0895FC01918D228DAF
:1001D000892F90E0805C9F4F821B91098F73992734
:1001E000089585E591E00E94E50021E0892B09F45E
:1001F00020E0822F089580E090E0892B29F00E9472
:10020000F10081110C9400000895FC01A48DA80F49
:10021000B92FB11DA35ABF4F2C91848D90E0019648
:100220008F739927848FA689B7892C93A089B18968
:100230008C91837080648C93938D848D981306C009
:100240000288F389E02D80818F7D80830895EF926D
:10025000FF920F931F93CF93DF93EC0181E0888F80
:100260009B8D8C8D98131AC0E889F989808185FF50
:1002700015C09FB7F894EE89FF896083E889F989F2
:1002800080818370806480839FBF81E090E0DF91F4
:10029000CF911F910F91FF90EF900895F62E0B8D47
:1002A00010E00F5F1F4F0F731127E02E8C8D8E1102
:1002B0000CC00FB607FCFACFE889F989808185FF69
:1002C000F5CFCE010E940501F1CFEB8DEC0FFD2F94
:1002D000F11DE35AFF4FF0829FB7F8940B8FEA8924
:1002E000FB8980818062CFCFCF93DF93EC01888D33
:1002F0008823B9F0AA89BB89E889F9898C9185FDA1
:1003000003C0808186FD0DC00FB607FCF7CF8C912E
:1003100085FFF2CF808185FFEDCFCE010E940501E0
:10032000E9CFDF91CF91089590E0FC01E859FF4FAC
:100330002491FC01EC55FF4F3491FC01E057FF4F35
:10034000E491EE23C9F0222339F0233001F1A8F41F
:10035000213019F1223029F1F0E0EE0FFF1FE458AF
:10036000FF4FA591B4918FB7F894EC91611126C01D
:1003700030953E233C938FBF08952730A9F0283055
:10038000C9F0243049F7809180008F7D03C08091AF
:1003900080008F7780938000DFCF84B58F7784BD16
:1003A000DBCF84B58F7DFBCF8091B0008F778093BA
:1003B000B000D2CF8091B0008F7DF9CF3E2BDACF45
:1003C0008F929F92AF92BF920F931F93CF93DF9321
:1003D000CDB7DEB7A1970FB6F894DEBF0FBECDBF85
:1003E00019A2423008F44AE08E010F5D1F4F842E9F
:1003F000912CB12CA12CA50194010E94DC05E62FC3
:10040000B901CA01EA3044F5E05DD801EE938D01EF
:10041000232B242B252B79F790E080E0109769F0AF
:10042000FD0101900020E9F73197AF014A1B5B0BFA
:10043000BD0185E591E00E948700A1960FB6F89472
:10044000DEBF0FBECDBFDF91CF911F910F91BF9047
:10045000AF909F908F900895E95CD7CFCF92DF92B5
:10046000EF92FF92CF93DF936C01990FEE08FF0894
:10047000F7FE19C06DE285E591E00E942701EC01CD
:1004800066277727CB016C197D098E099F094AE001
:100490000E94E0018C0F9D1FDF91CF91FF90EF90A4
:1004A000DF90CF9008954AE0C701B601DF91CF9168
:1004B000FF90EF90DF90CF900C94E0011F920F928D
:1004C0000FB60F9211242F933F938F939F93AF9367
:1004D000BF938091510190915201A0915301B0912D
:1004E00054013091500123E0230F2D3758F5019628
:1004F000A11DB11D20935001809351019093520191
:10050000A0935301B093540180914C0190914D01FF
:10051000A0914E01B0914F010196A11DB11D809394
:100520004C0190934D01A0934E01B0934F01BF91A8
:10053000AF919F918F913F912F910F900FBE0F9090
:100540001F90189526E8230F0296A11DB11DD2CF4A
:100550001F920F920FB60F9211242F933F934F9338
:100560005F936F937F938F939F93AF93BF93EF931B
:10057000FF9385E591E00E940501FF91EF91BF9106
:10058000AF919F918F917F916F915F914F913F912B
:100590002F910F900FBE0F901F9018951F920F92E2
:1005A0000FB60F9211242F938F939F93EF93FF9386
:1005B000E0916501F09166018081E0916B01F0911D
:1005C0006C0182FD1BC0908180916E018F5F8F73E3
:1005D00020916F01821741F0E0916E01F0E0EB5A3B
:1005E000FE4F958F80936E01FF91EF919F918F91B8
:1005F0002F910F900FBE0F901F9018958081F4CF10
:10060000789484B5826084BD84B5816084BD85B5ED
:10061000826085BD85B5816085BD80916E008160F9
:1006200080936E001092810080918100826080939F
:1006300081008091810081608093810080918000A1
:100640008160809380008091B10084608093B100CC
:100650008091B00081608093B00080917A008460C6
:1006600080937A0080917A00826080937A008091F2
:100670007A00816080937A0080917A00806880930C
:100680007A001092C100E0916501F091660182E06C
:100690008083E0916101F09162011082E091630139
:1006A000F09164018FEC808310926D01E0916901FB
:1006B000F0916A0186E08083E0916701F091680122
:1006C000808180618083E0916701F0916801808181
:1006D00088608083E0916701F09168018081806883
:1006E0008083E0916701F091680180818F7D808334
:1006F00081E090E0A0E0B0E08093590190935A012E
:10070000A0935B01B0935C01E1EBF0E02491EDE993
:10071000F0E08491882399F090E0880F991FFC0104
:10072000EA57FF4FA591B491FC01E458FF4F859122
:1007300094918FB7F894EC91E22BEC938FBFC0E0CB
:10074000D0E085E591E00E94E500892BD1F385E5B5
:1007500091E00E94C3008336910509F424C10CF096
:100760005FC08633910509F4DEC03CF58133910505
:1007700009F4B9C064F4C09709F4A3C0209709F341
:100780000E94F1008823E9F20E940000DACF84334E
:10079000910509F4B8C0C59789F761E080914401DB
:1007A00090914501892B09F060E0862F90E09093AD
:1007B00045018093440185E093C08933910509F494
:1007C000D2C0B4F48733910509F4BDC0C897B1F61F
:1007D00061E080913E0190913F01892B09F060E03A
:1007E000862F90E090933F0180933E0188E078C08F
:1007F0008136910509F4C7C08236910509F0BECF54
:1008000061E08091380190913901892B09F060E015
:10081000862F90E090933901809338018BE060C07F
:100820008836910509F41FC1F4F48536910509F461
:10083000DAC00CF4C8C08636910509F4E4C08736E6
:10084000910509F09BCF61E080912E0190912F01DD
:10085000892B09F060E0862F90E090932F01809320
:100860002E0180E13DC08B36910509F4ECC0C4F443
:100870008936910509F4D7C08A36910509F07ECFF3
:1008800061E080912A0190912B01892B09F060E0B1
:10089000862F90E090932B0180932A0182E120C063
:1008A0008337910509F4E4C04BE050E062E171E068
:1008B0008437910509F062CF85E591E00E948700B9
:1008C0005DCF61E080914A0190914B01892B09F045
:1008D00060E0862F90E090934B0180934A0180E086
:1008E0000E9494014BCF61E08091480190914901B1
:1008F000892B09F060E0862F90E090934901809366
:10090000480181E0EDCF61E080914601909147017F
:10091000892B09F060E0862F90E090934701809347
:10092000460184E0DDCF61E0809142019091430176
:10093000892B09F060E0862F90E09093430180932B
:10094000420186E0CDCF61E080914001909141016C
:10095000892B09F060E0862F90E09093410180930D
:10096000400187E0BDCF61E080913C0190913D0165
:10097000892B09F060E0862F90E090933D018093F1
:100980003C0189E0ADCF61E080913A0190913B015B
:10099000892B09F060E0862F90E090933B018093D3
:1009A0003A018AE09DCF61E0809136019091370154
:1009B000892B09F060E0862F90E0909337018093B7
:1009C00036018CE08DCF61E080913401909135014A
:1009D000892B09F060E0862F90E090933501809399
:1009E00034018DE07DCF61E080913201909133013F
:1009F000892B09F060E0862F90E09093330180937B
:100A000032018EE06DCF61E0809130019091310133
:100A1000892B09F060E0862F90E09093310180935C
:100A200030018FE05DCF61E080912C0190912D012C
:100A3000892B09F060E0862F90E090932D01809340
:100A40002C0181E14DCF61E0809128019091290135
:100A5000892B09F060E0862F90E090932901809324
:100A6000280183E13DCF48E050E06EE171E024CF02
:100A700080914A0190914B010E942E028091480181
:100A8000909149010E942E0260E385E591E00E9469
:100A9000270160E385E591E00E94270180914601EE
:100AA000909147010E942E0280914401909145014E
:100AB0000E942E0280914201909143010E942E02D9
:100AC00080914001909141010E942E0280913E014F
:100AD00090913F010E942E0280913C0190913D0136
:100AE0000E942E0280913A0190913B010E942E02B9
:100AF00080913801909139010E942E028091360137
:100B0000909137010E942E0280913401909135011D
:100B10000E942E0280913201909133010E942E0298
:100B200080913001909131010E942E0280912E011E
:100B300090912F010E942E0280912C0190912D0105
:100B40000E942E0280912A0190912B010E942E0278
:100B500080912801909129010E942E020FCEE5E597
:100B6000F1E01382128288EE93E0A0E0B0E084838B
:100B70009583A683B78384E091E09183808385EC9D
:100B800090E09587848784EC90E09787868780EC57
:100B900090E0918B808B81EC90E0938B828B82EC48
:100BA00090E0958B848B86EC90E0978B868B118EF2
:100BB000128E138E148E0895A1E21A2EAA1BBB1B4F
:100BC000FD010DC0AA1FBB1FEE1FFF1FA217B30719
:100BD000E407F50720F0A21BB30BE40BF50B661F2F
:100BE000771F881F991F1A9469F7609570958095F3
:100BF00090959B01AC01BD01CF010895EE0FFF1F41
:0C0C00000590F491E02D0994F894FFCFCA
:100C0C000000000027018700B4007401E500C30058
:100C1C00D70074656D706572617475726500687566
:080C2C006D6964697479000030
:00000001FF
