:100000000C9462000C948A000C948A000C948A0070
:100010000C948A000C948A000C948A000C948A0038
:100020000C948A000C948A000C948A000C948A0028
:100030000C948A000C948A000C948A000C948A0018
:100040000C946B040C948A000C9439040C941304E3
:100050000C948A000C948A000C948A000C948A00F8
:100060000C948A000C948A000000000024002700F1
:100070002A0000000000250028002B0000000000DE
:1000800023002600290004040404040404040202DA
:100090000202020203030303030301020408102007
:1000A0004080010204081020010204081020000012
:1000B0000008000201000003040700000000000027
:1000C0000000B50411241FBECFEFD8E0DEBFCDBFC6
:1000D00011E0A0E0B1E0E2E9F9E102C005900D9283
:1000E000AC3AB107D9F722E0ACEAB1E001C01D9209
:1000F000A239B207E1F710E0C2E6D0E004C02197D0
:10010000FE010E94C10CC136D107C9F70E94E80464
:100110000C94C70C0C940000AF92BF92CF92DF9268
:10012000EF92FF920F931F93CF93DF936C017B01AC
:100130008B01040F151FEB015E01AE18BF08C0173D
:10014000D10759F06991D601ED91FC910190F081B0
:10015000E02DC6010995892B79F7C501DF91CF9173
:100160001F910F91FF90EF90DF90CF90BF90AF90D5
:100170000895FC01538D448D252F30E0842F90E0AD
:10018000821B930B541710F0CF9608950197089592
:10019000FC01918D828D981761F0A28DAE0FBF2F5B
:1001A000B11D5D968C91928D9F5F9F73928F90E0B1
:1001B00008958FEF9FEF0895FC01918D828D981720
:1001C00031F0828DE80FF11D858D90E008958FEF5D
:1001D0009FEF0895FC01918D228D892F90E0805C26
:1001E0009F4F821B91098F739927089582EE91E0AA
:1001F0000E94EA0021E0892B09F420E0822F089573
:1002000080E090E0892B29F00E94F60081110C9487
:1002100000000895FC01A48DA80FB92FB11DA35AA9
:10022000BF4F2C91848D90E001968F739927848F16
:10023000A689B7892C93A089B1898C918370806439
:100240008C93938D848D981306C00288F389E02DDA
:1002500080818F7D80830895EF92FF920F931F938B
:10026000CF93DF93EC0181E0888F9B8D8C8D981369
:100270001AC0E889F989808185FF15C09FB7F89475
:10028000EE89FF896083E889F989808183708064C1
:1002900080839FBF81E090E0DF91CF911F910F910C
:1002A000FF90EF900895F62E0B8D10E00F5F1F4F1B
:1002B0000F731127E02E8C8D8E110CC00FB607FC2A
:1002C000FACFE889F989808185FFF5CFCE010E94B8
:1002D0000A01F1CFEB8DEC0FFD2FF11DE35AFF4F1B
:1002E000F0829FB7F8940B8FEA89FB898081806246
:1002F000CFCF682F82EE91E00C942C01CF93DF9347
:10030000EC01888D8823B9F0AA89BB89E889F9892D
:100310008C9185FD03C0808186FD0DC00FB607FC62
:10032000F7CF8C9185FFF2CF808185FFEDCFCE0195
:100330000E940A01E9CFDF91CF910895833081F0C7
:1003400028F4813099F08230A9F008958730A9F01F
:100350008830C9F08430B1F4809180008F7D03C073
:10036000809180008F7780938000089584B58F7787
:1003700084BD089584B58F7DFBCF8091B0008F77C9
:100380008093B00008958091B0008F7DF9CF1F93C6
:10039000CF93DF93282F30E0F901E255FF4F84918E
:1003A000F901E656FF4FD491F901EA57FF4FC49186
:1003B000CC23A9F0162F81110E949E01EC2FF0E0B2
:1003C000EE0FFF1FEE58FF4FA591B4918FB7F89431
:1003D000EC91111108C0D095DE23DC938FBFDF9123
:1003E000CF911F910895DE2BF8CFCF93DF9390E04C
:1003F000FC01E656FF4F24918A579F4FFC018491E0
:100400008823D1F090E0880F991FFC01E859FF4F35
:10041000A591B491FC01EE58FF4FC591D491623083
:1004200071F49FB7F8943C91822F809583238C932D
:10043000E8812E2B28839FBFDF91CF9108958FB73E
:10044000F894EC912E2B2C938FBFF6CF3FB7F894F6
:100450008091B1019091B201A091B301B091B4012A
:1004600026B5A89B05C02F3F19F00196A11DB11D0F
:100470003FBFBA2FA92F982F8827BC01CD01620F4B
:10048000711D811D911D42E0660F771F881F991F06
:100490004A95D1F708952F923F924F925F926F92B3
:1004A0007F928F929F92AF92BF92CF92DF92EF9204
:1004B000FF920F931F93CF93DF93C82F062F49010D
:1004C0005A010E9426026B017C01D0E0CE018255C8
:1004D0009F4F2C01FE01E656FF4F3F01CA57DF4FE9
:1004E00010E0F2018491F3013490FE012490222067
:1004F00029F181110E949E01E22DF0E0EE0FFF1F15
:10050000E458FF4FA591B4918C91382231E020E05E
:1005100009F430E0832F922F0817190791F40E94F5
:1005200026026C197D098E099F0986169706A80672
:10053000B906B8F660E070E0CB0109C090E080E059
:10054000EBCF0E9426026C197D098E099F09DF916D
:10055000CF911F910F91FF90EF90DF90CF90BF90C0
:10056000AF909F908F907F906F905F904F903F9053
:100570002F900895FC0101900020E9F73197AF0119
:10058000481B590BBC0182EE91E00C948C008F92B9
:100590009F92AF92BF920F931F93CF93DF93CDB7EC
:1005A000DEB7A1970FB6F894DEBF0FBECDBF19A27C
:1005B000423008F44AE08E010F5D1F4F842E912CCB
:1005C000B12CA12CA50194010E949F0CE62FB9012A
:1005D000CA01EA30F4F4E05DD801EE938D01232BDB
:1005E000242B252B79F790E080E0109719F0CD01AE
:1005F0000E94BA02A1960FB6F894DEBF0FBECDBF1F
:10060000DF91CF911F910F91BF90AF909F908F90EE
:100610000895E95CE1CFCF93DF930E94BA02EC0129
:1006200082E191E00E94BA028C0F9D1FDF91CF9171
:1006300008950C94BA024F925F926F927F928F92BC
:100640009F92AF92BF92CF92DF92EF92FF926B0197
:100650007C01AC019B010E949A0C882381F085E10A
:1006600091E0FF90EF90DF90CF90BF90AF909F9080
:100670008F907F906F905F904F900C94BA024601DC
:100680005701E894B7F82FEF3FEF4FE75FE7C50159
:10069000B4010E949A0C81110DC02FEF3FEF4FE77C
:1006A0005FE7C501B4010E94D00A18161CF489E165
:1006B00091E0D7CF2FEF3FEF4FE75FE4C701B601DF
:1006C0000E94280C18161CF48DE191E0CACF2FEF80
:1006D0003FEF4FE75FECC701B6010E94D00A87FDEC
:1006E000F3CF20E030E0A901C701B6010E94D00A93
:1006F000B12CA12C87FF08C08DE20E9479015C011A
:10070000F7FAF094F7F8F0942AE037ED43EA5BE368
:10071000C701B6010E94640A2B013C010E94470BED
:100720006B017C010E94760B9B01AC01C301B201FD
:100730000E94630A2B013C014AE0C701B6010E94F6
:10074000C7027C01EA0CFB1C8EE20E947901E80ED4
:10075000F91E20E030E040E251E4C301B2010E9402
:100760002D0C2B013C010E94470B4B01B12CA12CFD
:100770004AE0C501B4010E94C702E80EF91EC50196
:10078000B4010E94760B9B01AC01C301B2010E942F
:10079000630A20E030E040E251E40E942D0C0E9408
:1007A000470B90E080E04AE00E94C7028E0D9F1D3B
:1007B000FF90EF90DF90CF90BF90AF909F908F9081
:1007C0007F906F905F904F900895CF92DF92EF925D
:1007D000FF92CF93DF936C01990FEE08FF08F7FEAD
:1007E00017C08DE20E947901EC0166277727CB01C3
:1007F0006C197D098E099F094AE00E94C7028C0F7F
:100800009D1FDF91CF91FF90EF90DF90CF900895E3
:100810004AE0C701B601DF91CF91FF90EF90DF90E2
:10082000CF900C94C7021F920F920FB60F92112413
:100830002F933F934F935F936F937F938F939F93E8
:10084000AF93BF93EF93FF9382EE91E00E940A0172
:10085000FF91EF91BF91AF919F918F917F916F9198
:100860005F914F913F912F910F900FBE0F901F906E
:1008700018951F920F920FB60F9211242F938F93FA
:100880009F93EF93FF93E091F201F091F301808148
:10089000E091F801F091F90182FD1BC090818091F7
:1008A000FB018F5F8F732091FC01821741F0E09173
:1008B000FB01F0E0EE51FE4F958F8093FB01FF911D
:1008C000EF919F918F912F910F900FBE0F901F90DE
:1008D00018958081F4CF1F920F920FB60F921124BA
:1008E0002F933F938F939F93AF93BF938091AD01CD
:1008F0009091AE01A091AF01B091B0013091AC01E7
:1009000023E0230F2D3758F50196A11DB11D20932B
:10091000AC018093AD019093AE01A093AF01B09371
:10092000B0018091B1019091B201A091B301B09159
:10093000B4010196A11DB11D8093B1019093B20144
:10094000A093B301B093B401BF91AF919F918F91E8
:100950003F912F910F900FBE0F901F90189526E892
:10096000230F0296A11DB11DD2CFE2EEF1E013825A
:10097000128288EE93E0A0E0B0E084839583A683A2
:10098000B78384E091E09183808385EC90E0958744
:10099000848784EC90E09787868780EC90E0918B49
:1009A000808B81EC90E0938B828B82EC90E0958B36
:1009B000848B86EC90E0978B868B118E128E138E33
:1009C000148EEFE7F2E082E0808386E18183089570
:1009D000CF93DF9300D000D01F92CDB7DEB77894CD
:1009E00084B5826084BD84B5816084BD85B5826034
:1009F00085BD85B5816085BD80916E0081608093E5
:100A00006E0010928100809181008260809381004D
:100A1000809181008160809381008091800081605D
:100A2000809380008091B10084608093B1008091B8
:100A3000B00081608093B00080917A0084608093E0
:100A40007A0080917A00826080937A0080917A00A7
:100A5000816080937A0080917A00806880937A0028
:100A60001092C100E091F201F091F30182E08083E5
:100A7000E091EE01F091EF011082E091F001F09130
:100A8000F1018FEC80831092FA01E091F601F09170
:100A9000F70186E08083E091F401F091F501808117
:100AA00080618083E091F401F091F501808188609C
:100AB0008083E091F401F091F5018081806880836A
:100AC000E091F401F091F50180818F7D808361E0F8
:100AD00080E00E94F50161E081E00E94F50161E0A3
:100AE00084E00E94F50161E085E00E94F50161E08B
:100AF00086E00E94F50161E087E00E94F50161E077
:100B000088E00E94F50161E089E00E94F50161E062
:100B10008AE00E94F50161E08BE00E94F50161E04E
:100B20008CE00E94F50161E08DE00E94F50161E03A
:100B30008EE00E94F50161E08FE00E94F50161E026
:100B400080E10E94F50161E081E10E94F50161E030
:100B500082E10E94F50161E083E10E94F50101E07C
:100B6000BEEFDB2ECC24CA94A0E0EA2EA0E0FA2E41
:100B7000FDEF3F2E82EE91E00E94EA00892BD1F337
:100B800082EE91E00E94C8008236910509F401C20C
:100B90000CF077C08633910509F4ADC15CF5813363
:100BA000910509F474C134F4C09709F4F7C089E5DC
:100BB00091E02DC38433910509F483C1C597B9F73A
:100BC00061E08091DA019091DB01892B09F060E00E
:100BD000862F90E09093DB018093DA0185E00E94FC
:100BE000C70181E291E00E9419038091DA0190919E
:100BF000DB01EDC08933910509F4B1C104F58733F8
:100C0000910509F492C1C89791F661E08091D401F1
:100C10009091D501892B09F060E0862F90E09093A8
:100C2000D5018093D40188E00E94C70181E291E060
:100C30000E9419038091D4019091D501C8C08F33CF
:100C4000910509F4C6C08136910509F0B0CF61E085
:100C50008091D0019091D101892B09F060E0862F1D
:100C600090E09093D1018093D0018AE00E94C70167
:100C700081E291E00E9419038091D0019091D1010D
:100C8000A6C08836910509F420C20CF049C085360B
:100C9000910509F4B2C114F58336910509F493C1A5
:100CA0008436910509F083CF61E08091CA0190916B
:100CB000CB01892B09F060E0862F90E09093CB0167
:100CC0008093CA018DE00E94C70181E291E00E94F9
:100CD00019038091CA019091CB0179C086369105A4
:100CE00009F4A5C18736910509F061CF61E08091D3
:100CF000C4019091C501892B09F060E0862F90E036
:100D00009093C5018093C40180E10E94C70181E2F4
:100D100091E00E9419038091C4019091C50157C0D0
:100D20008B36910509F4B7C114F58936910509F49C
:100D300098C18A36910509F03ACF61E08091C001EF
:100D40009091C101892B09F060E0862F90E090938B
:100D5000C1018093C00182E10E94C70181E291E05C
:100D60000E9419038091C0019091C10130C0833766
:100D7000910509F4B7C18437910509F018CF89E3CB
:100D800091E00E9419036091BA017091BB018091BA
:100D9000BC019091BD010E941B031BC061E08091CA
:100DA000E0019091E101892B09F060E0862F90E04D
:100DB0009093E1018093E00180E00E94C70181E20D
:100DC00091E00E9419038091E0019091E1010E945D
:100DD000E50319821A821B821C821D8261E08091C8
:100DE0007F020E94F50160E080917F020E94C701AE
:100DF0000E9426022B013C01E2E18E2E912CA12CB7
:100E0000B12C0E9426026419750986099709683E6B
:100E1000734081059105A8F321E0821A9108A10889
:100E2000B10888EE480E83E0581E611C711C8114C5
:100E30009104A104B10429F762E080917F020E942D
:100E4000F50128E230E040E050E061E080917F026F
:100E50000E944B02672B682B692B09F0DBC1309293
:100E60008102809181028E3F09F427C30CF0F7C202
:100E70008D3F09F425C3E114F10409F47BCE0E94EF
:100E8000F600882309F474CE0E9400006DCE61E064
:100E90008091DE019091DF01892B09F060E0862FBF
:100EA00090E09093DF018093DE0181E00E94C70112
:100EB00081E291E00E9419038091DE019091DF01AF
:100EC00086CF61E08091DC019091DD01892B09F0F2
:100ED00060E0862F90E09093DD018093DC0184E058
:100EE0000E94C70181E291E00E9419038091DC0118
:100EF0009091DD016CCF61E08091D8019091D90192
:100F0000892B09F060E0862F90E09093D9018093BF
:100F1000D80186E00E94C70181E291E00E94190396
:100F20008091D8019091D90152CF61E08091D60192
:100F30009091D701892B09F060E0862F90E0909383
:100F4000D7018093D60187E00E94C70181E291E03A
:100F50000E9419038091D6019091D70138CF61E0AA
:100F60008091D2019091D301892B09F060E0862F06
:100F700090E09093D3018093D20189E00E94C70151
:100F800081E291E00E9419038091D2019091D301F6
:100F90001ECF61E08091CE019091CF01892B09F0A5
:100FA00060E0862F90E09093CF018093CE018BE09C
:100FB0000E94C70181E291E00E9419038091CE0155
:100FC0009091CF0104CF61E08091CC019091CD014F
:100FD000892B09F060E0862F90E09093CD018093FB
:100FE000CC018CE00E94C70181E291E00E941903CC
:100FF0008091CC019091CD01EACE61E08091C80151
:101000009091C901892B09F060E0862F90E09093C0
:10101000C9018093C8018EE00E94C70181E291E07E
:101020000E9419038091C8019091C901D0CE61E05E
:101030008091C6019091C701892B09F060E0862F4D
:1010400090E09093C7018093C6018FE00E94C70192
:1010500081E291E00E9419038091C6019091C7013D
:10106000B6CE61E08091C2019091C301892B09F055
:1010700060E0862F90E09093C3018093C20181E1EC
:101080000E94C70181E291E00E9419038091C20190
:101090009091C3019CCE61E08091BE019091BF010F
:1010A000892B09F060E0862F90E09093BF01809338
:1010B000BE0183E10E94C70181E291E00E94190311
:1010C0008091BE019091BF0182CE8AE491E00E949E
:1010D00019036091B6017091B7018091B8019091A8
:1010E000B90159CE8091E0019091E1010E94E503A0
:1010F0008091DE019091DF010E94E50380E30E9470
:10110000790180E30E9479018091DC019091DD01F9
:101110000E94E5038091DA019091DB010E94E503D2
:101120008091D8019091D9010E94E5038091D60168
:101130009091D7010E94E5038091D4019091D5014F
:101140000E94E5038091D2019091D3010E94E503B2
:101150008091D0019091D1010E94E5038091CE0150
:101160009091CF010E94E5038091CC019091CD0137
:101170000E94E5038091CA019091CB010E94E50392
:101180008091C8019091C9010E94E5038091C60138
:101190009091C7010E94E5038091C4019091C5011F
:1011A0000E94E5038091C2019091C3010E94E50372
:1011B0008091C0019091C1010E94E5038091BE0120
:1011C0009091BF010E94E5038091B501882309F445
:1011D00000CE86E391E00E9419036091BA017091FC
:1011E000BB018091BC019091BD010E941B0387E46B
:1011F00091E00E9419036091B6017091B70180914E
:10120000B8019091B9010E941B0385E591E00E940D
:101210001903DFCD20E530E040E050E060E0809150
:101220007F020E944B02672B682B692B09F417CEB3
:1012300020E530E040E050E061E080917F020E94D4
:101240004B02672B682B692B09F409CE712C612C9A
:1012500022E330E040E050E060E080917F020E94B5
:101260004B0224E630E040E050E061E080917F02F4
:101270000E944B02662349F1F30173E0F595E7956F
:101280007A95E1F781E090E08C0F9D1FE80FF91F40
:101290008081880F91E06E3208F490E0890F80839E
:1012A0009FEF691A790A28E26216710489F669814A
:1012B0004A81AB801C81862F840F8A0D810F9D810E
:1012C000891731F0C0928102CCCDD0928102C9CD74
:1012D00080918002853109F486C0863109F4B9C055
:1012E0008B3009F06AC070E090E080E00E94760BDD
:1012F00060938E0270938F0280939002909391027C
:101300006A2D70E090E080E00E94780B2B013C0198
:1013100017FF56C01F77612F70E090E080E00E94B9
:10132000780B2DEC3CEC4CEC5DE30E942D0C9B010A
:10133000AC0160E070E080E89FE30E94630AA301D3
:1013400092010E94640A2B013C0177FA709477F8AD
:101350007094409282025092830260928402709252
:10136000850220E030E040E151E4C301B2010E9477
:101370002D0C20E030E040EA50E40E94D50A20E045
:1013800030E040E052E40E94640A60938602709369
:101390008702809388029093890223E333E948E827
:1013A00053E4C301B2010E94640A60938A027093FD
:1013B0008B0280938C0290938D021092810251CD0A
:1013C000612F70E090E080E00E94780B2DEC3CEC07
:1013D0004CEC5DE30E942D0CA30192010E94640A73
:1013E0002B013C01B6CF262F30E0322F2227B90146
:1013F000640F711D072E000C880B990B0E94780B4F
:101400002DEC3CEC4CEC5DE30E942D0C60938E02C5
:1014100070938F0280939002909391026A2D70E0F6
:10142000762F662766277F77610F711D072E000CC8
:10143000880B990B0E94780B2DEC3CEC4CEC5DEB8F
:10144000A7FC04C02DEC3CEC4CEC5DE30E942D0CA1
:10145000C7CF862F90E0982F8827BC01C9CF8F3F38
:1014600029F1811108CD80918E0290918F02A09177
:101470009002B09191028093B6019093B701A0932E
:10148000B801B093B9018091820290918302A0913A
:101490008402B09185028093BA019093BB01A0931E
:1014A000BC01B093BD010093B501E5CC89E691E0A4
:1014B0000E940B031092B501DECC8BE791E0F8CFD0
:1014C0008DE891E0F5CF5058BB27AA270E947B0AF0
:1014D0000C94EE0B0E94E00B38F00E94E70B20F01A
:1014E00039F49F3F19F426F40C94DD0B0EF4E095CB
:1014F000E7FB0C94D70BE92F0E94FF0B58F3BA17A8
:10150000620773078407950720F079F4A6F50C9419
:10151000210C0EF4E0950B2EBA2FA02D0B01B90172
:1015200090010C01CA01A0011124FF27591B99F059
:10153000593F50F4503E68F11A16F040A22F232F65
:10154000342F4427585FF3CF469537952795A795B5
:10155000F0405395C9F77EF41F16BA0B620B730B5C
:10156000840BBAF09150A1F0FF0FBB1F661F771FCD
:10157000881FC2F70EC0BA0F621F731F841F48F482
:10158000879577956795B795F7959E3F08F0B0CF0B
:101590009395880F08F09927EE0F979587950895F2
:1015A0000E94B30B08F481E008950E94E90A0C94AC
:1015B000EE0B0E94E70B58F00E94E00B40F029F47C
:1015C0005F3F29F00C94D70B51110C94220C0C9412
:1015D000DD0B0E94FF0B68F39923B1F3552391F3C0
:1015E000951B550BBB27AA2762177307840738F092
:1015F0009F5F5F4F220F331F441FAA1FA9F335D0EF
:101600000E2E3AF0E0E832D091505040E695001CA2
:10161000CAF72BD0FE2F29D0660F771F881FBB1F5C
:10162000261737074807AB07B0E809F0BB0B802D3A
:10163000BF01FF2793585F4F3AF09E3F510578F066
:101640000C94D70B0C94220C5F3FE4F3983ED4F338
:10165000869577956795B795F7959F5FC9F7880F3A
:10166000911D9695879597F90895E1E0660F771F8C
:10167000881FBB1F621773078407BA0720F0621B1D
:10168000730B840BBA0BEE1F88F7E09508950E9448
:10169000070C88F09F5798F0B92F9927B751B0F0F1
:1016A000E1F0660F771F881F991F1AF0BA95C9F7E6
:1016B00014C0B13091F00E94210CB1E008950C9457
:1016C000210C672F782F8827B85F39F0B93FCCF30A
:1016D000869577956795B395D9F73EF49095809563
:1016E000709561957F4F8F4F9F4F0895E89409C083
:1016F00097FB3EF490958095709561957F4F8F4F45
:101700009F4F9923A9F0F92F96E9BB279395F6955A
:10171000879577956795B795F111F8CFFAF4BB0FD8
:1017200011F460FF1BC06F5F7F4F8F4F9F4F16C03C
:10173000882311F096E911C0772321F09EE8872FC6
:10174000762F05C0662371F096E8862F70E060E082
:101750002AF09A95660F771F881FDAF7880F9695FB
:10176000879597F90895990F0008550FAA0BE0E89F
:10177000FEEF16161706E807F907C0F01216130653
:10178000E407F50798F0621B730B840B950B39F493
:101790000A2661F0232B242B252B21F408950A26F9
:1017A00009F4A140A6958FEF811D811D089597F939
:1017B0009F6780E870E060E008959FEF80EC0895F7
:1017C00000240A9416161706180609060895002420
:1017D0000A9412161306140605060895092E03949A
:1017E000000C11F4882352F0BB0F40F4BF2B11F40E
:1017F00060FF04C06F5F7F4F8F4F9F4F089557FD6D
:101800009058440F551F59F05F3F71F04795880F6E
:1018100097FB991F61F09F3F79F087950895121605
:1018200013061406551FF2CF4695F1DF08C01616B1
:1018300017061806991FF1CF869571056105089462
:101840000895E894BB2766277727CB0197F9089579
:101850000E94B30B08F48FEF08950E94400C0C9483
:10186000EE0B0E94E00B38F00E94E70B20F095236E
:1018700011F00C94D70B0C94DD0B11240C94220C5A
:101880000E94FF0B70F3959FC1F3950F50E0551F19
:10189000629FF001729FBB27F00DB11D639FAA27C5
:1018A000F00DB11DAA1F649F6627B00DA11D661F14
:1018B000829F2227B00DA11D621F739FB00DA11D35
:1018C000621F839FA00D611D221F749F3327A00DEF
:1018D000611D231F849F600D211D822F762F6A2F8B
:1018E00011249F5750409AF0F1F088234AF0EE0FF0
:1018F000FF1FBB1F661F771F881F91505040A9F71D
:101900009E3F510580F00C94D70B0C94220C5F3F46
:10191000E4F3983ED4F3869577956795B795F79558
:10192000E7959F5FC1F7FE2B880F911D96958795D0
:1019300097F908950E94B30B880B990B0895A1E2C3
:101940001A2EAA1BBB1BFD010DC0AA1FBB1FEE1F39
:10195000FF1FA217B307E407F50720F0A21BB30B84
:10196000E40BF50B661F771F881F991F1A9469F700
:1019700060957095809590959B01AC01BD01CF015C
:101980000895EE0FFF1F0590F491E02D0994F8944F
:02199000FFCF87
:10199200000000002C018C00B9007E01EA00C800A2
:1019A200DC000D0A006E616E00696E66006F76667D
:1019B2000070696E207374617465206368616E677C
:1019C2006520746F200020282074656D7065726137
:1019D200747572653A2000202F2068756D696469FC
:1019E20074793A20002029200070696E20697320E2
:1019F2006E6F74207573656400202F2043686563E1
:101A02006B73756D206572726F7200202F2054699E
:101A12006D65206F7574206572726F7200202F20C1
:101A220044485478782053656E736F72206E6F74D9
:0C1A320020636F6E6E65637465640000D5
:00000001FF
