:100000000C945D000C9485000C9485000C94850084
:100010000C9485000C9485000C9485000C9485004C
:100020000C9485000C9485000C9485000C9485003C
:100030000C9485000C9485000C9485000C9485002C
:100040000C947B020C9485000C94EB020C94C5027A
:100050000C9485000C9485000C9485000C9485000C
:100060000C9485000C94850000000008000201003B
:100070000003040700000000000000000000000072
:10008000250028002B0000000000240027002A0083
:10009000040404040404040402020202020203032E
:1000A0000303030301020408102040800102040836
:1000B0001020010204081020800611241FBECFEF7B
:1000C000D8E0DEBFCDBF22E0AAE5B1E001C01D92BD
:1000D000A632B207E1F711E0A0E0B1E0EEEAFDE000
:1000E00002C005900D92AA35B107D9F710E0CDE511
:1000F000D0E004C02197FE010E94CF06CC35D10785
:10010000C9F70E941D030C94D5060C940000AF9211
:10011000BF92CF92DF92EF92FF920F931F93CF93F4
:10012000DF936C017B018B01040F151FEB015E0156
:10013000AE18BF08C017D10759F06991D601ED91EB
:10014000FC910190F081E02DC6010995892B79F78A
:10015000C501DF91CF911F910F91FF90EF90DF903C
:10016000CF90BF90AF900895FC01538D448D252F03
:1001700030E0842F90E0821B930B541710F0CF9641
:10018000089501970895FC01918D828D981761F073
:10019000A28DAE0FBF2FB11D5D968C91928D9F5F8A
:1001A0009F73928F90E008958FEF9FEF0895FC0169
:1001B000918D828D981731F0828DE80FF11D858D1C
:1001C00090E008958FEF9FEF0895FC01918D228DAF
:1001D000892F90E0805C9F4F821B91098F73992734
:1001E000089589E891E00E94E50021E0892B09F457
:1001F00020E0822F089580E090E0892B29F00E9472
:10020000F10081110C9400000895FC01A48DA80F49
:10021000B92FB11DA35ABF4F2C91848D90E0019648
:100220008F739927848FA689B7892C93A089B18968
:100230008C91837080648C93938D848D981306C009
:100240000288F389E02D80818F7D80830895EF926D
:10025000FF920F931F93CF93DF93EC0181E0888F80
:100260009B8D8C8D98131AC0E889F989808185FF50
:1002700015C09FB7F894EE89FF896083E889F989F2
:1002800080818370806480839FBF81E090E0DF91F4
:10029000CF911F910F91FF90EF900895F62E0B8D47
:1002A00010E00F5F1F4F0F731127E02E8C8D8E1102
:1002B0000CC00FB607FCFACFE889F989808185FF69
:1002C000F5CFCE010E940501F1CFEB8DEC0FFD2F94
:1002D000F11DE35AFF4FF0829FB7F8940B8FEA8924
:1002E000FB8980818062CFCFCF93DF93EC01888D33
:1002F0008823B9F0AA89BB89E889F9898C9185FDA1
:1003000003C0808186FD0DC00FB607FCF7CF8C912E
:1003100085FFF2CF808185FFEDCFCE010E940501E0
:10032000E9CFDF91CF91089590E0FC01E859FF4FAC
:100330002491FC01EC55FF4F3491FC01E057FF4F35
:10034000E491EE23C9F0222339F0233001F1A8F41F
:10035000213019F1223029F1F0E0EE0FFF1FE458AF
:10036000FF4FA591B4918FB7F894EC91611126C01D
:1003700030953E233C938FBF08952730A9F0283055
:10038000C9F0243049F7809180008F7D03C08091AF
:1003900080008F7780938000DFCF84B58F7784BD16
:1003A000DBCF84B58F7DFBCF8091B0008F778093BA
:1003B000B000D2CF8091B0008F7DF9CF3E2BDACF45
:1003C000009719F0019721F0089582E191E00895D6
:1003D00086E191E008958F929F92AF92BF920F9322
:1003E0001F93CF93DF93CDB7DEB7A1970FB6F894E5
:1003F000DEBF0FBECDBF19A2423008F44AE08E0125
:100400000F5D1F4F842E912CB12CA12CA5019401BE
:100410000E94AD06E62FB901CA01EA3044F5E05D5D
:10042000D801EE938D01232B242B252B79F790E017
:1004300080E0109769F0FD0101900020E9F7319705
:10044000AF014A1B5B0BBD0189E891E00E94870068
:10045000A1960FB6F894DEBF0FBECDBFDF91CF914E
:100460001F910F91BF90AF909F908F900895E95C7E
:10047000D7CF009769F0FC0101900020E9F7319790
:10048000AF01481B590BBC0189E891E00C9487002F
:1004900090E080E00895CF92DF92EF92FF92CF93A9
:1004A000DF936C01990FEE08FF08F7FE19C06DE2AB
:1004B00089E891E00E942701EC0166277727CB01AC
:1004C0006C197D098E099F094AE00E94EB018C0F8F
:1004D0009D1FDF91CF91FF90EF90DF90CF90089517
:1004E0004AE0C701B601DF91CF91FF90EF90DF9016
:1004F000CF900C94EB011F920F920FB60F92112424
:100500002F933F938F939F93AF93BF9380918501D8
:1005100090918601A0918701B0918801309184016A
:1005200023E0230F2D3758F50196A11DB11D20930F
:1005300084018093850190938601A0938701B093F5
:1005400088018091800190918101A0918201B091F8
:1005500083010196A11DB11D8093800190938101BB
:10056000A0938201B0938301BF91AF919F918F912E
:100570003F912F910F900FBE0F901F90189526E876
:10058000230F0296A11DB11DD2CF1F920F920FB65D
:100590000F9211242F933F934F935F936F937F9309
:1005A0008F939F93AF93BF93EF93FF9389E891E06D
:1005B0000E940501FF91EF91BF91AF919F918F91A3
:1005C0007F916F915F914F913F912F910F900FBE4F
:1005D0000F901F9018951F920F920FB60F92112433
:1005E0002F938F939F93EF93FF93E0919901F09155
:1005F0009A018081E0919F01F091A00182FD1BC0D2
:1006000090818091A2018F5F8F732091A301821747
:1006100041F0E091A201F0E0E757FE4F958F809303
:10062000A201FF91EF919F918F912F910F900FBE9B
:100630000F901F9018958081F4CF789484B58260D4
:1006400084BD84B5816084BD85B5826085BD85B576
:10065000816085BD80916E00816080936E001092F4
:10066000810080918100826080938100809181006F
:100670008160809381008091800081608093800000
:100680008091B10084608093B1008091B00081605E
:100690008093B00080917A00846080937A0080918A
:1006A0007A00826080937A0080917A0081608093E2
:1006B0007A0080917A00806880937A001092C1005D
:1006C000E0919901F0919A0182E08083E091950197
:1006D000F09196011082E0919701F09198018FECD2
:1006E00080831092A101E0919D01F0919E0186E02E
:1006F0008083E0919B01F0919C01808180618083E7
:10070000E0919B01F0919C01808188608083E09161
:100710009B01F0919C01808180688083E0919B0126
:10072000F0919C0180818F7D808381E090E0A0E04A
:10073000B0E080938D0190938E01A0938F01B093D0
:100740009001E1EBF0E02491EDE9F0E08491882361
:1007500099F090E0880F991FFC01EA57FF4FA5918F
:10076000B491FC01E458FF4F859194918FB7F894B0
:10077000EC91E22BEC938FBFC0E0D0E089E891E0F0
:100780000E94E500892BD1F389E891E00E94C30023
:1007900090937F0180937E0189E191E00E9439026C
:1007A00080917E0190917F018336910509F492C179
:1007B0000CF077C08633910509F424C15CF58133D0
:1007C000910509F4EBC034F4C09709F4C9C089E479
:1007D00091E0E1C08433910509F4FAC0C597B9F7F7
:1007E00061E08091760190917701892B09F060E0BA
:1007F000862F90E0909377018093760185E00E94A8
:10080000940188E291E00E943902809176019091F2
:100810007701BFC08933910509F428C104F58733F6
:10082000910509F409C1C89791F661E080917001C2
:1008300090917101892B09F060E0862F90E09093F0
:1008400071018093700188E00E94940188E291E038
:100850000E94390280917001909171019AC0813695
:10086000910509F41DC18236910509F0B0CF61E010
:1008700080916A0190916B01892B09F060E0862FCD
:1008800090E090936B0180936A018BE00E94940149
:1008900088E291E00E94390280916A0190916B0197
:1008A00078C08836910509F4B1C144F585369105C3
:1008B00009F444C10CF428C18636910509F458C1E5
:1008C0008736910509F083CF61E0809160019091B6
:1008D0006101892B09F060E0862F90E0909361011F
:1008E0008093600180E10E94940188E291E00E947F
:1008F000390280916001909161014BC08B36910566
:1009000009F46AC114F58936910509F44BC18A3698
:10091000910509F05CCF61E080915C0190915D01EF
:10092000892B09F060E0862F90E090935D01809321
:100930005C0182E10E94940188E291E00E94390208
:1009400080915C0190915D0124C08337910509F489
:1009500060C18437910509F03ACF84E391E01BC070
:1009600061E080917C0190917D01892B09F060E02C
:10097000862F90E090937D0180937C0180E00E941F
:10098000940188E291E00E94390280917C0190916B
:100990007D010E94E0010E943902A7C161E08091BF
:1009A0007A0190917B01892B09F060E0862F90E01D
:1009B00090937B0180937A0181E00E94940188E208
:1009C00091E00E94390280917A0190917B01E1CF00
:1009D00061E08091780190917901892B09F060E0C4
:1009E000862F90E0909379018093780184E00E94B3
:1009F000940188E291E00E943902809178019091FF
:100A00007901C7CF61E08091740190917501892BC4
:100A100009F060E0862F90E0909375018093740157
:100A200086E00E94940188E291E00E943902809160
:100A3000740190917501ADCF61E080917201909148
:100A40007301892B09F060E0862F90E09093730189
:100A50008093720187E00E94940188E291E00E94F5
:100A60003902809172019091730193CF61E080917E
:100A70006E0190916F01892B09F060E0862F90E064
:100A800090936F0180936E0189E00E94940188E247
:100A900091E00E94390280916E0190916F0179CFAF
:100AA00061E080916C0190916D01892B09F060E00B
:100AB000862F90E090936D0180936C018AE00E94F4
:100AC000940188E291E00E94390280916C0190913A
:100AD0006D015FCF61E08091680190916901892B80
:100AE00009F060E0862F90E090936901809368019F
:100AF0008CE00E94940188E291E00E94390280918A
:100B000068019091690145CF61E080916601909103
:100B10006701892B09F060E0862F90E090936701D0
:100B2000809366018DE00E94940188E291E00E942A
:100B3000390280916601909167012BCF61E080912D
:100B4000640190916501892B09F060E0862F90E0A7
:100B500090936501809364018EE00E94940188E285
:100B600091E00E943902809164019091650111CF5A
:100B700061E08091620190916301892B09F060E04E
:100B8000862F90E090936301809362018FE00E9432
:100B9000940188E291E00E94390280916201909173
:100BA0006301F7CE61E080915E0190915F01892B36
:100BB00009F060E0862F90E090935F0180935E01E2
:100BC00081E10E94940188E291E00E9439028091C3
:100BD0005E0190915F01DDCE61E080915A019091BC
:100BE0005B01892B09F060E0862F90E090935B0118
:100BF00080935A0183E10E94940188E291E00E946F
:100C0000390280915A0190915B01C3CE80E491E05A
:100C1000C2CE80917C0190917D010E944B02809117
:100C20007A0190917B010E944B0280917801909112
:100C300079010E944B0280917601909177010E9488
:100C40004B0280917401909175010E944B0280913A
:100C50007201909173010E944B02809170019091FA
:100C600071010E944B0280916E0190916F010E9470
:100C70004B0280916C0190916D010E944B0280911A
:100C80006A0190916B010E944B02809168019091E2
:100C900069010E944B0280916601909167010E9458
:100CA0004B0280916401909165010E944B028091FA
:100CB0006201909163010E944B02809160019091CA
:100CC00061010E944B0280915E0190915F010E9440
:100CD0004B0280915C0190915D010E944B028091DA
:100CE0005A0190915B010E944B02209709F446CD76
:100CF0000E94F100882309F441CD0E9400003ECDFE
:100D0000E9E8F1E01382128288EE93E0A0E0B0E01F
:100D100084839583A683B78384E091E09183808365
:100D200085EC90E09587848784EC90E097878687B0
:100D300080EC90E0918B808B81EC90E0938B828BA8
:100D400082EC90E0958B848B86EC90E0978B868B81
:100D5000118E128E138E148E0895A1E21A2EAA1BE4
:100D6000BB1BFD010DC0AA1FBB1FEE1FFF1FA2175B
:100D7000B307E407F50720F0A21BB30BE40BF50B58
:100D8000661F771F881F991F1A9469F760957095E1
:100D9000809590959B01AC01BD01CF010895EE0FA8
:0E0DA000FF1F0590F491E02D0994F894FFCF09
:100DAE000000000027018700B4007401E500C300B5
:100DBE00D7004F4646004F4E00426F61726420418D
:100DCE006E737765723A200070696E206973206EBB
:100DDE006F77200074656D70657261747572650051
:100DEE0068756D69646974790070696E2069732025
:0A0DFE006E6F7420757365640000C9
:00000001FF
