:100000000C9435010C9466010C9466010C94660105
:100010000C9466010C9466010C9466010C946601C4
:100020000C9466010C9466010C9466010C946601B4
:100030000C9466010C9466010C9466010C946601A4
:100040000C9466010C9466010C9466010C94660194
:100050000C9466010C9466010C9466010C94B10535
:100060000C9466010C947B050C9451050C9466016C
:100070000C9466010C9466010C9466010C94660164
:100080000C9466010C9466010C9466010C94660154
:100090000C9466010C9466010C9466010C94660144
:1000A0000C9466010C9466010C9466010C94660134
:1000B0000C9466010C9466010C9466010C94660124
:1000C0000C9466010C9466010C9466010C94660114
:1000D0000C9466010C9466010C9466010C94660104
:1000E0000C9466010C94D4020C9400030C94DE0270
:1000F0000C94B8010C94C5020C94FA020C94C6013D
:100100000C9495010C94F6020C94BF020C94E4023A
:100110000C9468010C9404030C9450020C94E802B3
:100120000C94A4010C94D1020C94C9020C94FF020B
:100130000C94FB050C94FE010C94CD020C94EC0283
:100140000C94F2020C94DA02000021002400270033
:100150002A002D00300033000101000004010701D6
:100160000A0100002200250028002B002E0031008B
:10017000340002010000050108010B01000020000D
:100180002300260029002C002F003200000100006F
:10019000030106010901050505050705080808080A
:1001A000020202020A0A080804040404010101010F
:1001B000010101010303030303030303040707070A
:1001C0000C0C0C0C0C0C0C0C0202020206060606AF
:1001D000060606060B0B0B0B0B0B0B0B010210207C
:1001E000200808102040102040800201020108046D
:1001F0000201010204081020408080402010080401
:100200000201800402018040201008040201080459
:10021000020101020408102040800102040810209D
:10022000408000000A0B02090C0D0E0807030401B0
:1002300000000000000000000000000000000000BE
:10024000000000000000000000000000000012118B
:10025000100000000000000000000000000000008E
:100260000000000000000000FB0511241FBECFEFBE
:10027000D1E2DEBFCDBF00E00CBF12E0A0E0B2E0F3
:10028000ECE2FCE100E00BBF02C007900D92A03948
:10029000B107D9F723E0A0E9B2E001C01D92A2376F
:1002A000B207E1F711E0C5E3D1E000E006C0219715
:1002B0000109802FFE010E940C0EC433D10780E09B
:1002C0000807A9F70E942E060C94140E0C94000047
:1002D000AF92BF92CF92DF92EF92FF920F931F9354
:1002E000CF93DF936C017B018B01040F151FEB0192
:1002F0005E01AE18BF08C017D10759F06991D60149
:10030000ED91FC910190F081E02DC6011995892BAA
:1003100079F7C501DF91CF911F910F91FF90EF9079
:10032000DF90CF90BF90AF900895FC01538D448D26
:10033000252F30E0842F90E0821B930B541710F090
:10034000CF96089501970895FC01918D828D98179D
:1003500061F0A28DAE0FBF2FB11D5D968C91928D75
:100360009F5F9F73928F90E008958FEF9FEF0895A6
:10037000FC01918D828D981731F0828DE80FF11D6F
:10038000858D90E008958FEF9FEF0895FC01918D8A
:10039000228D892F90E0805C9F4F821B91098F7383
:1003A0009927089582EC92E00E94C60121E0892BF2
:1003B00009F420E0822F0895FC01A48DA80FB92F25
:1003C000B11DA35ABF4F2C91848D90E001968F737D
:1003D0009927848FA689B7892C93A089B1898C919C
:1003E000837080648C93938D848D981306C00288EB
:1003F000F389E02D80818F7D80830895EF92FF92B5
:100400000F931F93CF93DF93EC0181E0888F9B8D37
:100410008C8D98131AC0E889F989808185FF15C0F1
:100420009FB7F894EE89FF896083E889F989808114
:100430008370806480839FBF81E090E0DF91CF91E3
:100440001F910F91FF90EF900895F62E0B8D10E005
:100450000F5F1F4F0F731127E02E8C8D8E110CC074
:100460000FB607FCFACFE889F989808185FFF5CFBF
:10047000CE010E94DC01F1CFEB8DEC0FFD2FF11DC1
:10048000E35AFF4FF0829FB7F8940B8FEA89FB89FC
:1004900080818062CFCF682F82EC92E00C94FE01C5
:1004A000CF93DF93EC01888D8823B9F0AA89BB89AB
:1004B000E889F9898C9185FD03C0808186FD0DC096
:1004C0000FB607FCF7CF8C9185FFF2CF808185FFB7
:1004D000EDCFCE010E94DC01E9CFDF91CF910895ED
:1004E00080E090E0892B29F00E94D20181110E94C6
:1004F000000080E090E0892B49F080E090E0892BBB
:1005000029F00E94000081110E94000080E090E02C
:10051000892B49F080E090E0892B29F00E940000AF
:1005200081110E94000080E090E0892B49F080E07A
:1005300090E0892B29F00E94000081110C940000AA
:1005400008958150823108F05AC0E82FF0E08827E2
:10055000E355FD4F8F4F0C940C0ECD02D102BF021C
:10056000C502C902FF02D402DA02DE02E402E80296
:10057000EC02F202F602FF02FA0200030403809189
:1005800080008F77809380000895809180008F7D18
:10059000F9CF80918000877FF5CF84B58F7784BDB8
:1005A000089584B58F7DFBCF8091B0008F778093C5
:1005B000B00008958091B0008F7DF9CF80919000B8
:1005C0008F77809390000895809190008F7DF9CF70
:1005D00080919000877FF5CF8091A0008F778093E6
:1005E000A00008958091A0008F7DF9CF8091A00098
:1005F000877FF5CF809120018F7780932001089528
:10060000809120018F7DF9CF80912001877FF5CFE8
:100610001F93CF93DF93282F30E0F901EE5DFD4F5C
:100620008491F901E452FE4FD491F901EA56FE4F4C
:10063000C491CC23A9F0162F81110E94A102EC2FA6
:10064000F0E0EE0FFF1FEE59FE4FA591B4918FB76A
:10065000F894EC91111108C0D095DE23DC938FBF84
:10066000DF91CF911F910895DE2BF8CFCF93DF93C9
:1006700090E0FC01E452FE4F24918A569E4FFC010B
:1006800084918823C9F090E0880F991FFC01E85BF2
:10069000FE4FA591B491FC01EE59FE4FC591D49146
:1006A00061110DC09FB7F8948C91209582238C9393
:1006B0008881282328839FBFDF91CF9108956230DE
:1006C00051F49FB7F8943C91822F809583238C93AB
:1006D000E8812E2BEFCF8FB7F894EC912E2B2C9333
:1006E0008FBFEACF3FB7F894809195029091960220
:1006F000A0919702B091980226B5A89B05C02F3F04
:1007000019F00196A11DB11D3FBFBA2FA92F982F37
:100710008827BC01CD01620F711D811D911D42E032
:10072000660F771F881F991F4A95D1F708952F925A
:100730003F924F925F926F927F928F929F92AF9271
:10074000BF92CF92DF92EF92FF920F931F93CF93BE
:10075000DF93C82F062F49015A010E9472036B01D3
:100760007C01D0E0CE018E5D9D4F2C01FE01E45254
:10077000FE4F3F01CA56DE4F10E0F2018491F301B3
:100780003490FE012490222029F181110E94A102BF
:10079000E22DF0E0EE0FFF1FE458FE4FA591B4915B
:1007A0008C91382231E020E009F430E0832F922F41
:1007B0000817190791F40E9472036C197D098E09BC
:1007C0009F0986169706A806B906B8F660E070E09D
:1007D000CB0109C090E080E0EBCF0E9472036C195E
:1007E0007D098E099F09DF91CF911F910F91FF9095
:1007F000EF90DF90CF90BF90AF909F908F907F90C1
:100800006F905F904F903F902F900895FC01019062
:100810000020E9F73197AF01481B590BBC0182EC6E
:1008200092E00C9468018F929F92AF92BF920F93C7
:100830001F93CF93DF93CDB7DEB7A1970FB6F89490
:10084000DEBF0FBECDBF19A2423008F44AE08E01D0
:100850000F5D1F4F842E912CB12CA12CA50194016A
:100860000E94EA0DE62FB901CA01EA30F4F4E05D16
:10087000D801EE938D01232B242B252B79F790E0C3
:1008800080E0109719F0CD010E940604A1960FB6E2
:10089000F894DEBF0FBECDBFDF91CF911F910F91B6
:1008A000BF90AF909F908F900895E95CE1CF0C943A
:1008B00006044F925F926F927F928F929F92AF92B7
:1008C000BF92CF92DF92EF92FF926B017C01AC015D
:1008D0009B010E94E50D882381F082E192E0FF9068
:1008E000EF90DF90CF90BF90AF909F908F907F90D0
:1008F0006F905F904F900C94060446015701E89466
:10090000B7F82FEF3FEF4FE75FE7C501B4010E9453
:10091000E50D81110DC02FEF3FEF4FE75FE7C501F8
:10092000B4010E941B0C18161CF486E192E0D7CF8C
:100930002FEF3FEF4FE75FE4C701B6010E94730D51
:1009400018161CF48AE192E0CACF2FEF3FEF4FE771
:100950005FECC701B6010E941B0C87FDF3CF20E0BE
:1009600030E0A901C701B6010E941B0CB12CA12CDB
:1009700087FF08C08DE20E944B025C01F7FAF094F9
:10098000F7F8F0942AE037ED43EA5BE3C701B601DC
:100990000E94AF0B2B013C010E94920C6B017C0169
:1009A0000E94C10C9B01AC01C301B2010E94AE0BBD
:1009B0002B013C014AE0C701B6010E9413047C01EF
:1009C000EA0CFB1C8EE20E944B02E80EF91E20E0AE
:1009D00030E040E251E4C301B2010E94780D2B01E6
:1009E0003C010E94920C4B01B12CA12C4AE0C501A4
:1009F000B4010E941304E80EF91EC501B4010E945F
:100A0000C10C9B01AC01C301B2010E94AE0B20E0FE
:100A100030E040E251E40E94780D0E94920C90E098
:100A200080E04AE00E9413048E0D9F1DFF90EF901E
:100A3000DF90CF90BF90AF909F908F907F906F90FE
:100A40005F904F900895CF92DF92EF92FF92CF93F5
:100A5000DF936C01990FEE08FF08F7FE17C08DE2D7
:100A60000E944B02EC0166277727CB016C197D09A8
:100A70008E099F094AE00E9413048C0F9D1FDF918D
:100A8000CF91FF90EF90DF90CF9008954AE0C7019B
:100A9000B601DF91CF91FF90EF90DF90CF900C9453
:100AA00013041F920F920FB60F9211240BB60F92E0
:100AB0002F933F934F935F936F937F938F939F9366
:100AC000AF93BF93EF93FF9382EC92E00E94DC011F
:100AD000FF91EF91BF91AF919F918F917F916F9116
:100AE0005F914F913F912F910F900BBE0F900FBED2
:100AF0000F901F9018951F920F920FB60F9211240E
:100B00000BB60F922F938F939F93EF93FF93E091E8
:100B1000D202F091D3028081E091D802F091D90203
:100B200082FD1DC090818091DB028F5F8F732091C9
:100B3000DC02821741F0E091DB02F0E0EE53FD4F62
:100B4000958F8093DB02FF91EF919F918F912F9171
:100B50000F900BBE0F900FBE0F901F9018958081C5
:100B6000F2CF1F920F920FB60F9211242F933F9343
:100B70008F939F93AF93BF93809191029091920234
:100B8000A0919302B09194023091900223E0230F40
:100B90002D3758F50196A11DB11D20939002809329
:100BA000910290939202A0939302B0939402809149
:100BB000950290919602A0919702B09198020196A9
:100BC000A11DB11D8093950290939602A093970268
:100BD000B0939802BF91AF919F918F913F912F91C8
:100BE0000F900FBE0F901F90189526E8230F0296C6
:100BF000A11DB11DD2CFE2ECF2E01382128288EE89
:100C000093E0A0E0B0E084839583A683B78384E07B
:100C100092E09183808385EC90E09587848784ECD3
:100C200090E09787868780EC90E0918B808B81ECB9
:100C300090E0938B828B82EC90E0958B848B86EC9A
:100C400090E0978B868B118E128E138E148EEFE5AB
:100C5000F3E082E080838BE081830895CF93DF937C
:100C600000D01F921F92CDB7DEB7789484B5826012
:100C700084BD84B5816084BD85B5826085BD85B540
:100C8000816085BD80916E00816080936E001092BE
:100C90008100809181008260809381008091810039
:100CA00081608093810080918000816080938000CA
:100CB0008091B10084608093B1008091B000816028
:100CC0008093B00080919100826080939100809128
:100CD0009100816080939100809190008160809369
:100CE00090008091A10082608093A1008091A1007A
:100CF00081608093A1008091A00081608093A0001A
:100D00008091210182608093210180912101816085
:100D10008093210180912001816080932001809146
:100D20007A00846080937A0080917A008260809358
:100D30007A0080917A00816080937A0080917A00B5
:100D4000806880937A001092C100E091D202F09105
:100D5000D30282E08083E091CE02F091CF02108234
:100D6000E091D002F091D1028FEC80831092DA02F0
:100D7000E091D602F091D70286E08083E091D40220
:100D8000F091D502808180618083E091D402F0915E
:100D9000D502808188608083E091D402F091D502F1
:100DA000808180688083E091D402F091D5028081B7
:100DB0008F7D808360E082E00E94360361E083E003
:100DC0000E94360361E084E00E94360361E085E022
:100DD0000E94360361E086E00E94360361E087E00E
:100DE0000E94360361E088E00E94360361E089E0FA
:100DF0000E94360361E08AE00E94360361E08BE0E6
:100E00000E94360361E08CE00E94360361E08DE0D1
:100E10000E94360361E08EE00E94360361E08FE0BD
:100E20000E94360361E080E10E94360361E081E1C7
:100E30000E94360361E082E10E94360361E083E1B3
:100E40000E94360301E0FEEFFF2EEE24EA94ADEFA0
:100E5000DA2E82EC92E00E94C601892BD1F382EC5B
:100E600092E00E94A4018436910509F4DBC10CF0E4
:100E7000BBC08833910509F46DC15CF585339105DC
:100E800009F434C134F4C49709F414C188E592E03C
:100E900008C38633910509F443C1C797B9F761E0E8
:100EA0008091BA029091BB02892B09F060E0862FF5
:100EB00090E09093BB028093BA0287E00E940803FF
:100EC0008EE192E00E9457048091BA029091BB0299
:100ED0000AC18136910509F471C10CF063C08933F0
:100EE000910509F451C1CF9789F661E083E00E9432
:100EF000080319821A821B821C821D8261E0809184
:100F00005F030E94360360E080915F030E94080344
:100F10000E9472032B013C01E2E18E2E912CA12C48
:100F2000B12C0E9472036419750986099709683EFD
:100F3000734081059105A8F321E0821A9108A10868
:100F4000B10888EE480E83E0581E611C711C8114A4
:100F50009104A104B10429F762E080915F030E942B
:100F6000360328E230E040E050E061E080915F032A
:100F70000E949703672B682B692B09F095C2D092CA
:100F80006103809161038E3F09F4E5C30CF0B1C3A6
:100F90008D3F09F4DDC360E083E00E9408030E94F6
:100FA000700257CF8236910509F422C1833691052C
:100FB00009F06CCF61E08091B0029091B102892B71
:100FC00009F060E0862F90E09093B1028093B00228
:100FD0008CE00E9408038EE192E00E945704809109
:100FE000B0029091B1027FC08936910509F482C1A7
:100FF00004F58636910509F449C10CF42DC18736F4
:10100000910509F45DC18836910509F03FCF8091C3
:10101000A102882309F469CF89E492E00E94570471
:101020006091990270919A0280919B0290919C022A
:10103000A6C18337910509F4A5C114F58A36910537
:1010400009F472C18B36910509F020CF61E08091DF
:10105000A2029091A302892B09F060E0862F90E014
:101060009093A3028093A20283E10E9408038EE181
:1010700092E00E9457048091A2029091A30233C093
:101080008437910509F46AC18A37910509F0FECECB
:101090008091A102882309F428CF60919D0270916C
:1010A0009E0280919F029091A0020E94590483E3C6
:1010B00092E0B4CF61E08091C0029091C102892B8F
:1010C00009F060E0862F90E09093C1028093C00207
:1010D00084E00E9408038EE192E00E945704809110
:1010E000C0029091C1020E942305FFCE61E0809171
:1010F000BE029091BF02892B09F060E0862F90E03C
:101100009093BF028093BE0285E00E9408038EE1A7
:1011100092E00E9457048091BE029091BF02E3CFFB
:1011200061E08091BC029091BD02892B09F060E0E2
:10113000862F90E09093BD028093BC0286E00E94CF
:1011400008038EE192E00E9457048091BC029091C6
:10115000BD02C9CF61E08091B8029091B902892B9C
:1011600009F060E0862F90E09093B9028093B80276
:1011700088E00E9408038EE192E00E94570480916B
:10118000B8029091B902AFCF61E08091B602909120
:10119000B702892B09F060E0862F90E09093B702A8
:1011A0008093B60289E00E9408038EE192E00E94DB
:1011B00057048091B6029091B70295CF61E080917B
:1011C000B4029091B502892B09F060E0862F90E07F
:1011D0009093B5028093B4028AE00E9408038EE1E6
:1011E00092E00E9457048091B4029091B5027BCFA7
:1011F00061E08091B2029091B302892B09F060E026
:10120000862F90E09093B3028093B2028BE00E940D
:1012100008038EE192E00E9457048091B2029091FF
:10122000B30261CF61E08091AE029091AF02892B51
:1012300009F060E0862F90E09093AF028093AE02B9
:101240008DE00E9408038EE192E00E945704809195
:10125000AE029091AF0247CF61E08091AC029091D5
:10126000AD02892B09F060E0862F90E09093AD02EB
:101270008093AC028EE00E9408038EE192E00E940F
:1012800057048091AC029091AD022DCF61E0809126
:10129000AA029091AB02892B09F060E0862F90E0C2
:1012A0009093AB028093AA028FE00E9408038EE124
:1012B00092E00E9457048091AA029091AB0213CF52
:1012C00061E08091A8029091A902892B09F060E069
:1012D000862F90E09093A9028093A80280E10E945B
:1012E00008038EE192E00E9457048091A802909139
:1012F000A902F9CE61E08091A6029091A702892B04
:1013000009F060E0862F90E09093A7028093A602F8
:1013100081E10E9408038EE192E00E9457048091CF
:10132000A6029091A702DFCE61E08091A402909185
:10133000A502892B09F060E0862F90E09093A5022A
:101340008093A40282E10E9408038EE192E00E9451
:1013500057048091A4029091A502C5CE8091A1026C
:10136000882309F4C2CD88E392E00E94570460917B
:101370009D0270919E0280919F029091A0020E9416
:101380005904B3CD80E30E944B0280E30E944B02DC
:1013900080E30E944B0280E30E944B028091C002D6
:1013A0009091C1020E9423058091BE029091BF02DC
:1013B0000E9423058091BC029091BD020E942305EA
:1013C0008091BA029091BB020E9423058091B802DD
:1013D0009091B9020E9423058091B6029091B702C4
:1013E0000E9423058091B4029091B5020E942305CA
:1013F0008091B2029091B3020E9423058091B002C5
:101400009091B1020E9423058091AE029091AF02AB
:101410000E9423058091AC029091AD020E942305A9
:101420008091AA029091AB020E9423058091A802AC
:101430009091A9020E9423058091A6029091A70293
:101440000E9423058091A4029091A5020E94230589
:101450008091A2029091A3020E9423058091A10293
:10146000882309F442CD85E392E00E9457046091FD
:101470009D0270919E0280919F029091A0020E9415
:10148000590486E492E00E94570460919902709199
:101490009A0280919B0290919C020E94590484E5DB
:1014A00092E00E94570421CD20E530E040E050E07A
:1014B00060E080915F030E949703672B682B692B84
:1014C00009F45DCD20E530E040E050E061E080913E
:1014D0005F030E949703672B682B692B09F44FCD9C
:1014E000B12CA12C22E330E040E050E060E080919C
:1014F0005F030E94970324E630E040E050E061E0A3
:1015000080915F030E949703662349F1F50173E020
:10151000F595E7957A95E1F781E090E08C0F9D1FB6
:10152000E80FF91F8081880F91E06E3208F490E097
:10153000890F80839FEFA91AB90A28E2A216B10485
:1015400089F669814A81CB801C81862F840F8C0D9E
:10155000810F9D81891731F0E092610312CDF092E5
:1015600061030FCD80916003853109F486C0863117
:1015700009F4B9C08B3009F06AC070E090E080E0F7
:101580000E94C10C60936E0370936F03809370038D
:10159000909371036C2D70E090E080E00E94C30C8A
:1015A0004B015C0117FF56C01F77612F70E090E080
:1015B00080E00E94C30C2DEC3CEC4CEC5DE30E94FF
:1015C000780D9B01AC0160E070E080E89FE30E9431
:1015D000AE0BA50194010E94AF0B4B015C01B7FA61
:1015E000B094B7F8B0948092620390926303A09293
:1015F0006403B092650320E030E040E151E4C501AE
:10160000B4010E94780D20E030E040EA50E40E94EE
:10161000200C20E030E040E052E40E94AF0B6093E9
:10162000660370936703809368039093690323E3D1
:1016300033E948E853E4C501B4010E94AF0B60935D
:101640006A0370936B0380936C0390936D03109205
:10165000610397CC612F70E090E080E00E94C30CA2
:101660002DEC3CEC4CEC5DE30E94780DA50194015F
:101670000E94AF0B4B015C01B6CF262F30E0322F1A
:101680002227B901640F711D072E000C880B990BDE
:101690000E94C30C2DEC3CEC4CEC5DE30E94780DF9
:1016A00060936E0370936F03809370039093710344
:1016B0006C2D70E0762F662766277F77610F711D8E
:1016C000072E000C880B990B0E94C30C2DEC3CECF0
:1016D0004CEC5DEBC7FC04C02DEC3CEC4CEC5DE34A
:1016E0000E94780DC7CF862F90E0982F8827BC01E5
:1016F000C9CF8F3F29F181114ECC80916E0390911B
:101700006F03A0917003B09171038093990290933D
:101710009A02A0939B02B0939C02809162039091E5
:101720006303A0916403B091650380939D0290933D
:101730009E02A0939F02B093A0020093A1022BCC23
:1017400088E692E00E9406048AE792E00E9406047E
:101750001092A10220CC8DE792E0F4CF5058BB2725
:10176000AA270E94C60B0C94390D0E942B0D38F04D
:101770000E94320D20F039F49F3F19F426F40C94A6
:10178000280D0EF4E095E7FB0C94220DE92F0E9442
:101790004A0D58F3BA17620773078407950720F0BC
:1017A00079F4A6F50C946C0D0EF4E0950B2EBA2F7F
:1017B000A02D0B01B90190010C01CA01A001112457
:1017C000FF27591B99F0593F50F4503E68F11A1603
:1017D000F040A22F232F342F4427585FF3CF469594
:1017E00037952795A795F0405395C9F77EF41F16B6
:1017F000BA0B620B730B840BBAF09150A1F0FF0F80
:10180000BB1F661F771F881FC2F70EC0BA0F621F6B
:10181000731F841F48F4879577956795B795F7955B
:101820009E3F08F0B0CF9395880F08F09927EE0FF0
:101830009795879508950E94FE0C08F481E008951D
:101840000E94340C0C94390D0E94320D58F00E9405
:101850002B0D40F029F45F3F29F00C94220D51111B
:101860000C946D0D0C94280D0E944A0D68F3992379
:10187000B1F3552391F3951B550BBB27AA2762178C
:101880007307840738F09F5F5F4F220F331F441F99
:10189000AA1FA9F335D00E2E3AF0E0E832D09150CD
:1018A0005040E695001CCAF72BD0FE2F29D0660FBA
:1018B000771F881FBB1F261737074807AB07B0E8FD
:1018C00009F0BB0B802DBF01FF2793585F4F3AF003
:1018D0009E3F510578F00C94220D0C946D0D5F3FE6
:1018E000E4F3983ED4F3869577956795B795F79589
:1018F0009F5FC9F7880F911D9695879597F9089571
:10190000E1E0660F771F881FBB1F6217730784070C
:10191000BA0720F0621B730B840BBA0BEE1F88F71B
:10192000E09508950E94520D88F09F5798F0B92FC6
:101930009927B751B0F0E1F0660F771F881F991F04
:101940001AF0BA95C9F714C0B13091F00E946C0D2D
:10195000B1E008950C946C0D672F782F8827B85F3D
:1019600039F0B93FCCF3869577956795B395D9F75C
:101970003EF490958095709561957F4F8F4F9F4F66
:101980000895E89409C097FB3EF490958095709572
:1019900061957F4F8F4F9F4F9923A9F0F92F96E9BB
:1019A000BB279395F695879577956795B795F11130
:1019B000F8CFFAF4BB0F11F460FF1BC06F5F7F4FCD
:1019C0008F4F9F4F16C0882311F096E911C07723DF
:1019D00021F09EE8872F762F05C0662371F096E8E8
:1019E000862F70E060E02AF09A95660F771F881FB7
:1019F000DAF7880F9695879597F90895990F00085B
:101A0000550FAA0BE0E8FEEF16161706E807F907D0
:101A1000C0F012161306E407F50798F0621B730B6B
:101A2000840B950B39F40A2661F0232B242B252BEC
:101A300021F408950A2609F4A140A6958FEF811D8F
:101A4000811D089597F99F6780E870E060E0089530
:101A50009FEF80EC089500240A94161617061806C6
:101A60000906089500240A941216130614060506A2
:101A70000895092E0394000C11F4882352F0BB0F33
:101A800040F4BF2B11F460FF04C06F5F7F4F8F4F96
:101A90009F4F089557FD9058440F551F59F05F3FD1
:101AA00071F04795880F97FB991F61F09F3F79F080
:101AB00087950895121613061406551FF2CF469502
:101AC000F1DF08C0161617061806991FF1CF869584
:101AD0007105610508940895E894BB276627772768
:101AE000CB0197F908950E94FE0C08F48FEF08953A
:101AF0000E948B0D0C94390D0E942B0D38F00E9422
:101B0000320D20F0952311F00C94220D0C94280D29
:101B100011240C946D0D0E944A0D70F3959FC1F332
:101B2000950F50E0551F629FF001729FBB27F00D8B
:101B3000B11D639FAA27F00DB11DAA1F649F6627E0
:101B4000B00DA11D661F829F2227B00DA11D621F2F
:101B5000739FB00DA11D621F839FA00D611D221FE9
:101B6000749F3327A00D611D231F849F600D211DCD
:101B7000822F762F6A2F11249F5750409AF0F1F050
:101B800088234AF0EE0FFF1FBB1F661F771F881FB9
:101B900091505040A9F79E3F510580F00C94220DC2
:101BA0000C946D0D5F3FE4F3983ED4F386957795E2
:101BB0006795B795F795E7959F5FC1F7FE2B880F5F
:101BC000911D9695879597F908950E94FE0C880BB4
:101BD000990B0895A1E21A2EAA1BBB1BFD010DC093
:101BE000AA1FBB1FEE1FFF1FA217B307E407F507CD
:101BF00020F0A21BB30BE40BF50B661F771F881FA9
:101C0000991F1A9469F760957095809590959B013E
:101C1000AC01BD01CF010895EE0FFF1F881F8BBFE0
:0C1C20000790F691E02D1994F894FFCF86
:101C2C0000000000FE01680195015002C601A401EC
:101C3C00B8016E616E00696E66006F766600706941
:101C4C006E207374617465206368616E67652074BF
:101C5C006F20002C0020282074656D7065726174F3
:101C6C007572653A2000202F2068756D696469745F
:101C7C00793A20002029200070696E206973206E4B
:101C8C006F74207573656400202F20436865636B47
:101C9C0073756D206572726F72000D0A00202F2013
:101CAC0054696D65206F7574206572726F720000D7
:00000001FF
