:100000000C9435010C9466010C9466010C94660105
:100010000C9466010C9466010C9466010C946601C4
:100020000C9466010C9466010C9466010C946601B4
:100030000C9466010C9466010C9466010C946601A4
:100040000C9466010C9466010C9466010C94660194
:100050000C9466010C9466010C9466010C94BF0527
:100060000C9466010C9489050C945F050C94660150
:100070000C9466010C9466010C9466010C94660164
:100080000C9466010C9466010C9466010C94660154
:100090000C9466010C9466010C9466010C94660144
:1000A0000C9466010C9466010C9466010C94660134
:1000B0000C9466010C9466010C9466010C94660124
:1000C0000C9466010C9466010C9466010C94660114
:1000D0000C9466010C9466010C9466010C94660104
:1000E0000C9466010C94D4020C9400030C94DE0270
:1000F0000C94B8010C94C5020C94FA020C94C6013D
:100100000C9495010C94F6020C94BF020C94E4023A
:100110000C9468010C9404030C9450020C94E802B3
:100120000C94A4010C94D1020C94C9020C94FF020B
:100130000C9409060C94FE010C94CD020C94EC0274
:100140000C94F2020C94DA02000021002400270033
:100150002A002D00300033000101000004010701D6
:100160000A0100002200250028002B002E0031008B
:10017000340002010000050108010B01000020000D
:100180002300260029002C002F003200000100006F
:10019000030106010901050505050705080808080A
:1001A000020202020A0A080804040404010101010F
:1001B000010101010303030303030303040707070A
:1001C0000C0C0C0C0C0C0C0C0202020206060606AF
:1001D000060606060B0B0B0B0B0B0B0B010210207C
:1001E000200808102040102040800201020108046D
:1001F0000201010204081020408080402010080401
:100200000201800402018040201008040201080459
:10021000020101020408102040800102040810209D
:10022000408000000A0B02090C0D0E0807030401B0
:1002300000000000000000000000000000000000BE
:10024000000000000000000000000000000012118B
:10025000100000000000000000000000000000008E
:100260000000000000000000090611241FBECFEFAF
:10027000D1E2DEBFCDBF00E00CBF12E0A0E0B2E0F3
:10028000E4E1FCE100E00BBF02C007900D92AC3A44
:10029000B107D9F723E0ACEAB2E001C01D92AE3855
:1002A000B207E1F711E0C5E3D1E000E006C0219715
:1002B0000109802FFE010E94000EC433D10780E0A7
:1002C0000807A9F70E943C060C94080E0C94000045
:1002D000AF92BF92CF92DF92EF92FF920F931F9354
:1002E000CF93DF936C017B018B01040F151FEB0192
:1002F0005E01AE18BF08C017D10759F06991D60149
:10030000ED91FC910190F081E02DC6011995892BAA
:1003100079F7C501DF91CF911F910F91FF90EF9079
:10032000DF90CF90BF90AF900895FC01538D448D26
:10033000252F30E0842F90E0821B930B541710F090
:10034000CF96089501970895FC01918D828D98179D
:1003500061F0A28DAE0FBF2FB11D5D968C91928D75
:100360009F5F9F73928F90E008958FEF9FEF0895A6
:10037000FC01918D828D981731F0828DE80FF11D6F
:10038000858D90E008958FEF9FEF0895FC01918D8A
:10039000228D892F90E0805C9F4F821B91098F7383
:1003A000992708958EED92E00E94C60121E0892BE5
:1003B00009F420E0822F0895FC01A48DA80FB92F25
:1003C000B11DA35ABF4F2C91848D90E001968F737D
:1003D0009927848FA689B7892C93A089B1898C919C
:1003E000837080648C93938D848D981306C00288EB
:1003F000F389E02D80818F7D80830895EF92FF92B5
:100400000F931F93CF93DF93EC0181E0888F9B8D37
:100410008C8D98131AC0E889F989808185FF15C0F1
:100420009FB7F894EE89FF896083E889F989808114
:100430008370806480839FBF81E090E0DF91CF91E3
:100440001F910F91FF90EF900895F62E0B8D10E005
:100450000F5F1F4F0F731127E02E8C8D8E110CC074
:100460000FB607FCFACFE889F989808185FFF5CFBF
:10047000CE010E94DC01F1CFEB8DEC0FFD2FF11DC1
:10048000E35AFF4FF0829FB7F8940B8FEA89FB89FC
:1004900080818062CFCF682F8EED92E00C94FE01B8
:1004A000CF93DF93EC01888D8823B9F0AA89BB89AB
:1004B000E889F9898C9185FD03C0808186FD0DC096
:1004C0000FB607FCF7CF8C9185FFF2CF808185FFB7
:1004D000EDCFCE010E94DC01E9CFDF91CF910895ED
:1004E00080E090E0892B29F00E94D20181110E94C6
:1004F000000080E090E0892B49F080E090E0892BBB
:1005000029F00E94000081110E94000080E090E02C
:10051000892B49F080E090E0892B29F00E940000AF
:1005200081110E94000080E090E0892B49F080E07A
:1005300090E0892B29F00E94000081110C940000AA
:1005400008958150823108F05AC0E82FF0E08827E2
:10055000E355FD4F8F4F0C94000ECD02D102BF0228
:10056000C502C902FF02D402DA02DE02E402E80296
:10057000EC02F202F602FF02FA0200030403809189
:1005800080008F77809380000895809180008F7D18
:10059000F9CF80918000877FF5CF84B58F7784BDB8
:1005A000089584B58F7DFBCF8091B0008F778093C5
:1005B000B00008958091B0008F7DF9CF80919000B8
:1005C0008F77809390000895809190008F7DF9CF70
:1005D00080919000877FF5CF8091A0008F778093E6
:1005E000A00008958091A0008F7DF9CF8091A00098
:1005F000877FF5CF809120018F7780932001089528
:10060000809120018F7DF9CF80912001877FF5CFE8
:100610001F93CF93DF93282F30E0F901EE5DFD4F5C
:100620008491F901E452FE4FD491F901EA56FE4F4C
:10063000C491CC23A9F0162F81110E94A102EC2FA6
:10064000F0E0EE0FFF1FEE59FE4FA591B4918FB76A
:10065000F894EC91111108C0D095DE23DC938FBF84
:10066000DF91CF911F910895DE2BF8CFCF93DF93C9
:1006700090E0FC01E452FE4F24918A569E4FFC010B
:1006800084918823C9F090E0880F991FFC01E85BF2
:10069000FE4FA591B491FC01EE59FE4FC591D49146
:1006A00061110DC09FB7F8948C91209582238C9393
:1006B0008881282328839FBFDF91CF9108956230DE
:1006C00051F49FB7F8943C91822F809583238C93AB
:1006D000E8812E2BEFCF8FB7F894EC912E2B2C9333
:1006E0008FBFEACF3FB7F8948091B1029091B202E8
:1006F000A091B302B091B40226B5A89B05C02F3FCC
:1007000019F00196A11DB11D3FBFBA2FA92F982F37
:100710008827BC01CD01620F711D811D911D42E032
:10072000660F771F881F991F4A95D1F708952F925A
:100730003F924F925F926F927F928F929F92AF9271
:10074000BF92CF92DF92EF92FF920F931F93CF93BE
:10075000DF93C82F062F49015A010E9472036B01D3
:100760007C01D0E0CE018E5D9D4F2C01FE01E45254
:10077000FE4F3F01CA56DE4F10E0F2018491F301B3
:100780003490FE012490222029F181110E94A102BF
:10079000E22DF0E0EE0FFF1FE458FE4FA591B4915B
:1007A0008C91382231E020E009F430E0832F922F41
:1007B0000817190791F40E9472036C197D098E09BC
:1007C0009F0986169706A806B906B8F660E070E09D
:1007D000CB0109C090E080E0EBCF0E9472036C195E
:1007E0007D098E099F09DF91CF911F910F91FF9095
:1007F000EF90DF90CF90BF90AF909F908F907F90C1
:100800006F905F904F903F902F900895FC01019062
:100810000020E9F73197AF01481B590BBC018EED61
:1008200092E00C9468018F929F92AF92BF920F93C7
:100830001F93CF93DF93CDB7DEB7A1970FB6F89490
:10084000DEBF0FBECDBF19A2423008F44AE08E01D0
:100850000F5D1F4F842E912CB12CA12CA50194016A
:100860000E94DE0DE62FB901CA01EA30F4F4E05D22
:10087000D801EE938D01232B242B252B79F790E0C3
:1008800080E0109719F0CD010E940604A1960FB6E2
:10089000F894DEBF0FBECDBFDF91CF911F910F91B6
:1008A000BF90AF909F908F900895E95CE1CFCF9378
:1008B000DF930E940604EC0182E192E00E940604AC
:1008C0008C0F9D1FDF91CF9108950C9406044F92D9
:1008D0005F926F927F928F929F92AF92BF92CF92D0
:1008E000DF92EF92FF926B017C01AC019B010E94B1
:1008F000D90D882381F085E192E0FF90EF90DF90A1
:10090000CF90BF90AF909F908F907F906F905F90AF
:100910004F900C94060446015701E894B7F82FEF66
:100920003FEF4FE75FE7C501B4010E94D90D811188
:100930000DC02FEF3FEF4FE75FE7C501B4010E9405
:100940000F0C18161CF489E192E0D7CF2FEF3FEF80
:100950004FE75FE4C701B6010E94670D18161CF44B
:100960008DE192E0CACF2FEF3FEF4FE75FECC70179
:10097000B6010E940F0C87FDF3CF20E030E0A90103
:10098000C701B6010E940F0CB12CA12C87FF08C033
:100990008DE20E944B025C01F7FAF094F7F8F094B4
:1009A0002AE037ED43EA5BE3C701B6010E94A30BDF
:1009B0002B013C010E94860C6B017C010E94B50C4E
:1009C0009B01AC01C301B2010E94A20B2B013C01AF
:1009D0004AE0C701B6010E9413047C01EA0CFB1C2B
:1009E0008EE20E944B02E80EF91E20E030E040E269
:1009F00051E4C301B2010E946C0D2B013C010E9425
:100A0000860C4B01B12CA12C4AE0C501B4010E9417
:100A10001304E80EF91EC501B4010E94B50C9B0138
:100A2000AC01C301B2010E94A20B20E030E040E221
:100A300051E40E946C0D0E94860C90E080E04AE038
:100A40000E9413048E0D9F1DFF90EF90DF90CF90BA
:100A5000BF90AF909F908F907F906F905F904F90DE
:100A60000895CF92DF92EF92FF92CF93DF936C01C4
:100A7000990FEE08FF08F7FE17C08DE20E944B02A7
:100A8000EC0166277727CB016C197D098E099F0938
:100A90004AE00E9413048C0F9D1FDF91CF91FF90BD
:100AA000EF90DF90CF9008954AE0C701B601DF9143
:100AB000CF91FF90EF90DF90CF900C9413041F9292
:100AC0000F920FB60F9211240BB60F922F933F93F4
:100AD0004F935F936F937F938F939F93AF93BF9346
:100AE000EF93FF938EED92E00E94DC01FF91EF9176
:100AF000BF91AF919F918F917F916F915F914F9136
:100B00003F912F910F900BBE0F900FBE0F901F9033
:100B100018951F920F920FB60F9211240BB60F92D9
:100B20002F938F939F93EF93FF93E091EE02F091B9
:100B3000EF028081E091F402F091F50282FD1DC088
:100B400090818091F7028F5F8F732091F802821756
:100B500041F0E091F702F0E0E252FD4F958F809373
:100B6000F702FF91EF919F918F912F910F900BBE04
:100B70000F900FBE0F901F9018958081F2CF1F929B
:100B80000F920FB60F9211242F933F938F939F9341
:100B9000AF93BF938091AD029091AE02A091AF024E
:100BA000B091B0023091AC0223E0230F2D3758F5FD
:100BB0000196A11DB11D2093AC028093AD029093CC
:100BC000AE02A093AF02B093B0028091B1029091B7
:100BD000B202A091B302B091B4020196A11DB11D61
:100BE0008093B1029093B202A093B302B093B40287
:100BF000BF91AF919F918F913F912F910F900FBE19
:100C00000F901F90189526E8230F0296A11DB11D85
:100C1000D2CFEEEDF2E01382128288EE93E0A0E0F4
:100C2000B0E084839583A683B78384E092E09183C8
:100C3000808385EC90E09587848784EC90E09787AB
:100C4000868780EC90E0918B808B81EC90E0938B99
:100C5000828B82EC90E0958B848B86EC90E0978B76
:100C6000868B118E128E138E148EEBE7F3E082E0EA
:100C700080838BE081830895CF93DF9300D01F9210
:100C80001F92CDB7DEB7789484B5826084BD84B5F9
:100C9000816084BD85B5826085BD85B5816085BD77
:100CA00080916E00816080936E001092810080912F
:100CB00081008260809381008091810081608093B7
:100CC0008100809180008160809380008091B100DC
:100CD00084608093B1008091B00081608093B00007
:100CE0008091910082608093910080919100816059
:100CF000809391008091900081608093900080911A
:100D0000A10082608093A1008091A1008160809306
:100D1000A1008091A00081608093A00080912101BA
:100D20008260809321018091210181608093210163
:100D30008091200181608093200180917A008460FD
:100D400080937A0080917A00826080937A0080910B
:100D50007A00816080937A0080917A008068809325
:100D60007A001092C100E091EE02F091EF0282E071
:100D70008083E091EA02F091EB021082E091EC02B4
:100D8000F091ED028FEC80831092F602E091F20276
:100D9000F091F30286E08083E091F002F091F1029D
:100DA000808180618083E091F002F091F102808186
:100DB00088608083E091F002F091F1028081806888
:100DC0008083E091F002F091F10280818F7D808339
:100DD00060E082E00E94360361E083E00E94360317
:100DE00061E084E00E94360361E085E00E94360302
:100DF00061E086E00E94360361E087E00E943603EE
:100E000061E088E00E94360361E089E00E943603D9
:100E100061E08AE00E94360361E08BE00E943603C5
:100E200061E08CE00E94360361E08DE00E943603B1
:100E300061E08EE00E94360361E08FE00E9436039D
:100E400061E080E10E94360361E081E10E943603A7
:100E500061E082E10E94360361E083E10E94360393
:100E600001E0FEEFFF2EEE24EA94ADEFDA2E8EEDD8
:100E700092E00E94C601892BD1F38EED92E00E9490
:100E8000A4018336910509F4C4C10CF073C0883302
:100E9000910509F48AC15CF58533910509F451C1C6
:100EA00034F4C49709F4D5C089E592E0EFC28633E3
:100EB000910509F460C1C797B9F761E08091D60246
:100EC0009091D702892B09F060E0862F90E09093F3
:100ED000D7028093D60287E00E94080381E292E065
:100EE0000E9465048091D6029091D702CBC08F33C7
:100EF000910509F4C9C0E4F4C997B1F661E08091A5
:100F0000D2029091D302892B09F060E0862F90E005
:100F10009093D3028093D20289E00E94080381E279
:100F200092E00E9465048091D2029091D302AAC0FF
:100F30008136910509F453C18236910509F0B4CF89
:100F400061E08091CE029091CF02892B09F060E0A0
:100F5000862F90E09093CF028093CE028BE00E9488
:100F6000080381E292E00E9465048091CE02909194
:100F7000CF0288C08836910509F4E7C144F585366B
:100F8000910509F47AC10CF45EC18636910509F425
:100F90008EC18736910509F087CF61E08091C40248
:100FA0009091C502892B09F060E0862F90E0909324
:100FB000C5028093C40280E10E94080381E292E0AE
:100FC0000E9465048091C4029091C5025BC08B367B
:100FD000910509F4A0C114F58936910509F481C180
:100FE0008A36910509F060CF61E08091C00290914E
:100FF000C102892B09F060E0862F90E09093C10236
:101000008093C00282E10E94080381E292E00E9484
:1010100065048091C0029091C10234C0833791056C
:1010200009F4A5C18437910509F03ECF8091BD0236
:10103000882351F189E392E00E9465046091B9022E
:101040007091BA028091BB029091BC020E94670429
:101050001BC061E08091DC029091DD02892B09F0D8
:1010600060E0862F90E09093DD028093DC0284E0C4
:101070000E94080381E292E00E9465048091DC02F4
:101080009091DD020E94310561E083E00E94080337
:1010900019821A821B821C821D8261E080917B036F
:1010A0000E94360360E080917B030E9408030E9447
:1010B00072032B013C01E2E18E2E912CA12CB12C6C
:1010C0000E9472036419750986099709683E734086
:1010D00081059105A8F321E0821A9108A108B108C1
:1010E00088EE480E83E0581E611C711C8114910427
:1010F000A104B10429F762E080917B030E943603CA
:1011000028E230E040E050E061E080917B030E9403
:101110009703672B682B692B09F0BBC1D0927D0325
:1011200080917D038E3F09F407C30CF0D7C28D3F39
:1011300009F405C360E083E00E9408030E94700286
:1011400096CE61E08091DA029091DB02892B09F062
:1011500060E0862F90E09093DB028093DA0285E0D6
:101160000E94080381E292E00E9465048091DA0205
:101170009091DB0287CF61E08091D8029091D902F3
:10118000892B09F060E0862F90E09093D90280933C
:10119000D80286E00E94080381E292E00E94650482
:1011A0008091D8029091D9026DCF61E08091D402F4
:1011B0009091D502892B09F060E0862F90E0909302
:1011C000D5028093D40288E00E94080381E292E075
:1011D0000E9465048091D4029091D50253CF61E0C2
:1011E0008091D0029091D102892B09F060E0862F86
:1011F00090E09093D1028093D0028AE00E9408038D
:1012000081E292E00E9465048091D0029091D10227
:1012100039CF61E08091CC029091CD02892B09F009
:1012200060E0862F90E09093CD028093CC028CE01A
:101230000E94080381E292E00E9465048091CC0242
:101240009091CD021FCF61E08091CA029091CB02B4
:10125000892B09F060E0862F90E09093CB02809379
:10126000CA028DE00E94080381E292E00E946504B8
:101270008091CA029091CB0205CF61E08091C802B3
:101280009091C902892B09F060E0862F90E090933D
:10129000C9028093C8028EE00E94080381E292E0B6
:1012A0000E9465048091C8029091C902EBCE61E072
:1012B0008091C6029091C702892B09F060E0862FC9
:1012C00090E09093C7028093C6028FE00E940803CB
:1012D00081E292E00E9465048091C6029091C7026B
:1012E000D1CE61E08091C2029091C302892B09F0B6
:1012F00060E0862F90E09093C3028093C20281E168
:101300000E94080381E292E00E9465048091C2027B
:101310009091C302B7CE61E08091BE029091BF026E
:10132000892B09F060E0862F90E09093BF028093B4
:10133000BE0283E10E94080381E292E00E946504FC
:101340008091BE029091BF029DCE8091BD02882304
:1013500009F49ACE8AE492E00E9465046091B50295
:101360007091B6028091B7029091B8026FCE80E37F
:101370000E944B0280E30E944B0280E30E944B02DA
:1013800080E30E944B028091DC029091DD020E947A
:1013900031058091DA029091DB020E943105809143
:1013A000D8029091D9020E9431058091D602909185
:1013B000D7020E9431058091D4029091D5020E94FB
:1013C00031058091D2029091D3020E943105809123
:1013D000D0029091D1020E9431058091CE0290916D
:1013E000CF020E9431058091CC029091CD020E94E3
:1013F00031058091CA029091CB020E943105809103
:10140000C8029091C9020E9431058091C602909154
:10141000C7020E9431058091C4029091C5020E94CA
:1014200031058091C2029091C3020E9431058091E2
:10143000C0029091C1020E9431058091BE0290913C
:10144000BF020E9431058091BD02882309F41CCEA1
:1014500086E392E00E9465046091B9027091BA023D
:101460008091BB029091BC020E94670487E492E0E5
:101470000E9465046091B5027091B6028091B70236
:101480009091B8020E94670485E592E00E9465048D
:10149000FBCD20E530E040E050E060E080917B0350
:1014A0000E949703672B682B692B09F437CE20E540
:1014B00030E040E050E061E080917B030E949703C0
:1014C000672B682B692B09F429CEB12CA12C22E3C0
:1014D00030E040E050E060E080917B030E949703A1
:1014E00024E630E040E050E061E080917B030E9420
:1014F0009703662349F1F50173E0F595E7957A9531
:10150000E1F781E090E08C0F9D1FE80FF91F8081CB
:10151000880F91E06E3208F490E0890F80839FEF8E
:10152000A91AB90A28E2A216B10489F669814A818A
:10153000CB801C81862F840F8C0D810F9D81891794
:1015400031F0E0927D03ECCDF0927D03E9CD809106
:101550007C03853109F486C0863109F4B9C08B302B
:1015600009F06AC070E090E080E00E94B50C6093E2
:101570008A0370938B0380938C0390938D036C2D5F
:1015800070E090E080E00E94B70C4B015C0117FF17
:1015900056C01F77612F70E090E080E00E94B70C8A
:1015A0002DEC3CEC4CEC5DE30E946C0D9B01AC011E
:1015B00060E070E080E89FE30E94A20BA501940127
:1015C0000E94A30B4B015C01B7FAB094B7F8B0943A
:1015D00080927E0390927F03A0928003B092810359
:1015E00020E030E040E151E4C501B4010E946C0DFF
:1015F00020E030E040EA50E40E94140C20E030E0AB
:1016000040E052E40E94A30B609382037093830333
:10161000809384039093850323E333E948E853E4FC
:10162000C501B4010E94A30B6093860370938703E6
:10163000809388039093890310927D0371CD612F6D
:1016400070E090E080E00E94B70C2DEC3CEC4CEC9C
:101650005DE30E946C0DA50194010E94A30B4B0158
:101660005C01B6CF262F30E0322F2227B901640F5C
:10167000711D072E000C880B990B0E94B70C2DECE6
:101680003CEC4CEC5DE30E946C0D60938A0370931C
:101690008B0380938C0390938D036C2D70E0762FD9
:1016A000662766277F77610F711D072E000C880B58
:1016B000990B0E94B70C2DEC3CEC4CEC5DEBC7FC9D
:1016C00004C02DEC3CEC4CEC5DE30E946C0DC7CFEC
:1016D000862F90E0982F8827BC01C9CF8F3F29F132
:1016E000811128CD80918A0390918B03A0918C0366
:1016F000B0918D038093B5029093B602A093B70288
:10170000B093B80280917E0390917F03A0918003F3
:10171000B09181038093B9029093BA02A093BB0267
:10172000B093BC020093BD0205CD89E692E00E9411
:1017300057041092BD02FECC8BE792E0F8CF8DE803
:1017400092E0F5CF5058BB27AA270E94BA0B0C9401
:101750002D0D0E941F0D38F00E94260D20F039F447
:101760009F3F19F426F40C941C0D0EF4E095E7FB52
:101770000C94160DE92F0E943E0D58F3BA1762071C
:1017800073078407950720F079F4A6F50C94600D93
:101790000EF4E0950B2EBA2FA02D0B01B90190018C
:1017A0000C01CA01A0011124FF27591B99F0593FD0
:1017B00050F4503E68F11A16F040A22F232F342F18
:1017C0004427585FF3CF469537952795A795F04066
:1017D0005395C9F77EF41F16BA0B620B730B840B7B
:1017E000BAF09150A1F0FF0FBB1F661F771F881F33
:1017F000C2F70EC0BA0F621F731F841F48F487958B
:1018000077956795B795F7959E3F08F0B0CF93957C
:10181000880F08F09927EE0F9795879508950E94F5
:10182000F20C08F481E008950E94280C0C942D0D10
:101830000E94260D58F00E941F0D40F029F45F3FD2
:1018400029F00C94160D51110C94610D0C941C0D83
:101850000E943E0D68F39923B1F3552391F3951B34
:10186000550BBB27AA2762177307840738F09F5FC1
:101870005F4F220F331F441FAA1FA9F335D00E2E2E
:101880003AF0E0E832D091505040E695001CCAF79B
:101890002BD0FE2F29D0660F771F881FBB1F26175E
:1018A00037074807AB07B0E809F0BB0B802DBF0135
:1018B000FF2793585F4F3AF09E3F510578F00C9404
:1018C000160D0C94610D5F3FE4F3983ED4F38695BA
:1018D00077956795B795F7959F5FC9F7880F911D25
:1018E0009695879597F90895E1E0660F771F881F11
:1018F000BB1F621773078407BA0720F0621B730BC4
:10190000840BBA0BEE1F88F7E09508950E94460DF0
:1019100088F09F5798F0B92F9927B751B0F0E1F0B0
:10192000660F771F881F991F1AF0BA95C9F714C060
:10193000B13091F00E94600DB1E008950C94600DFB
:10194000672F782F8827B85F39F0B93FCCF3869599
:1019500077956795B395D9F73EF4909580957095F6
:1019600061957F4F8F4F9F4F0895E89409C097FB73
:101970003EF490958095709561957F4F8F4F9F4F66
:101980009923A9F0F92F96E9BB279395F6958795AA
:1019900077956795B795F111F8CFFAF4BB0F11F46D
:1019A00060FF1BC06F5F7F4F8F4F9F4F16C0882314
:1019B00011F096E911C0772321F09EE8872F762F4A
:1019C00005C0662371F096E8862F70E060E02AF08B
:1019D0009A95660F771F881FDAF7880F9695879577
:1019E00097F90895990F0008550FAA0BE0E8FEEF4C
:1019F00016161706E807F907C0F012161306E407D3
:101A0000F50798F0621B730B840B950B39F40A26CB
:101A100061F0232B242B252B21F408950A2609F4A9
:101A2000A140A6958FEF811D811D089597F99F67AD
:101A300080E870E060E008959FEF80EC0895002456
:101A40000A941616170618060906089500240A9423
:101A500012161306140605060895092E0394000CA9
:101A600011F4882352F0BB0F40F4BF2B11F460FF38
:101A700004C06F5F7F4F8F4F9F4F089557FD905861
:101A8000440F551F59F05F3F71F04795880F97FB42
:101A9000991F61F09F3F79F08795089512161306FC
:101AA0001406551FF2CF4695F1DF08C0161617062B
:101AB0001806991FF1CF8695710561050894089560
:101AC000E894BB2766277727CB0197F908950E94F2
:101AD000F20C08F48FEF08950E947F0D0C942D0DE9
:101AE0000E941F0D38F00E94260D20F0952311F062
:101AF0000C94160D0C941C0D11240C94610D0E9475
:101B00003E0D70F3959FC1F3950F50E0551F629FF6
:101B1000F001729FBB27F00DB11D639FAA27F00D46
:101B2000B11DAA1F649F6627B00DA11D661F829F6D
:101B30002227B00DA11D621F739FB00DA11D621F52
:101B4000839FA00D611D221F749F3327A00D611D6F
:101B5000231F849F600D211D822F762F6A2F112451
:101B60009F5750409AF0F1F088234AF0EE0FFF1F84
:101B7000BB1F661F771F881F91505040A9F79E3FDB
:101B8000510580F00C94160D0C94610D5F3FE4F349
:101B9000983ED4F3869577956795B795F795E79531
:101BA0009F5FC1F7FE2B880F911D9695879597F93A
:101BB00008950E94F20C880B990B0895A1E21A2E49
:101BC000AA1BBB1BFD010DC0AA1FBB1FEE1FFF1FE1
:101BD000A217B307E407F50720F0A21BB30BE40B31
:101BE000F50B661F771F881F991F1A9469F7609578
:101BF0007095809590959B01AC01BD01CF01089532
:101C0000EE0FFF1F881F8BBF0790F691E02D1994F0
:041C1000F894FFCF76
:101C140000000000FE01680195015002C601A40104
:101C2400B8010D0A006E616E00696E66006F76661B
:101C34000070696E207374617465206368616E67F7
:101C44006520746F200020282074656D70657261B2
:101C5400747572653A2000202F2068756D69646977
:101C640074793A20002029200070696E206973205D
:101C74006E6F74207573656400202F20436865635C
:101C84006B73756D206572726F7200202F2054691A
:101C94006D65206F7574206572726F7200202F203D
:101CA40044485478782053656E736F72206E6F7455
:0C1CB40020636F6E6E6563746564000051
:00000001FF
