:100000000C9462000C948A000C948A000C948A0070
:100010000C948A000C948A000C948A000C948A0038
:100020000C948A000C948A000C948A000C948A0028
:100030000C948A000C948A000C948A000C948A0018
:100040000C9468040C948A000C9436040C941004EC
:100050000C948A000C948A000C948A000C948A00F8
:100060000C948A000C948A000000000024002700F1
:100070002A0000000000250028002B0000000000DE
:1000800023002600290004040404040404040202DA
:100090000202020203030303030301020408102007
:1000A0004080010204081020010204081020000012
:1000B0000008000201000003040700000000000027
:1000C0000000B20411241FBECFEFD8E0DEBFCDBFC9
:1000D00011E0A0E0B1E0E6E5F9E102C005900D9283
:1000E000A039B107D9F722E0A0E9B1E001C01D9223
:1000F000A237B207E1F710E0C2E6D0E004C02197D2
:10010000FE010E94A30CC136D107C9F70E94E50485
:100110000C94A90C0C940000AF92BF92CF92DF9286
:10012000EF92FF920F931F93CF93DF936C017B01AC
:100130008B01040F151FEB015E01AE18BF08C0173D
:10014000D10759F06991D601ED91FC910190F081B0
:10015000E02DC6010995892B79F7C501DF91CF9173
:100160001F910F91FF90EF90DF90CF90BF90AF90D5
:100170000895FC01538D448D252F30E0842F90E0AD
:10018000821B930B541710F0CF9608950197089592
:10019000FC01918D828D981761F0A28DAE0FBF2F5B
:1001A000B11D5D968C91928D9F5F9F73928F90E0B1
:1001B00008958FEF9FEF0895FC01918D828D981720
:1001C00031F0828DE80FF11D858D90E008958FEF5D
:1001D0009FEF0895FC01918D228D892F90E0805C26
:1001E0009F4F821B91098F739927089582EC91E0AC
:1001F0000E94EA0021E0892B09F420E0822F089573
:1002000080E090E0892B29F00E94F60081110C9487
:1002100000000895FC01A48DA80FB92FB11DA35AA9
:10022000BF4F2C91848D90E001968F739927848F16
:10023000A689B7892C93A089B1898C918370806439
:100240008C93938D848D981306C00288F389E02DDA
:1002500080818F7D80830895EF92FF920F931F938B
:10026000CF93DF93EC0181E0888F9B8D8C8D981369
:100270001AC0E889F989808185FF15C09FB7F89475
:10028000EE89FF896083E889F989808183708064C1
:1002900080839FBF81E090E0DF91CF911F910F910C
:1002A000FF90EF900895F62E0B8D10E00F5F1F4F1B
:1002B0000F731127E02E8C8D8E110CC00FB607FC2A
:1002C000FACFE889F989808185FFF5CFCE010E94B8
:1002D0000A01F1CFEB8DEC0FFD2FF11DE35AFF4F1B
:1002E000F0829FB7F8940B8FEA89FB898081806246
:1002F000CFCF682F82EC91E00C942C01CF93DF9349
:10030000EC01888D8823B9F0AA89BB89E889F9892D
:100310008C9185FD03C0808186FD0DC00FB607FC62
:10032000F7CF8C9185FFF2CF808185FFEDCFCE0195
:100330000E940A01E9CFDF91CF910895833081F0C7
:1003400028F4813099F08230A9F008958730A9F01F
:100350008830C9F08430B1F4809180008F7D03C073
:10036000809180008F7780938000089584B58F7787
:1003700084BD089584B58F7DFBCF8091B0008F77C9
:100380008093B00008958091B0008F7DF9CF1F93C6
:10039000CF93DF93282F30E0F901E255FF4F84918E
:1003A000F901E656FF4FD491F901EA57FF4FC49186
:1003B000CC23A9F0162F81110E949E01EC2FF0E0B2
:1003C000EE0FFF1FEE58FF4FA591B4918FB7F89431
:1003D000EC91111108C0D095DE23DC938FBFDF9123
:1003E000CF911F910895DE2BF8CFCF93DF9390E04C
:1003F000FC01E656FF4F24918A579F4FFC018491E0
:100400008823C9F090E0880F991FFC01E859FF4F3D
:10041000A591B491FC01EE58FF4FC591D4916111A3
:100420000DC09FB7F8948C91209582238C9388817E
:10043000282328839FBFDF91CF910895623051F424
:100440009FB7F8943C91822F809583238C93E88109
:100450002E2BEFCF8FB7F894EC912E2B2C938FBFD0
:10046000EACF3FB7F8948091950190919601A091C1
:100470009701B091980126B5A89B05C02F3F19F0B0
:100480000196A11DB11D3FBFBA2FA92F982F882714
:10049000BC01CD01620F711D811D911D42E0660FEF
:1004A000771F881F991F4A95D1F708952F923F9281
:1004B0004F925F926F927F928F929F92AF92BF9274
:1004C000CF92DF92EF92FF920F931F93CF93DF9320
:1004D000C82F062F49015A010E9431026B017C018D
:1004E000D0E0CE0182559F4F2C01FE01E656FF4F12
:1004F0003F01CA57DF4F10E0F2018491F3013490BD
:10050000FE012490222029F181110E949E01E22DFA
:10051000F0E0EE0FFF1FE458FF4FA591B4918C91CE
:10052000382231E020E009F430E0832F922F0817C1
:10053000190791F40E9431026C197D098E099F09F7
:1005400086169706A806B906B8F660E070E0CB01FB
:1005500009C090E080E0EBCF0E9431026C197D0968
:100560008E099F09DF91CF911F910F91FF90EF901E
:10057000DF90CF90BF90AF909F908F907F906F90C3
:100580005F904F903F902F900895FC0101900020C4
:10059000E9F73197AF01481B590BBC0182EC91E0A0
:1005A0000C948C008F929F92AF92BF920F931F93E7
:1005B000CF93DF93CDB7DEB7A1970FB6F894DEBF28
:1005C0000FBECDBF19A2423008F44AE08E010F5D84
:1005D0001F4F842E912CB12CA12CA50194010E94B7
:1005E000810CE62FB901CA01EA30F4F4E05DD801CC
:1005F000EE938D01232B242B252B79F790E080E0BF
:10060000109719F0CD010E94C502A1960FB6F8947B
:10061000DEBF0FBECDBFDF91CF911F910F91BF9075
:10062000AF909F908F900895E95CE1CF0C94C50244
:100630004F925F926F927F928F929F92AF92BF92F2
:10064000CF92DF92EF92FF926B017C01AC019B0194
:100650000E947C0C882381F082E191E0FF90EF9072
:10066000DF90CF90BF90AF909F908F907F906F90D2
:100670005F904F900C94C50246015701E894B7F87B
:100680002FEF3FEF4FE75FE7C501B4010E947C0CFD
:1006900081110DC02FEF3FEF4FE75FE7C501B401B8
:1006A0000E94B20A18161CF486E191E0D7CF2FEF12
:1006B0003FEF4FE75FE4C701B6010E940A0C18162E
:1006C0001CF48AE191E0CACF2FEF3FEF4FE75FECD8
:1006D000C701B6010E94B20A87FDF3CF20E030E0E7
:1006E000A901C701B6010E94B20AB12CA12C87FF53
:1006F00008C08DE20E9479015C01F7FAF094F7F8E6
:10070000F0942AE037ED43EA5BE3C701B6010E94AB
:10071000460A2B013C010E94290B6B017C010E94BF
:10072000580B9B01AC01C301B2010E94450A2B0189
:100730003C014AE0C701B6010E94D2027C01EA0CEA
:10074000FB1C8EE20E947901E80EF91E20E030E0E9
:1007500040E251E4C301B2010E940F0C2B013C01A5
:100760000E94290B4B01B12CA12C4AE0C501B40118
:100770000E94D202E80EF91EC501B4010E94580B76
:100780009B01AC01C301B2010E94450A20E030E0A8
:1007900040E251E40E940F0C0E94290B90E080E09F
:1007A0004AE00E94D2028E0D9F1DFF90EF90DF90D5
:1007B000CF90BF90AF909F908F907F906F905F9001
:1007C0004F900895CF92DF92EF92FF92CF93DF93F5
:1007D0006C01990FEE08FF08F7FE17C08DE20E942A
:1007E0007901EC0166277727CB016C197D098E0909
:1007F0009F094AE00E94D2028C0F9D1FDF91CF918A
:10080000FF90EF90DF90CF9008954AE0C701B601C6
:10081000DF91CF91FF90EF90DF90CF900C94D202B8
:100820001F920F920FB60F9211242F933F934F9365
:100830005F936F937F938F939F93AF93BF93EF9348
:10084000FF9382EC91E00E940A01FF91EF91BF912A
:10085000AF919F918F917F916F915F914F913F9158
:100860002F910F900FBE0F901F9018951F920F920F
:100870000FB60F9211242F938F939F93EF93FF93B3
:10088000E091D201F091D3018081E091D801F09103
:10089000D90182FD1BC090818091DB018F5F8F7336
:1008A0002091DC01821741F0E091DB01F0E0EE5392
:1008B000FE4F958F8093DB01FF91EF919F918F9178
:1008C0002F910F900FBE0F901F9018958081F4CF3D
:1008D0001F920F920FB60F9211242F933F938F9375
:1008E0009F93AF93BF938091910190919201A091BA
:1008F0009301B09194013091900123E0230F2D37A3
:1009000058F50196A11DB11D20939001809391018E
:1009100090939201A0939301B093940180919501DB
:1009200090919601A0919701B09198010196A11D17
:10093000B11D8093950190939601A0939701B09378
:100940009801BF91AF919F918F913F912F910F90FF
:100950000FBE0F901F90189526E8230F0296A11D39
:10096000B11DD2CFE2ECF1E01382128288EE93E067
:10097000A0E0B0E084839583A683B78384E091E010
:100980009183808385EC90E09587848784EC90E068
:100990009787868780EC90E0918B808B81EC90E04C
:1009A000938B828B82EC90E0958B848B86EC90E02D
:1009B000978B868B118E128E138E148EEFE5F2E0DC
:1009C00082E0808386E181830895CF93DF9300D016
:1009D00000D01F92CDB7DEB7789484B5826084BD15
:1009E00084B5816084BD85B5826085BD85B5816033
:1009F00085BD80916E00816080936E0010928100B1
:100A0000809181008260809381008091810081606B
:100A1000809381008091800081608093800080912C
:100A2000B10084608093B1008091B00081608093B8
:100A3000B00080917A00846080937A0080917A007F
:100A4000826080937A0080917A00816080937A003E
:100A500080917A00806880937A001092C100E091C2
:100A6000D201F091D30182E08083E091CE01F09138
:100A7000CF011082E091D001F091D1018FEC808301
:100A80001092DA01E091D601F091D70186E08083DF
:100A9000E091D401F091D501808180618083E09163
:100AA000D401F091D501808188608083E091D401E8
:100AB000F091D501808180688083E091D401F0912C
:100AC000D50180818F7D808360E082E00E94F50106
:100AD00061E083E00E94F50161E084E00E94F5019D
:100AE00061E085E00E94F50161E086E00E94F50189
:100AF00061E087E00E94F50161E088E00E94F50175
:100B000061E089E00E94F50161E08AE00E94F50160
:100B100061E08BE00E94F50161E08CE00E94F5014C
:100B200061E08DE00E94F50161E08EE00E94F50138
:100B300061E08FE00E94F50161E080E10E94F50133
:100B400061E081E10E94F50161E082E10E94F5012E
:100B500061E083E10E94F50101E0BEEFDB2ECC24D1
:100B6000CA94A0E0EA2EA0E0FA2EFDEF3F2E82EC20
:100B700091E00E94EA00892BD1F382EC91E00E947F
:100B8000C8008436910509F4E4C10CF0C4C0883370
:100B9000910509F476C15CF58533910509F43DC1F1
:100BA00034F4C49709F41DC188E591E011C386337C
:100BB000910509F44CC1C797B9F761E08091BA017A
:100BC0009091BB01892B09F060E0862F90E0909313
:100BD000BB018093BA0187E00E94C7018EE191E0DA
:100BE0000E9416038091BA019091BB0113C1813616
:100BF000910509F47AC10CF06CC08933910509F4B0
:100C00005AC1CF9789F661E083E00E94C70119823B
:100C10001A821B821C821D8261E080915F020E9409
:100C2000F50160E080915F020E94C7010E943102DD
:100C30002B013C01E2E18E2E912CA12CB12C0E94C3
:100C400031026419750986099709683E7340810568
:100C50009105A8F321E0821A9108A108B10888EE55
:100C6000480E83E0581E611C711C81149104A1047C
:100C7000B10429F762E080915F020E94F50128E249
:100C800030E040E050E061E080915F020E94560257
:100C9000672B682B692B09F09EC23092610280910C
:100CA00061028E3F09F4EEC30CF0BAC38D3F09F424
:100CB000E6C360E083E00E94C701E114F10409F497
:100CC00056CF0E94F600882309F44FCF0E940000FF
:100CD00048CF8236910509F422C18336910509F087
:100CE00063CF61E08091B0019091B101892B09F04F
:100CF00060E0862F90E09093B1018093B0018CE08A
:100D00000E94C7018EE191E00E9416038091B0011C
:100D10009091B1017FC08936910509F482C104F533
:100D20008636910509F449C10CF42DC18736910529
:100D300009F45DC18836910509F036CF8091A10193
:100D4000882309F460CF89E491E00E941603609142
:100D5000990170919A0180919B0190919C01A6C18B
:100D60008337910509F4A5C114F58A36910509F474
:100D700072C18B36910509F017CF61E08091A20115
:100D80009091A301892B09F060E0862F90E0909369
:100D9000A3018093A20183E10E94C7018EE191E04B
:100DA0000E9416038091A2019091A30133C0843761
:100DB000910509F46AC18A37910509F0F5CE809151
:100DC000A101882309F41FCF60919D0170919E01BC
:100DD00080919F019091A0010E94180383E391E00C
:100DE000B4CF61E08091C0019091C101892B09F0DD
:100DF00060E0862F90E09093C1018093C00184E071
:100E00000E94C7018EE191E00E9416038091C0010B
:100E10009091C1010E94E203F6CE61E08091BE0193
:100E20009091BF01892B09F060E0862F90E09093AC
:100E3000BF018093BE0185E00E94C7018EE191E071
:100E40000E9416038091BE019091BF01E3CF61E043
:100E50008091BC019091BD01892B09F060E0862F43
:100E600090E09093BD018093BC0186E00E94C70191
:100E70008EE191E00E9416038091BC019091BD012A
:100E8000C9CF61E08091B8019091B901892B09F037
:100E900060E0862F90E09093B9018093B80188E0DC
:100EA0000E94C7018EE191E00E9416038091B80173
:100EB0009091B901AFCF61E08091B6019091B701F7
:100EC000892B09F060E0862F90E09093B701809322
:100ED000B60189E00E94C7018EE191E00E941603ED
:100EE0008091B6019091B70195CF61E08091B401F6
:100EF0009091B501892B09F060E0862F90E09093E6
:100F0000B5018093B4018AE00E94C7018EE191E0AF
:100F10000E9416038091B4019091B5017BCF61E0EE
:100F20008091B2019091B301892B09F060E0862F86
:100F300090E09093B3018093B2018BE00E94C701CF
:100F40008EE191E00E9416038091B2019091B3016D
:100F500061CF61E08091AE019091AF01892B09F0E2
:100F600060E0862F90E09093AF018093AE018DE01A
:100F70000E94C7018EE191E00E9416038091AE01AC
:100F80009091AF0147CF61E08091AC019091AD01AC
:100F9000892B09F060E0862F90E09093AD0180935B
:100FA000AC018EE00E94C7018EE191E00E94160321
:100FB0008091AC019091AD012DCF61E08091AA01AB
:100FC0009091AB01892B09F060E0862F90E090931F
:100FD000AB018093AA018FE00E94C7018EE191E0EE
:100FE0000E9416038091AA019091AB0113CF61E09A
:100FF0008091A8019091A901892B09F060E0862FCA
:1010000090E09093A9018093A80180E10E94C7011C
:101010008EE191E00E9416038091A8019091A901B0
:10102000F9CE61E08091A6019091A701892B09F08A
:1010300060E0862F90E09093A7018093A60181E164
:101040000E94C7018EE191E00E9416038091A601E3
:101050009091A701DFCE61E08091A4019091A5015C
:10106000892B09F060E0862F90E09093A501809392
:10107000A40182E10E94C7018EE191E00E94160363
:101080008091A4019091A501C5CE8091A1018823F2
:1010900009F4B9CD88E391E00E94160360919D01A7
:1010A00070919E0180919F019091A0010E94180370
:1010B000AACD80E30E94790180E30E94790180E358
:1010C0000E94790180E30E9479018091C001909192
:1010D000C1010E94E2038091BE019091BF010E9474
:1010E000E2038091BC019091BD010E94E2038091D6
:1010F000BA019091BB010E94E2038091B8019091E6
:10110000B9010E94E2038091B6019091B7010E945B
:10111000E2038091B4019091B5010E94E2038091B5
:10112000B2019091B3010E94E2038091B0019091CD
:10113000B1010E94E2038091AE019091AF010E9443
:10114000E2038091AC019091AD010E94E203809195
:10115000AA019091AB010E94E2038091A8019091B5
:10116000A9010E94E2038091A6019091A7010E942B
:10117000E2038091A4019091A5010E94E203809175
:10118000A2019091A3010E94E2038091A101882312
:1011900009F439CD85E391E00E94160360919D0129
:1011A00070919E0180919F019091A0010E9418036F
:1011B00086E491E00E9416036091990170919A0172
:1011C00080919B0190919C010E94180384E591E01D
:1011D0000E94160318CD20E530E040E050E060E0CA
:1011E00080915F020E945602672B682B692B09F4DD
:1011F00054CD20E530E040E050E061E080915F02B6
:101200000E945602672B682B692B09F446CD712C7E
:10121000612C22E330E040E050E060E080915F022A
:101220000E94560224E630E040E050E061E0809108
:101230005F020E945602662349F1F30173E0F595BF
:10124000E7957A95E1F781E090E08C0F9D1FE80F1C
:10125000F91F8081880F91E06E3208F490E0890FC9
:1012600080839FEF691A790A28E26216710489F671
:1012700069814A81AB801C81862F840F8A0D810F82
:101280009D81891731F0C092610209CDD09261022F
:1012900006CD80916002853109F486C0863109F45B
:1012A000B9C08B3009F06AC070E090E080E00E9425
:1012B000580B60936E0270936F028093700290934C
:1012C00071026A2D70E090E080E00E945A0B2B01C1
:1012D0003C0117FF56C01F77612F70E090E080E05F
:1012E0000E945A0B2DEC3CEC4CEC5DE30E940F0C81
:1012F0009B01AC0160E070E080E89FE30E94450A3A
:10130000A30192010E94460A2B013C0177FA7094D6
:1013100077F8709440926202509263026092640285
:101320007092650220E030E040E151E4C301B20177
:101330000E940F0C20E030E040EA50E40E94B70A1F
:1013400020E030E040E052E40E94460A60936602EA
:1013500070936702809368029093690223E333E9F4
:1013600048E853E4C301B2010E94460A60936A024E
:1013700070936B0280936C0290936D0210926102E5
:101380008ECC612F70E090E080E00E945A0B2DEC33
:101390003CEC4CEC5DE30E940F0CA30192010E9417
:1013A000460A2B013C01B6CF262F30E0322F2227F0
:1013B000B901640F711D072E000C880B990B0E9458
:1013C0005A0B2DEC3CEC4CEC5DE30E940F0C60934F
:1013D0006E0270936F0280937002909371026A2D77
:1013E00070E0762F662766277F77610F711D072EC5
:1013F000000C880B990B0E945A0B2DEC3CEC4CEC2A
:101400005DEBA7FC04C02DEC3CEC4CEC5DE30E94D2
:101410000F0CC7CF862F90E0982F8827BC01C9CF2B
:101420008F3F29F1811145CC80916E0290916F021E
:10143000A0917002B09171028093990190939A01EA
:10144000A0939B01B0939C018091620290916302F2
:10145000A0916402B091650280939D0190939E01DA
:10146000A0939F01B093A0010093A10122CC88E634
:1014700091E00E94C5028AE791E00E94C5021092A5
:10148000A10117CC8DE791E0F4CF5058BB27AA27D4
:101490000E945D0A0C94D00B0E94C20B38F00E948F
:1014A000C90B20F039F49F3F19F426F40C94BF0BBC
:1014B0000EF4E095E7FB0C94B90BE92F0E94E10BC9
:1014C00058F3BA17620773078407950720F079F479
:1014D000A6F50C94030C0EF4E0950B2EBA2FA02D5C
:1014E0000B01B90190010C01CA01A0011124FF27D1
:1014F000591B99F0593F50F4503E68F11A16F040CC
:10150000A22F232F342F4427585FF3CF46953795CA
:101510002795A795F0405395C9F77EF41F16BA0B8F
:10152000620B730B840BBAF09150A1F0FF0FBB1F3D
:10153000661F771F881FC2F70EC0BA0F621F731F86
:10154000841F48F4879577956795B795F7959E3FE3
:1015500008F0B0CF9395880F08F09927EE0F979574
:10156000879508950E94950B08F481E008950E94E4
:10157000CB0A0C94D00B0E94C90B58F00E94C20BEE
:1015800040F029F45F3F29F00C94B90B51110C94F1
:10159000040C0C94BF0B0E94E10B68F39923B1F388
:1015A000552391F3951B550BBB27AA276217730789
:1015B000840738F09F5F5F4F220F331F441FAA1F1D
:1015C000A9F335D00E2E3AF0E0E832D091505040D9
:1015D000E695001CCAF72BD0FE2F29D0660F771F87
:1015E000881FBB1F261737074807AB07B0E809F06D
:1015F000BB0B802DBF01FF2793585F4F3AF09E3FF2
:10160000510578F00C94B90B0C94040C5F3FE4F393
:10161000983ED4F3869577956795B795F7959F5F34
:10162000C9F7880F911D9695879597F90895E1E080
:10163000660F771F881FBB1F621773078407BA07DF
:1016400020F0621B730B840BBA0BEE1F88F7E0953A
:1016500008950E94E90B88F09F5798F0B92F9927B9
:10166000B751B0F0E1F0660F771F881F991F1AF08D
:10167000BA95C9F714C0B13091F00E94030CB1E0E3
:1016800008950C94030C672F782F8827B85F39F0E2
:10169000B93FCCF3869577956795B395D9F73EF426
:1016A00090958095709561957F4F8F4F9F4F0895CE
:1016B000E89409C097FB3EF49095809570956195EC
:1016C0007F4F8F4F9F4F9923A9F0F92F96E9BB27A2
:1016D0009395F695879577956795B795F111F8CF1E
:1016E000FAF4BB0F11F460FF1BC06F5F7F4F8F4F89
:1016F0009F4F16C0882311F096E911C0772321F07F
:101700009EE8872F762F05C0662371F096E8862F16
:1017100070E060E02AF09A95660F771F881FDAF76D
:10172000880F9695879597F90895990F0008550F9A
:10173000AA0BE0E8FEEF16161706E807F907C0F057
:1017400012161306E407F50798F0621B730B840B5F
:10175000950B39F40A2661F0232B242B252B21F439
:1017600008950A2609F4A140A6958FEF811D811DD9
:10177000089597F99F6780E870E060E008959FEF13
:1017800080EC089500240A94161617061806090618
:10179000089500240A9412161306140605060895E7
:1017A000092E0394000C11F4882352F0BB0F40F46F
:1017B000BF2B11F460FF04C06F5F7F4F8F4F9F4FAF
:1017C000089557FD9058440F551F59F05F3F71F031
:1017D0004795880F97FB991F61F09F3F79F0879598
:1017E0000895121613061406551FF2CF4695F1DF21
:1017F00008C0161617061806991FF1CF86957105B1
:10180000610508940895E894BB2766277727CB01E4
:1018100097F908950E94950B08F48FEF08950E94A0
:10182000220C0C94D00B0E94C20B38F00E94C90B02
:1018300020F0952311F00C94B90B0C94BF0B1124DC
:101840000C94040C0E94E10B70F3959FC1F3950F6B
:1018500050E0551F629FF001729FBB27F00DB11D34
:10186000639FAA27F00DB11DAA1F649F6627B00DC4
:10187000A11D661F829F2227B00DA11D621F739FAD
:10188000B00DA11D621F839FA00D611D221F749FBB
:101890003327A00D611D231F849F600D211D822F02
:1018A000762F6A2F11249F5750409AF0F1F0882329
:1018B0004AF0EE0FFF1FBB1F661F771F881F915056
:1018C0005040A9F79E3F510580F00C94B90B0C9441
:1018D000040C5F3FE4F3983ED4F3869577956795C3
:1018E000B795F795E7959F5FC1F7FE2B880F911D80
:1018F0009695879597F908950E94950B880B990BFB
:101900000895A1E21A2EAA1BBB1BFD010DC0AA1F40
:10191000BB1FEE1FFF1FA217B307E407F50720F058
:10192000A21BB30BE40BF50B661F771F881F991FD3
:101930001A9469F760957095809590959B01AC011C
:10194000BD01CF010895EE0FFF1F0590F491E02D2A
:061950000994F894FFCF9A
:10195600000000002C018C00B9007E01EA00C800DE
:10196600DC006E616E00696E66006F7666007069F7
:101976006E207374617465206368616E6765207498
:101986006F20002C0020282074656D7065726174CC
:101996007572653A2000202F2068756D6964697438
:1019A600793A20002029200070696E206973206E24
:1019B6006F74207573656400202F20436865636B20
:1019C60073756D206572726F72000D0A00202F20EC
:1019D60054696D65206F7574206572726F720000B0
:00000001FF
