:100000000C9435010C9466010C9466010C94660105
:100010000C9466010C9466010C9466010C946601C4
:100020000C9466010C9466010C9466010C946601B4
:100030000C9466010C9466010C9466010C946601A4
:100040000C9466010C9466010C9466010C94660194
:100050000C9466010C9466010C9466010C94BF0527
:100060000C9466010C9489050C945F050C94660150
:100070000C9466010C9466010C9466010C94660164
:100080000C9466010C9466010C9466010C94660154
:100090000C9466010C9466010C9466010C94660144
:1000A0000C9466010C9466010C9466010C94660134
:1000B0000C9466010C9466010C9466010C94660124
:1000C0000C9466010C9466010C9466010C94660114
:1000D0000C9466010C9466010C9466010C94660104
:1000E0000C9466010C94D4020C9400030C94DE0270
:1000F0000C94B8010C94C5020C94FA020C94C6013D
:100100000C9495010C94F6020C94BF020C94E4023A
:100110000C9468010C9404030C9450020C94E802B3
:100120000C94A4010C94D1020C94C9020C94FF020B
:100130000C9409060C94FE010C94CD020C94EC0274
:100140000C94F2020C94DA02000021002400270033
:100150002A002D00300033000101000004010701D6
:100160000A0100002200250028002B002E0031008B
:10017000340002010000050108010B01000020000D
:100180002300260029002C002F003200000100006F
:10019000030106010901050505050705080808080A
:1001A000020202020A0A080804040404010101010F
:1001B000010101010303030303030303040707070A
:1001C0000C0C0C0C0C0C0C0C0202020206060606AF
:1001D000060606060B0B0B0B0B0B0B0B010210207C
:1001E000200808102040102040800201020108046D
:1001F0000201010204081020408080402010080401
:100200000201800402018040201008040201080459
:10021000020101020408102040800102040810209D
:10022000408000000A0B02090C0D0E0807030401B0
:1002300000000000000000000000000000000000BE
:10024000000000000000000000000000000012118B
:10025000100000000000000000000000000000008E
:100260000000000000000000090611241FBECFEFAF
:10027000D1E2DEBFCDBF00E00CBF12E0A0E0B2E0F3
:10028000E8E9FCE100E00BBF02C007900D92AE3937
:10029000B107D9F723E0AEE9B2E001C01D92A4385E
:1002A000B207E1F711E0C5E3D1E000E006C0219715
:1002B0000109802FFE010E94420EC433D10780E065
:1002C0000807A9F70E943C060C944A0E0C94000003
:1002D000AF92BF92CF92DF92EF92FF920F931F9354
:1002E000CF93DF936C017B018B01040F151FEB0192
:1002F0005E01AE18BF08C017D10759F06991D60149
:10030000ED91FC910190F081E02DC6011995892BAA
:1003100079F7C501DF91CF911F910F91FF90EF9079
:10032000DF90CF90BF90AF900895FC01538D448D26
:10033000252F30E0842F90E0821B930B541710F090
:10034000CF96089501970895FC01918D828D98179D
:1003500061F0A28DAE0FBF2FB11D5D968C91928D75
:100360009F5F9F73928F90E008958FEF9FEF0895A6
:10037000FC01918D828D981731F0828DE80FF11D6F
:10038000858D90E008958FEF9FEF0895FC01918D8A
:10039000228D892F90E0805C9F4F821B91098F7383
:1003A0009927089584ED92E00E94C60121E0892BEF
:1003B00009F420E0822F0895FC01A48DA80FB92F25
:1003C000B11DA35ABF4F2C91848D90E001968F737D
:1003D0009927848FA689B7892C93A089B1898C919C
:1003E000837080648C93938D848D981306C00288EB
:1003F000F389E02D80818F7D80830895EF92FF92B5
:100400000F931F93CF93DF93EC0181E0888F9B8D37
:100410008C8D98131AC0E889F989808185FF15C0F1
:100420009FB7F894EE89FF896083E889F989808114
:100430008370806480839FBF81E090E0DF91CF91E3
:100440001F910F91FF90EF900895F62E0B8D10E005
:100450000F5F1F4F0F731127E02E8C8D8E110CC074
:100460000FB607FCFACFE889F989808185FFF5CFBF
:10047000CE010E94DC01F1CFEB8DEC0FFD2FF11DC1
:10048000E35AFF4FF0829FB7F8940B8FEA89FB89FC
:1004900080818062CFCF682F84ED92E00C94FE01C2
:1004A000CF93DF93EC01888D8823B9F0AA89BB89AB
:1004B000E889F9898C9185FD03C0808186FD0DC096
:1004C0000FB607FCF7CF8C9185FFF2CF808185FFB7
:1004D000EDCFCE010E94DC01E9CFDF91CF910895ED
:1004E00080E090E0892B29F00E94D20181110E94C6
:1004F000000080E090E0892B49F080E090E0892BBB
:1005000029F00E94000081110E94000080E090E02C
:10051000892B49F080E090E0892B29F00E940000AF
:1005200081110E94000080E090E0892B49F080E07A
:1005300090E0892B29F00E94000081110C940000AA
:1005400008958150823108F05AC0E82FF0E08827E2
:10055000E355FD4F8F4F0C94420ECD02D102BF02E6
:10056000C502C902FF02D402DA02DE02E402E80296
:10057000EC02F202F602FF02FA0200030403809189
:1005800080008F77809380000895809180008F7D18
:10059000F9CF80918000877FF5CF84B58F7784BDB8
:1005A000089584B58F7DFBCF8091B0008F778093C5
:1005B000B00008958091B0008F7DF9CF80919000B8
:1005C0008F77809390000895809190008F7DF9CF70
:1005D00080919000877FF5CF8091A0008F778093E6
:1005E000A00008958091A0008F7DF9CF8091A00098
:1005F000877FF5CF809120018F7780932001089528
:10060000809120018F7DF9CF80912001877FF5CFE8
:100610001F93CF93DF93282F30E0F901EE5DFD4F5C
:100620008491F901E452FE4FD491F901EA56FE4F4C
:10063000C491CC23A9F0162F81110E94A102EC2FA6
:10064000F0E0EE0FFF1FEE59FE4FA591B4918FB76A
:10065000F894EC91111108C0D095DE23DC938FBF84
:10066000DF91CF911F910895DE2BF8CFCF93DF93C9
:1006700090E0FC01E452FE4F24918A569E4FFC010B
:1006800084918823C9F090E0880F991FFC01E85BF2
:10069000FE4FA591B491FC01EE59FE4FC591D49146
:1006A00061110DC09FB7F8948C91209582238C9393
:1006B0008881282328839FBFDF91CF9108956230DE
:1006C00051F49FB7F8943C91822F809583238C93AB
:1006D000E8812E2BEFCF8FB7F894EC912E2B2C9333
:1006E0008FBFEACF3FB7F89480919F029091A0020C
:1006F000A091A102B091A20226B5A89B05C02F3FF0
:1007000019F00196A11DB11D3FBFBA2FA92F982F37
:100710008827BC01CD01620F711D811D911D42E032
:10072000660F771F881F991F4A95D1F708952F925A
:100730003F924F925F926F927F928F929F92AF9271
:10074000BF92CF92DF92EF92FF920F931F93CF93BE
:10075000DF93C82F062F49015A010E9472036B01D3
:100760007C01D0E0CE018E5D9D4F2C01FE01E45254
:10077000FE4F3F01CA56DE4F10E0F2018491F301B3
:100780003490FE012490222029F181110E94A102BF
:10079000E22DF0E0EE0FFF1FE458FE4FA591B4915B
:1007A0008C91382231E020E009F430E0832F922F41
:1007B0000817190791F40E9472036C197D098E09BC
:1007C0009F0986169706A806B906B8F660E070E09D
:1007D000CB0109C090E080E0EBCF0E9472036C195E
:1007E0007D098E099F09DF91CF911F910F91FF9095
:1007F000EF90DF90CF90BF90AF909F908F907F90C1
:100800006F905F904F903F902F900895FC01019062
:100810000020E9F73197AF01481B590BBC0184ED6B
:1008200092E00C9468018F929F92AF92BF920F93C7
:100830001F93CF93DF93CDB7DEB7A1970FB6F89490
:10084000DEBF0FBECDBF19A2423008F44AE08E01D0
:100850000F5D1F4F842E912CB12CA12CA50194016A
:100860000E94200EE62FB901CA01EA30F4F4E05DDF
:10087000D801EE938D01232B242B252B79F790E0C3
:1008800080E0109719F0CD010E940604A1960FB6E2
:10089000F894DEBF0FBECDBFDF91CF911F910F91B6
:1008A000BF90AF909F908F900895E95CE1CF0C943A
:1008B0000604CF93DF930E940604EC0182E192E0EC
:1008C0000E9406048C0F9D1FDF91CF9108954F92D7
:1008D0005F926F927F928F929F92AF92BF92CF92D0
:1008E000DF92EF92FF926B017C01AC019B010E94B1
:1008F0001B0E882381F085E192E0FF90EF90DF905E
:10090000CF90BF90AF909F908F907F906F905F90AF
:100910004F900C94060446015701E894B7F82FEF66
:100920003FEF4FE75FE7C501B4010E941B0E811145
:100930000DC02FEF3FEF4FE75FE7C501B4010E9405
:10094000510C18161CF489E192E0D7CF2FEF3FEF3E
:100950004FE75FE4C701B6010E94A90D18161CF409
:100960008DE192E0CACF2FEF3FEF4FE75FECC70179
:10097000B6010E94510C87FDF3CF20E030E0A901C1
:10098000C701B6010E94510CB12CA12C87FF08C0F1
:100990008DE20E944B025C01F7FAF094F7F8F094B4
:1009A0002AE037ED43EA5BE3C701B6010E94E50B9D
:1009B0002B013C010E94C80C6B017C010E94F70CCA
:1009C0009B01AC01C301B2010E94E40B2B013C016D
:1009D0004AE0C701B6010E9413047C01EA0CFB1C2B
:1009E0008EE20E944B02E80EF91E20E030E040E269
:1009F00051E4C301B2010E94AE0D2B013C010E94E3
:100A0000C80C4B01B12CA12C4AE0C501B4010E94D5
:100A10001304E80EF91EC501B4010E94F70C9B01F6
:100A2000AC01C301B2010E94E40B20E030E040E2DF
:100A300051E40E94AE0D0E94C80C90E080E04AE0B4
:100A40000E9413048E0D9F1DFF90EF90DF90CF90BA
:100A5000BF90AF909F908F907F906F905F904F90DE
:100A60000895CF92DF92EF92FF92CF93DF936C01C4
:100A7000990FEE08FF08F7FE17C08DE20E944B02A7
:100A8000EC0166277727CB016C197D098E099F0938
:100A90004AE00E9413048C0F9D1FDF91CF91FF90BD
:100AA000EF90DF90CF9008954AE0C701B601DF9143
:100AB000CF91FF90EF90DF90CF900C9413041F9292
:100AC0000F920FB60F9211240BB60F922F933F93F4
:100AD0004F935F936F937F938F939F93AF93BF9346
:100AE000EF93FF9384ED92E00E94DC01FF91EF9180
:100AF000BF91AF919F918F917F916F915F914F9136
:100B00003F912F910F900BBE0F900FBE0F901F9033
:100B100018951F920F920FB60F9211240BB60F92D9
:100B20002F938F939F93EF93FF93E091E402F091C3
:100B3000E5028081E091EA02F091EB0282FD1DC0A6
:100B400090818091ED028F5F8F732091EE0282176A
:100B500041F0E091ED02F0E0EC52FD4F958F809373
:100B6000ED02FF91EF919F918F912F910F900BBE0E
:100B70000F900FBE0F901F9018958081F2CF1F929B
:100B80000F920FB60F9211242F933F938F939F9341
:100B9000AF93BF938091A3029091A402A091A5026C
:100BA000B091A60230919E0223E0230F2D3758F515
:100BB0000196A11DB11D20939E028093A3029093E4
:100BC000A402A093A502B093A60280919F029091E7
:100BD000A002A091A102B091A2020196A11DB11D97
:100BE00080939F029093A002A093A102B093A202CF
:100BF000BF91AF919F918F913F912F910F900FBE19
:100C00000F901F90189526E8230F0296A11DB11D85
:100C1000D2CFE4EDF2E01382128288EE93E0A0E0FE
:100C2000B0E084839583A683B78384E092E09183C8
:100C3000808385EC90E09587848784EC90E09787AB
:100C4000868780EC90E0918B808B81EC90E0938B99
:100C5000828B82EC90E0958B848B86EC90E0978B76
:100C6000868B118E128E138E148EE1E7F3E082E0F4
:100C7000808386E181830895CF93DF9300D01F9214
:100C80001F92CDB7DEB7789484B5826084BD84B5F9
:100C9000816084BD85B5826085BD85B5816085BD77
:100CA00080916E00816080936E001092810080912F
:100CB00081008260809381008091810081608093B7
:100CC0008100809180008160809380008091B100DC
:100CD00084608093B1008091B00081608093B00007
:100CE0008091910082608093910080919100816059
:100CF000809391008091900081608093900080911A
:100D0000A10082608093A1008091A1008160809306
:100D1000A1008091A00081608093A00080912101BA
:100D20008260809321018091210181608093210163
:100D30008091200181608093200180917A008460FD
:100D400080937A0080917A00826080937A0080910B
:100D50007A00816080937A0080917A008068809325
:100D60007A001092C100E091E402F091E50282E085
:100D70008083E091E002F091E1021082E091E202D2
:100D8000F091E3028FEC80831092EC02E091E80294
:100D9000F091E90286E08083E091E602F091E702BB
:100DA000808180618083E091E602F091E70280819A
:100DB00088608083E091E602F091E702808180689C
:100DC0008083E091E602F091E70280818F7D80834D
:100DD00060E082E00E94360361E083E00E94360317
:100DE00061E084E00E94360361E085E00E94360302
:100DF00061E086E00E94360361E087E00E943603EE
:100E000061E088E00E94360361E089E00E943603D9
:100E100061E08AE00E94360361E08BE00E943603C5
:100E200061E08CE00E94360361E08DE00E943603B1
:100E300061E08EE00E94360361E08FE00E9436039D
:100E400061E080E10E94360361E081E10E943603A7
:100E500061E082E10E94360361E083E10E94360393
:100E60000EEFFF24FA94FDEFEF2E2FB7F894809148
:100E7000A3029091A402A091A502B091A6022FBF57
:100E80004091D0025091D1026091D2027091D30270
:100E90005C016D01A41AB50AC60AD70AB601A501FC
:100EA000483E53406105710508F459C08093D00253
:100EB0009093D102A093D202B093D30219821A82E6
:100EC0001B821C821D8261E0809171030E943603A7
:100ED00060E0809171030E9408030E9472034B013D
:100EE0005C01E2E14E2E512C612C712C0E947203A8
:100EF000681979098A099B09683E73408105910543
:100F0000A8F381E0481A51086108710898EE890E2B
:100F100093E0991EA11CB11C411451046104710499
:100F200029F762E0809171030E94360328E230E0E5
:100F300040E050E061E0809171030E949703672BCD
:100F4000682B692B71F5E0927303809173038E3FD8
:100F500009F47AC10CF049C18D3F09F47CC184EDDC
:100F600092E00E94C601892BD1F384ED92E00E94A9
:100F7000A4018436910509F4E5C20CF0C5C188339B
:100F8000910509F477C20CF08AC18533910509F403
:100F90003DC20CF063C1C49709F41CC28EE892E014
:100FA00010C420E530E040E050E060E08091710343
:100FB0000E949703672B682B692B29F220E530E00C
:100FC00040E050E061E0809171030E949703672B3D
:100FD000682B692B09F4B7CFB12CA12C22E330E0A8
:100FE00040E050E060E0809171030E94970324E6A6
:100FF00030E040E050E061E0809171030E9497038F
:10100000662349F1F50173E0F595E7957A95E1F7E7
:1010100081E090E08C0F9D1FE80FF91F8081880F01
:1010200091E06E3208F490E0890F80839FEFA91A57
:10103000B90A28E2A216B10489F669814A81DB80E7
:101040001C81862F840F8D0D810F9D81891731F0B2
:10105000F09273037ACF0093730377CF809172037A
:10106000853109F486C0863109F4B9C08B3009F0A6
:101070006AC070E090E080E00E94F70C609380030B
:101080007093810380938203909383036D2D70E0AE
:1010900090E080E00E94F90C4B015C0117FF56C004
:1010A0001F77612F70E090E080E00E94F90C2DEC3A
:1010B0003CEC4CEC5DE30E94AE0D9B01AC0160E0AA
:1010C00070E080E89FE30E94E40BA50194010E9478
:1010D000E50B4B015C01B7FAB094B7F8B09480927D
:1010E000740390927503A0927603B092770320E088
:1010F00030E040E151E4C501B4010E94AE0D20E0B2
:1011000030E040EA50E40E94560C20E030E040E03D
:1011100052E40E94E50B6093780370937903809307
:101120007A0390937B0323E333E948E853E4C50152
:10113000B4010E94E50B60937C0370937D03809360
:101140007E0390937F0310927303FFCE612F70E0B4
:1011500090E080E00E94F90C2DEC3CEC4CEC5DE35F
:101160000E94AE0DA50194010E94E50B4B015C01AC
:10117000B6CF262F30E0322F2227B901640F711D20
:10118000072E000C880B990B0E94F90C2DEC3CECFF
:101190004CEC5DE30E94AE0D60938003709381037D
:1011A00080938203909383036D2D70E0762F6627E2
:1011B00066277F77610F711D072E000C880B990B36
:1011C0000E94F90C2DEC3CEC4CEC5DEBD7FC04C020
:1011D0002DEC3CEC4CEC5DE30E94AE0DC7CF862FAE
:1011E00090E0982F8827BC01C9CF8F3F31F1811142
:1011F000B6CE8091740390917503A0917603B0915F
:1012000077038093CC029093CD02A093CE02B0934B
:10121000CF028091800390918103A0918203B091CD
:1012200083038093C8029093C902A093CA02B0932B
:10123000CB0281E08093C70292CE81E292E00E94CD
:1012400059041092C7028BCE1092C70280E392E03D
:101250000E94590484CE8FE392E0F1CF863391054A
:1012600009F4EEC0C79709F099CE61E08091BF0202
:101270009091C002892B09F060E0862F90E0909356
:10128000C0028093BF0287E00E94080384E592E0D9
:101290000E9457048091BF029091C002B4C0813671
:1012A000910509F41BC174F48933910509F4FCC05C
:1012B000CF9709F073CE61E083E00E9408030E949B
:1012C0007002D3CD8236910509F422C1833691058F
:1012D00009F064CE61E08091B5029091B602892B4D
:1012E00009F060E0862F90E09093B6028093B502FB
:1012F0008CE00E94080384E592E00E9457048091EC
:10130000B5029091B6027FC08936910509F482C179
:1013100004F58636910509F449C10CF42DC18736D0
:10132000910509F45DC18836910509F037CE8091A9
:10133000C702882309F4BFCF8FE792E00E945704C9
:101340006091C8027091C9028091CA029091CB024B
:10135000A6C18337910509F4A5C114F58A36910514
:1013600009F472C18B36910509F018CE61E08091C5
:10137000A7029091A802892B09F060E0862F90E0E7
:101380009093A8028093A70283E10E94080384E55A
:1013900092E00E9457048091A7029091A80233C066
:1013A0008437910509F46AC18A37910509F0F6CDB1
:1013B0008091C702882309F47ECF6091CC0270919E
:1013C000CD028091CE029091CF020E94670489E6FF
:1013D00092E0B4CF61E08091C5029091C602892B62
:1013E00009F060E0862F90E09093C6028093C502DA
:1013F00084E00E94080384E592E00E9457048091F3
:10140000C5029091C6020E94310555CF61E08091DE
:10141000C3029091C402892B09F060E0862F90E00E
:101420009093C4028093C30285E00E94080384E580
:1014300092E00E9457048091C3029091C402E3CFCE
:1014400061E08091C1029091C202892B09F060E0B5
:10145000862F90E09093C2028093C10286E00E94A2
:10146000080384E592E00E9457048091C1029091A4
:10147000C202C9CF61E08091BD029091BE02892B6A
:1014800009F060E0862F90E09093BE028093BD0249
:1014900088E00E94080384E592E00E94570480914E
:1014A000BD029091BE02AFCF61E08091BB029091EE
:1014B000BC02892B09F060E0862F90E09093BC027B
:1014C0008093BB0289E00E94080384E592E00E94B9
:1014D00057048091BB029091BC0295CF61E080914E
:1014E000B9029091BA02892B09F060E0862F90E052
:1014F0009093BA028093B9028AE00E94080384E5BF
:1015000092E00E9457048091B9029091BA027BCF79
:1015100061E08091B7029091B802892B09F060E0F8
:10152000862F90E09093B8028093B7028BE00E94E0
:10153000080384E592E00E9457048091B7029091DD
:10154000B80261CF61E08091B3029091B402892B1F
:1015500009F060E0862F90E09093B4028093B3028C
:101560008DE00E94080384E592E00E945704809178
:10157000B3029091B40247CF61E08091B1029091A3
:10158000B202892B09F060E0862F90E09093B202BE
:101590008093B1028EE00E94080384E592E00E94ED
:1015A00057048091B1029091B2022DCF61E08091F9
:1015B000AF029091B002892B09F060E0862F90E095
:1015C0009093B0028093AF028FE00E94080384E5FD
:1015D00092E00E9457048091AF029091B00213CF25
:1015E00061E08091AD029091AE02892B09F060E03C
:1015F000862F90E09093AE028093AD0280E10E942E
:10160000080384E592E00E9457048091AD02909116
:10161000AE02F9CE61E08091AB029091AC02892BD1
:1016200009F060E0862F90E09093AC028093AB02CB
:1016300081E10E94080384E592E00E9457048091B2
:10164000AB029091AC02DFCE61E08091A902909153
:10165000AA02892B09F060E0862F90E09093AA02FD
:101660008093A90282E10E94080384E592E00E942F
:1016700057048091A9029091AA02C5CE8091C70219
:10168000882309F418CE8EE692E00E9457046091F8
:10169000CC027091CD028091CE029091CF020E9437
:1016A000670409CE80E30E944B0280E30E944B0254
:1016B00080E30E944B0280E30E944B028091C502AE
:1016C0009091C6020E9431058091C3029091C4029C
:1016D0000E9431058091C1029091C2020E943105A1
:1016E0008091BF029091C0020E9431058091BD029D
:1016F0009091BE020E9431058091BB029091BC0284
:101700000E9431058091B9029091BA020E94310580
:101710008091B7029091B8020E9431058091B50284
:101720009091B6020E9431058091B3029091B4026B
:101730000E9431058091B1029091B2020E94310560
:101740008091AF029091B0020E9431058091AD026C
:101750009091AE020E9431058091AB029091AC0253
:101760000E9431058091A9029091AA020E94310540
:101770008091A7029091A8020E9431058091C70232
:10178000882309F498CD8BE692E00E94570460917B
:10179000CC027091CD028091CE029091CF020E9436
:1017A00067048CE792E00E9457046091C802709130
:1017B000C9028091CA029091CB020E9467048AE814
:1017C00092E00E94570477CD5058BB27AA270E9469
:1017D000FC0B0C946F0D0E94610D38F00E94680D97
:1017E00020F039F49F3F19F426F40C945E0D0EF4AA
:1017F000E095E7FB0C94580DE92F0E94800D58F3FB
:10180000BA17620773078407950720F079F4A6F5E5
:101810000C94A20D0EF4E0950B2EBA2FA02D0B0107
:10182000B90190010C01CA01A0011124FF27591B25
:1018300099F0593F50F4503E68F11A16F040A22F2B
:10184000232F342F4427585FF3CF4695379527959C
:10185000A795F0405395C9F77EF41F16BA0B620B9B
:10186000730B840BBAF09150A1F0FF0FBB1F661FE2
:10187000771F881FC2F70EC0BA0F621F731F841F25
:1018800048F4879577956795B795F7959E3F08F04B
:10189000B0CF9395880F08F09927EE0F979587950D
:1018A00008950E94340D08F481E008950E946A0CA6
:1018B0000C946F0D0E94680D58F00E94610D40F06D
:1018C00029F45F3F29F00C94580D51110C94A30D8D
:1018D0000C945E0D0E94800D68F39923B1F355239B
:1018E00091F3951B550BBB27AA2762177307840733
:1018F00038F09F5F5F4F220F331F441FAA1FA9F3C9
:1019000035D00E2E3AF0E0E832D091505040E695B6
:10191000001CCAF72BD0FE2F29D0660F771F881F17
:10192000BB1F261737074807AB07B0E809F0BB0B0A
:10193000802DBF01FF2793585F4F3AF09E3F51051E
:1019400078F00C94580D0C94A30D5F3FE4F3983E8F
:10195000D4F3869577956795B795F7959F5FC9F707
:10196000880F911D9695879597F90895E1E0660F88
:10197000771F881FBB1F621773078407BA0720F001
:10198000621B730B840BBA0BEE1F88F7E09508956A
:101990000E94880D88F09F5798F0B92F9927B7516A
:1019A000B0F0E1F0660F771F881F991F1AF0BA9503
:1019B000C9F714C0B13091F00E94A20DB1E00895B2
:1019C0000C94A20D672F782F8827B85F39F0B93FA4
:1019D000CCF3869577956795B395D9F73EF49095B6
:1019E0008095709561957F4F8F4F9F4F0895E89434
:1019F00009C097FB3EF490958095709561957F4F57
:101A00008F4F9F4F9923A9F0F92F96E9BB27939504
:101A1000F695879577956795B795F111F8CFFAF414
:101A2000BB0F11F460FF1BC06F5F7F4F8F4F9F4F45
:101A300016C0882311F096E911C0772321F09EE8A3
:101A4000872F762F05C0662371F096E8862F70E009
:101A500060E02AF09A95660F771F881FDAF7880FE3
:101A60009695879597F90895990F0008550FAA0B39
:101A7000E0E8FEEF16161706E807F907C0F01216A1
:101A80001306E407F50798F0621B730B840B950BA4
:101A900039F40A2661F0232B242B252B21F40895F9
:101AA0000A2609F4A140A6958FEF811D811D089596
:101AB00097F99F6780E870E060E008959FEF80EC01
:101AC000089500240A9416161706180609060895A4
:101AD00000240A9412161306140605060895092E0A
:101AE0000394000C11F4882352F0BB0F40F4BF2B79
:101AF00011F460FF04C06F5F7F4F8F4F9F4F0895B9
:101B000057FD9058440F551F59F05F3F71F04795AE
:101B1000880F97FB991F61F09F3F79F08795089593
:101B2000121613061406551FF2CF4695F1DF08C0B2
:101B3000161617061806991FF1CF869571056105CF
:101B400008940895E894BB2766277727CB0197F977
:101B500008950E94340D08F48FEF08950E94C10D7E
:101B60000C946F0D0E94610D38F00E94680D20F0FA
:101B7000952311F00C94580D0C945E0D11240C94C7
:101B8000A30D0E94800D70F3959FC1F3950F50E057
:101B9000551F629FF001729FBB27F00DB11D639F1F
:101BA000AA27F00DB11DAA1F649F6627B00DA11DC5
:101BB000661F829F2227B00DA11D621F739FB00D6B
:101BC000A11D621F839FA00D611D221F749F3327DB
:101BD000A00D611D231F849F600D211D822F762F74
:101BE0006A2F11249F5750409AF0F1F088234AF051
:101BF000EE0FFF1FBB1F661F771F881F91505040BD
:101C0000A9F79E3F510580F00C94580D0C94A30D3C
:101C10005F3FE4F3983ED4F3869577956795B79543
:101C2000F795E7959F5FC1F7FE2B880F911D96955D
:101C3000879597F908950E94340D880B990B0895A4
:101C4000A1E21A2EAA1BBB1BFD010DC0AA1FBB1FC0
:101C5000EE1FFF1FA217B307E407F50720F0A21B32
:101C6000B30BE40BF50B661F771F881F991F1A949F
:101C700069F760957095809590959B01AC01BD01C9
:101C8000CF010895EE0FFF1F881F8BBF0790F691BD
:081C9000E02D1994F894FFCF38
:101C980000000000FE01680195015002C601A40180
:101CA800B8010D0A006E616E00696E66006F766697
:101CB80000436865636B73756D206572726F72009F
:101CC80054696D65206F7574206572726F72005368
:101CD800656E736F72206E6F7420636F6E6E6563CE
:101CE8007465640070696E2073746174652063683C
:101CF800616E676520746F20002C002028207465B1
:101D08006D70657261747572653A2000202F2068C5
:101D1800756D69646974793A20002029200070691A
:0E1D28006E206973206E6F7420757365640001
:00000001FF
