:100000000C9462000C948A000C948A000C948A0070
:100010000C948A000C948A000C948A000C948A0038
:100020000C948A000C948A000C948A000C948A0028
:100030000C948A000C948A000C948A000C948A0018
:100040000C9476040C948A000C9444040C941E04C2
:100050000C948A000C948A000C948A000C948A00F8
:100060000C948A000C948A000000000024002700F1
:100070002A0000000000250028002B0000000000DE
:1000800023002600290004040404040404040202DA
:100090000202020203030303030301020408102007
:1000A0004080010204081020010204081020000012
:1000B0000008000201000003040700000000000027
:1000C0000000C00411241FBECFEFD8E0DEBFCDBFBB
:1000D00011E0A0E0B1E0E2ECF9E102C005900D9280
:1000E000AE39B107D9F722E0AEE9B1E001C01D9207
:1000F000A438B207E1F710E0C2E6D0E004C02197CF
:10010000FE010E94D90CC136D107C9F70E94F30441
:100110000C94DF0C0C940000AF92BF92CF92DF9250
:10012000EF92FF920F931F93CF93DF936C017B01AC
:100130008B01040F151FEB015E01AE18BF08C0173D
:10014000D10759F06991D601ED91FC910190F081B0
:10015000E02DC6010995892B79F7C501DF91CF9173
:100160001F910F91FF90EF90DF90CF90BF90AF90D5
:100170000895FC01538D448D252F30E0842F90E0AD
:10018000821B930B541710F0CF9608950197089592
:10019000FC01918D828D981761F0A28DAE0FBF2F5B
:1001A000B11D5D968C91928D9F5F9F73928F90E0B1
:1001B00008958FEF9FEF0895FC01918D828D981720
:1001C00031F0828DE80FF11D858D90E008958FEF5D
:1001D0009FEF0895FC01918D228D892F90E0805C26
:1001E0009F4F821B91098F739927089584ED91E0A9
:1001F0000E94EA0021E0892B09F420E0822F089573
:1002000080E090E0892B29F00E94F60081110C9487
:1002100000000895FC01A48DA80FB92FB11DA35AA9
:10022000BF4F2C91848D90E001968F739927848F16
:10023000A689B7892C93A089B1898C918370806439
:100240008C93938D848D981306C00288F389E02DDA
:1002500080818F7D80830895EF92FF920F931F938B
:10026000CF93DF93EC0181E0888F9B8D8C8D981369
:100270001AC0E889F989808185FF15C09FB7F89475
:10028000EE89FF896083E889F989808183708064C1
:1002900080839FBF81E090E0DF91CF911F910F910C
:1002A000FF90EF900895F62E0B8D10E00F5F1F4F1B
:1002B0000F731127E02E8C8D8E110CC00FB607FC2A
:1002C000FACFE889F989808185FFF5CFCE010E94B8
:1002D0000A01F1CFEB8DEC0FFD2FF11DE35AFF4F1B
:1002E000F0829FB7F8940B8FEA89FB898081806246
:1002F000CFCF682F84ED91E00C942C01CF93DF9346
:10030000EC01888D8823B9F0AA89BB89E889F9892D
:100310008C9185FD03C0808186FD0DC00FB607FC62
:10032000F7CF8C9185FFF2CF808185FFEDCFCE0195
:100330000E940A01E9CFDF91CF910895833081F0C7
:1003400028F4813099F08230A9F008958730A9F01F
:100350008830C9F08430B1F4809180008F7D03C073
:10036000809180008F7780938000089584B58F7787
:1003700084BD089584B58F7DFBCF8091B0008F77C9
:100380008093B00008958091B0008F7DF9CF1F93C6
:10039000CF93DF93282F30E0F901E255FF4F84918E
:1003A000F901E656FF4FD491F901EA57FF4FC49186
:1003B000CC23A9F0162F81110E949E01EC2FF0E0B2
:1003C000EE0FFF1FEE58FF4FA591B4918FB7F89431
:1003D000EC91111108C0D095DE23DC938FBFDF9123
:1003E000CF911F910895DE2BF8CFCF93DF9390E04C
:1003F000FC01E656FF4F24918A579F4FFC018491E0
:100400008823C9F090E0880F991FFC01E859FF4F3D
:10041000A591B491FC01EE58FF4FC591D4916111A3
:100420000DC09FB7F8948C91209582238C9388817E
:10043000282328839FBFDF91CF910895623051F424
:100440009FB7F8943C91822F809583238C93E88109
:100450002E2BEFCF8FB7F894EC912E2B2C938FBFD0
:10046000EACF3FB7F89480919F019091A001A091AD
:10047000A101B091A20126B5A89B05C02F3F19F09C
:100480000196A11DB11D3FBFBA2FA92F982F882714
:10049000BC01CD01620F711D811D911D42E0660FEF
:1004A000771F881F991F4A95D1F708952F923F9281
:1004B0004F925F926F927F928F929F92AF92BF9274
:1004C000CF92DF92EF92FF920F931F93CF93DF9320
:1004D000C82F062F49015A010E9431026B017C018D
:1004E000D0E0CE0182559F4F2C01FE01E656FF4F12
:1004F0003F01CA57DF4F10E0F2018491F3013490BD
:10050000FE012490222029F181110E949E01E22DFA
:10051000F0E0EE0FFF1FE458FF4FA591B4918C91CE
:10052000382231E020E009F430E0832F922F0817C1
:10053000190791F40E9431026C197D098E099F09F7
:1005400086169706A806B906B8F660E070E0CB01FB
:1005500009C090E080E0EBCF0E9431026C197D0968
:100560008E099F09DF91CF911F910F91FF90EF901E
:10057000DF90CF90BF90AF909F908F907F906F90C3
:100580005F904F903F902F900895FC0101900020C4
:10059000E9F73197AF01481B590BBC0184ED91E09D
:1005A0000C948C008F929F92AF92BF920F931F93E7
:1005B000CF93DF93CDB7DEB7A1970FB6F894DEBF28
:1005C0000FBECDBF19A2423008F44AE08E010F5D84
:1005D0001F4F842E912CB12CA12CA50194010E94B7
:1005E000B70CE62FB901CA01EA30F4F4E05DD80196
:1005F000EE938D01232B242B252B79F790E080E0BF
:10060000109719F0CD010E94C502A1960FB6F8947B
:10061000DEBF0FBECDBFDF91CF911F910F91BF9075
:10062000AF909F908F900895E95CE1CF0C94C50244
:10063000CF93DF930E94C502EC0182E191E00E941A
:10064000C5028C0F9D1FDF91CF9108954F925F924D
:100650006F927F928F929F92AF92BF92CF92DF92D2
:10066000EF92FF926B017C01AC019B010E94B20CE6
:10067000882381F085E191E0FF90EF90DF90CF90AB
:10068000BF90AF909F908F907F906F905F904F90B2
:100690000C94C50246015701E894B7F82FEF3FEFDD
:1006A0004FE75FE7C501B4010E94B20C81110DC094
:1006B0002FEF3FEF4FE75FE7C501B4010E94E80A63
:1006C00018161CF489E191E0D7CF2FEF3FEF4FE7E9
:1006D0005FE4C701B6010E94400C18161CF48DE1BE
:1006E00091E0CACF2FEF3FEF4FE75FECC701B601B4
:1006F0000E94E80A87FDF3CF20E030E0A901C7019E
:10070000B6010E94E80AB12CA12C87FF08C08DE237
:100710000E9479015C01F7FAF094F7F8F0942AE06E
:1007200037ED43EA5BE3C701B6010E947C0A2B0167
:100730003C010E945F0B6B017C010E948E0B9B01B0
:10074000AC01C301B2010E947B0A2B013C014AE0CB
:10075000C701B6010E94D2027C01EA0CFB1C8EE2AA
:100760000E947901E80EF91E20E030E040E251E4F9
:10077000C301B2010E94450C2B013C010E945F0B9A
:100780004B01B12CA12C4AE0C501B4010E94D20258
:10079000E80EF91EC501B4010E948E0B9B01AC014D
:1007A000C301B2010E947B0A20E030E040E251E444
:1007B0000E94450C0E945F0B90E080E04AE00E949E
:1007C000D2028E0D9F1DFF90EF90DF90CF90BF90D3
:1007D000AF909F908F907F906F905F904F90089513
:1007E000CF92DF92EF92FF92CF93DF936C01990F3C
:1007F000EE08FF08F7FE17C08DE20E947901EC01B8
:1008000066277727CB016C197D098E099F094AE07D
:100810000E94D2028C0F9D1FDF91CF91FF90EF902D
:10082000DF90CF9008954AE0C701B601DF91CF91E4
:10083000FF90EF90DF90CF900C94D2021F920F9216
:100840000FB60F9211242F933F934F935F936F93A3
:100850007F938F939F93AF93BF93EF93FF9384ED19
:1008600091E00E940A01FF91EF91BF91AF919F919A
:100870008F917F916F915F914F913F912F910F9049
:100880000FBE0F901F9018951F920F920FB60F92E8
:1008900011242F938F939F93EF93FF93E091E401A3
:1008A000F091E5018081E091EA01F091EB0182FD98
:1008B0001BC090818091ED018F5F8F732091EE01BD
:1008C000821741F0E091ED01F0E0EC52FE4F958F80
:1008D0008093ED01FF91EF919F918F912F910F9058
:1008E0000FBE0F901F9018958081F4CF1F920F922A
:1008F0000FB60F9211242F933F938F939F93AF9333
:10090000BF938091A3019091A401A091A501B09102
:10091000A60130919E0123E0230F2D3758F5019653
:10092000A11DB11D20939E018093A3019093A4016A
:10093000A093A501B093A60180919F019091A00181
:10094000A091A101B091A2010196A11DB11D8093BA
:100950009F019093A001A093A101B093A201BF9128
:10096000AF919F918F913F912F910F900FBE0F905C
:100970001F90189526E8230F0296A11DB11DD2CF16
:10098000E4EDF1E01382128288EE93E0A0E0B0E0A3
:1009900084839583A683B78384E091E091838083E9
:1009A00085EC90E09587848784EC90E09787868734
:1009B00080EC90E0918B808B81EC90E0938B828B2C
:1009C00082EC90E0958B848B86EC90E0978B868B05
:1009D000118E128E138E148EE1E7F2E082E0808396
:1009E00086E181830895CF93DF9300D000D01F92DA
:1009F000CDB7DEB7789484B5826084BD84B581605C
:100A000084BD85B5826085BD85B5816085BD8091D9
:100A10006E00816080936E00109281008091810051
:100A20008260809381008091810081608093810049
:100A3000809180008160809380008091B10084600B
:100A40008093B1008091B00081608093B00080916C
:100A50007A00846080937A0080917A00826080932B
:100A60007A0080917A00816080937A0080917A0088
:100A7000806880937A001092C100E091E401F091C7
:100A8000E50182E08083E091E001F091E1011082D4
:100A9000E091E201F091E3018FEC80831092EC0190
:100AA000E091E801F091E90186E08083E091E601C0
:100AB000F091E701808180618083E091E601F0910F
:100AC000E701808188608083E091E601F091E70191
:100AD000808180688083E091E601F091E701808168
:100AE0008F7D808360E082E00E94F50161E083E019
:100AF0000E94F50161E084E00E94F50161E085E07B
:100B00000E94F50161E086E00E94F50161E087E066
:100B10000E94F50161E088E00E94F50161E089E052
:100B20000E94F50161E08AE00E94F50161E08BE03E
:100B30000E94F50161E08CE00E94F50161E08DE02A
:100B40000E94F50161E08EE00E94F50161E08FE016
:100B50000E94F50161E080E10E94F50161E081E120
:100B60000E94F50161E082E10E94F50161E083E10C
:100B70000E94F501F0E0EF2EF0E0FF2E0EEFDD24F5
:100B8000DA94ADEFCA2E2FB7F8948091A30190911B
:100B9000A401A091A501B091A6012FBF4091D00161
:100BA0005091D1016091D2017091D3014C015D014E
:100BB000841A950AA60AB70AB501A401483E534013
:100BC0006105710508F459C08093D0019093D1015B
:100BD000A093D201B093D30119821A821B821C8286
:100BE0001D8261E0809171020E94F50160E08091B8
:100BF00071020E94C7010E9431022B013C01E2E117
:100C00008E2E912CA12CB12C0E94310264197509F1
:100C100086099709683E734081059105A8F381E034
:100C2000881A9108A108B10898EE490E93E0591E60
:100C3000611C711C81149104A104B10429F762E0C4
:100C4000809171020E94F50128E230E040E050E01E
:100C500061E0809171020E945602672B682B692B1C
:100C600071F5C0927302809173028E3F09F47AC1CC
:100C70000CF049C18D3F09F47CC184ED91E00E94E4
:100C8000EA00892BD1F384ED91E00E94C8008436FC
:100C9000910509F4EEC20CF0CEC18833910509F438
:100CA00080C20CF08AC18533910509F446C20CF06C
:100CB00063C1C49709F425C28EE891E019C420E508
:100CC00030E040E050E060E0809171020E94560206
:100CD000672B682B692B29F220E530E040E050E0DB
:100CE00061E0809171020E945602672B682B692B8C
:100CF00009F4B7CFB12CA12C22E330E040E050E062
:100D000060E0809171020E94560224E630E040E0EB
:100D100050E061E0809171020E945602662349F121
:100D2000F50173E0F595E7957A95E1F781E090E0BC
:100D30008C0F9D1FE80FF91F8081880F91E06E32A4
:100D400008F490E0890F80839FEFA91AB90A28E27E
:100D5000A216B10489F669814A81BB801C81862F65
:100D6000840F8B0D810F9D81891731F0D092730212
:100D70007ACF0093730277CF80917202853109F4A4
:100D800086C0863109F4B9C08B3009F06AC070E0C2
:100D900090E080E00E948E0B60938002709381024D
:100DA00080938202909383026B2D70E090E080E04C
:100DB0000E94900B4B015C0117FF56C01F77612FFB
:100DC00070E090E080E00E94900B2DEC3CEC4CEC4D
:100DD0005DE30E94450C9B01AC0160E070E080E89F
:100DE0009FE30E947B0AA50194010E947C0A4B01AB
:100DF0005C01B7FAB094B7F8B09480927402909204
:100E00007502A0927602B092770220E030E040E1D5
:100E100051E4C501B4010E94450C20E030E040EAF5
:100E200050E40E94ED0A20E030E040E052E40E94ED
:100E30007C0A609378027093790280937A0290938F
:100E40007B0223E333E948E853E4C501B4010E947F
:100E50007C0A60937C0270937D0280937E02909363
:100E60007F0210927302FFCE612F70E090E080E06D
:100E70000E94900B2DEC3CEC4CEC5DE30E94450C89
:100E8000A50194010E947C0A4B015C01B6CF262F7C
:100E900030E0322F2227B901640F711D072E000C9C
:100EA000880B990B0E94900B2DEC3CEC4CEC5DE315
:100EB0000E94450C609380027093810280938202AD
:100EC000909383026B2D70E0762F662766277F77DD
:100ED000610F711D072E000C880B990B0E94900B5F
:100EE0002DEC3CEC4CEC5DEBB7FC04C02DEC3CEC89
:100EF0004CEC5DE30E94450CC7CF862F90E0982F05
:100F00008827BC01C9CF8F3F31F18111B6CE8091C6
:100F1000740290917502A0917602B091770280934D
:100F2000CC019093CD01A093CE01B093CF018091DD
:100F3000800290918102A0918202B09183028093FD
:100F4000C8019093C901A093CA01B093CB0181E07D
:100F50008093C70192CE81E291E00E941803109223
:100F6000C7018BCE1092C70180E391E00E94180365
:100F700084CE8FE391E0F1CF8633910509F4F7C079
:100F8000C79709F099CE61E08091BF019091C001AF
:100F9000892B09F060E0862F90E09093C001809348
:100FA000BF0187E00E94C70184E591E00E9416031B
:100FB0008091BF019091C001BDC08136910509F4B7
:100FC00024C1BCF48933910509F405C1CF9709F018
:100FD00073CE61E083E00E94C701E114F10409F4DB
:100FE000D2CD0E94F600882309F4CDCD0E940000E6
:100FF000CACD8236910509F422C18336910509F0E4
:101000005BCE61E08091B5019091B601892B09F02A
:1010100060E0862F90E09093B6018093B5018CE05C
:101020000E94C70184E591E00E9416038091B501FA
:101030009091B6017FC08936910509F482C104F50B
:101040008636910509F449C10CF42DC18736910506
:1010500009F45DC18836910509F02ECE8091C70153
:10106000882309F4B6CF8FE791E00E9416036091C0
:10107000C8017091C9018091CA019091CB01A6C1AC
:101080008337910509F4A5C114F58A36910509F451
:1010900072C18B36910509F00FCE61E08091A701F6
:1010A0009091A801892B09F060E0862F90E0909341
:1010B000A8018093A70183E10E94C70184E591E024
:1010C0000E9416038091A7019091A80133C0843734
:1010D000910509F46AC18A37910509F0EDCD809137
:1010E000C701882309F475CF6091CC017091CD01BF
:1010F0008091CE019091CF010E94260389E691E074
:10110000B4CF61E08091C5019091C601892B09F0AF
:1011100060E0862F90E09093C6018093C50184E043
:101120000E94C70184E591E00E9416038091C501E9
:101130009091C6010E94F0034CCF61E08091C30101
:101140009091C401892B09F060E0862F90E0909384
:10115000C4018093C30185E00E94C70184E591E04A
:101160000E9416038091C3019091C401E3CF61E016
:101170008091C1019091C201892B09F060E0862F16
:1011800090E09093C2018093C10186E00E94C70164
:1011900084E591E00E9416038091C1019091C20103
:1011A000C9CF61E08091BD019091BE01892B09F00A
:1011B00060E0862F90E09093BE018093BD0188E0AF
:1011C0000E94C70184E591E00E9416038091BD0151
:1011D0009091BE01AFCF61E08091BB019091BC01C5
:1011E000892B09F060E0862F90E09093BC018093FA
:1011F000BB0189E00E94C70184E591E00E941603CB
:101200008091BB019091BC0195CF61E08091B901C3
:101210009091BA01892B09F060E0862F90E09093BD
:10122000BA018093B9018AE00E94C70184E591E088
:101230000E9416038091B9019091BA017BCF61E0C1
:101240008091B7019091B801892B09F060E0862F59
:1012500090E09093B8018093B7018BE00E94C701A2
:1012600084E591E00E9416038091B7019091B80146
:1012700061CF61E08091B3019091B401892B09F0B5
:1012800060E0862F90E09093B4018093B3018DE0ED
:101290000E94C70184E591E00E9416038091B3018A
:1012A0009091B40147CF61E08091B1019091B2017A
:1012B000892B09F060E0862F90E09093B201809333
:1012C000B1018EE00E94C70184E591E00E941603FF
:1012D0008091B1019091B2012DCF61E08091AF0179
:1012E0009091B001892B09F060E0862F90E09093F7
:1012F000B0018093AF018FE00E94C70184E591E0C7
:101300000E9416038091AF019091B00113CF61E06C
:101310008091AD019091AE01892B09F060E0862F9C
:1013200090E09093AE018093AD0180E10E94C701EF
:1013300084E591E00E9416038091AD019091AE0189
:10134000F9CE61E08091AB019091AC01892B09F05D
:1013500060E0862F90E09093AC018093AB0181E137
:101360000E94C70184E591E00E9416038091AB01C1
:101370009091AC01DFCE61E08091A9019091AA012A
:10138000892B09F060E0862F90E09093AA0180936A
:10139000A90182E10E94C70184E591E00E94160341
:1013A0008091A9019091AA01C5CE8091C70188239F
:1013B00009F40FCE8EE691E00E9416036091CC01F5
:1013C0007091CD018091CE019091CF010E942603B2
:1013D00000CE80E30E94790180E30E94790180E3DE
:1013E0000E94790180E30E9479018091C50190916A
:1013F000C6010E94F0038091C3019091C4010E9434
:10140000F0038091C1019091C2010E94F00380918C
:10141000BF019091C0010E94F0038091BD019091A5
:10142000BE010E94F0038091BB019091BC010E941B
:10143000F0038091B9019091BA010E94F00380916C
:10144000B7019091B8010E94F0038091B50190918D
:10145000B6010E94F0038091B3019091B4010E9403
:10146000F0038091B1019091B2010E94F00380914C
:10147000AF019091B0010E94F0038091AD01909175
:10148000AE010E94F0038091AB019091AC010E94EB
:10149000F0038091A9019091AA010E94F00380912C
:1014A000A7019091A8010E94F0038091C7018823B1
:1014B00009F48FCD8BE691E00E9416036091CC0178
:1014C0007091CD018091CE019091CF010E942603B1
:1014D0008CE791E00E9416036091C8017091C901E8
:1014E0008091CA019091CB010E9426038AE891E085
:1014F0000E9416036ECD5058BB27AA270E94930A5C
:101500000C94060C0E94F80B38F00E94FF0B20F0A0
:1015100039F49F3F19F426F40C94F50B0EF4E09582
:10152000E7FB0C94EF0BE92F0E94170C58F3BA1746
:10153000620773078407950720F079F4A6F50C94E9
:10154000390C0EF4E0950B2EBA2FA02D0B01B9012A
:1015500090010C01CA01A0011124FF27591B99F029
:10156000593F50F4503E68F11A16F040A22F232F35
:10157000342F4427585FF3CF469537952795A79585
:10158000F0405395C9F77EF41F16BA0B620B730B2C
:10159000840BBAF09150A1F0FF0FBB1F661F771F9D
:1015A000881FC2F70EC0BA0F621F731F841F48F452
:1015B000879577956795B795F7959E3F08F0B0CFDB
:1015C0009395880F08F09927EE0F979587950895C2
:1015D0000E94CB0B08F481E008950E94010B0C944B
:1015E000060C0E94FF0B58F00E94F80B40F029F403
:1015F0005F3F29F00C94EF0B51110C943A0C0C94B2
:10160000F50B0E94170C68F39923B1F3552391F35E
:10161000951B550BBB27AA2762177307840738F061
:101620009F5F5F4F220F331F441FAA1FA9F335D0BE
:101630000E2E3AF0E0E832D091505040E695001C72
:10164000CAF72BD0FE2F29D0660F771F881FBB1F2C
:10165000261737074807AB07B0E809F0BB0B802D0A
:10166000BF01FF2793585F4F3AF09E3F510578F036
:101670000C94EF0B0C943A0C5F3FE4F3983ED4F3D8
:10168000869577956795B795F7959F5FC9F7880F0A
:10169000911D9695879597F90895E1E0660F771F5C
:1016A000881FBB1F621773078407BA0720F0621BED
:1016B000730B840BBA0BEE1F88F7E09508950E9418
:1016C0001F0C88F09F5798F0B92F9927B751B0F0A9
:1016D000E1F0660F771F881F991F1AF0BA95C9F7B6
:1016E00014C0B13091F00E94390CB1E008950C940F
:1016F000390C672F782F8827B85F39F0B93FCCF3C2
:10170000869577956795B395D9F73EF49095809532
:10171000709561957F4F8F4F9F4F0895E89409C052
:1017200097FB3EF490958095709561957F4F8F4F14
:101730009F4F9923A9F0F92F96E9BB279395F6952A
:10174000879577956795B795F111F8CFFAF4BB0FA8
:1017500011F460FF1BC06F5F7F4F8F4F9F4F16C00C
:10176000882311F096E911C0772321F09EE8872F96
:10177000762F05C0662371F096E8862F70E060E052
:101780002AF09A95660F771F881FDAF7880F9695CB
:10179000879597F90895990F0008550FAA0BE0E86F
:1017A000FEEF16161706E807F907C0F01216130623
:1017B000E407F50798F0621B730B840B950B39F463
:1017C0000A2661F0232B242B252B21F408950A26C9
:1017D00009F4A140A6958FEF811D811D089597F909
:1017E0009F6780E870E060E008959FEF80EC0895C7
:1017F00000240A94161617061806090608950024F0
:101800000A9412161306140605060895092E039469
:10181000000C11F4882352F0BB0F40F4BF2B11F4DD
:1018200060FF04C06F5F7F4F8F4F9F4F089557FD3C
:101830009058440F551F59F05F3F71F04795880F3E
:1018400097FB991F61F09F3F79F0879508951216D5
:1018500013061406551FF2CF4695F1DF08C0161681
:1018600017061806991FF1CF869571056105089432
:101870000895E894BB2766277727CB0197F9089549
:101880000E94CB0B08F48FEF08950E94580C0C9423
:10189000060C0E94F80B38F00E94FF0B20F09523F5
:1018A00011F00C94EF0B0C94F50B11240C943A0CE2
:1018B0000E94170C70F3959FC1F3950F50E0551FD0
:1018C000629FF001729FBB27F00DB11D639FAA2795
:1018D000F00DB11DAA1F649F6627B00DA11D661FE4
:1018E000829F2227B00DA11D621F739FB00DA11D05
:1018F000621F839FA00D611D221F749F3327A00DBF
:10190000611D231F849F600D211D822F762F6A2F5A
:1019100011249F5750409AF0F1F088234AF0EE0FBF
:10192000FF1FBB1F661F771F881F91505040A9F7EC
:101930009E3F510580F00C94EF0B0C943A0C5F3FE6
:10194000E4F3983ED4F3869577956795B795F79528
:10195000E7959F5FC1F7FE2B880F911D96958795A0
:1019600097F908950E94CB0B880B990B0895A1E27B
:101970001A2EAA1BBB1BFD010DC0AA1FBB1FEE1F09
:10198000FF1FA217B307E407F50720F0A21BB30B54
:10199000E40BF50B661F771F881F991F1A9469F7D0
:1019A00060957095809590959B01AC01BD01CF012C
:1019B0000895EE0FFF1F0590F491E02D0994F8941F
:0219C000FFCF57
:1019C200000000002C018C00B9007E01EA00C80072
:1019D200DC000D0A006E616E00696E66006F76664D
:1019E20000436865636B73756D206572726F720078
:1019F20054696D65206F7574206572726F72005341
:101A0200656E736F72206E6F7420636F6E6E6563A6
:101A12007465640070696E20737461746520636814
:101A2200616E676520746F20002C00202820746589
:101A32006D70657261747572653A2000202F20689E
:101A4200756D69646974793A2000202920007069F3
:0E1A52006E206973206E6F74207573656400DA
:00000001FF
